S01C0000626F6F746C6F616465722D756172742D62676170692E73333794
S1130800201300208D360000D30E0000D5210000F7
S1130810B311000033120000C716000000000000EE
S11308200000000000000000400800001F35000028
S11308308335000074080000EB3500000F3600001B
S113084007B0CD5E0100000000000A018C2F0000FB
S11308500040000000000400F0001000C12300006C
S1130860C5230000CF280000AB360000DD360000B1
S11308700000000013B779FAC925DDB7ADF3CFE066
S1130880F1B614B80101000000000000882F000038
S11308904000000000000A01000000000000000009
S11308A00000000000000000000000000000000044
S11308B00000000010B501218248834C00F05CF96F
S11308C00121824800F058F90121814800F054F9CF
S11308D00121804800F050F940F6AA60E060002150
S11308E02160616641F205006060A1606161E164BC
S11308F0794AA2646167A167E1676060206820604B
S113090000F072F9400100F561204FF4E111B0FBF1
S1130910F1F02038714A02EAC00262610123042224
S11309200021002000F0B7F9012301220121002059
S113093000F0B1F90020A067032161670520E060A1
S11309404FF0E0616648016000220262C2624263C5
S1130950C2664FF4402363490B608A60002400BFE1
S11309606DA2614B4C60920892008A610B638C63A8
S11309704C6303215D4A11600123C36302205C4977
S1130980086010BD70B50E46802E0546144602D38D
S113099041F2031070BD00F026F810B941F20620B0
S11309A070BD0020534902E02A5C0A54401CB04246
S11309B0FAD3D1F88000761E66F30E10C1F88000D9
S11309C0803189084C488900016002224B490A6041
S11309D03CB100F008F80028FBD0494801688A06B9
S11309E0FBD5002070BD474847498268930702D56C
S11309F00220086003E00068820703D402208860B4
S1130A0001207047002070474048006840F20111FF
S1130A10884208BF002007D040F2022188420EBF5E
S1130A204FF480703A49401A3A4A1168814201D120
S1130A300020704701D2401A7047C1F50071401878
S1130A4070472DE9F04107468846154600268BB1CC
S1130A50069C2CB100F058F90021204600F076F9EC
S1130A60FFF7D2FF404505D2002CF9D000F084F9FD
S1130A700028F5D0FFF7C8FF804505D8404603E0BD
S1130A8000230B6002211160864212D22149204AC0
S1130A900B68D45C164ABC55761C5B1CB3F5007F0E
S1130AA00B60EDD0B3F5807FEED10121EBE7BDE81B
S1130AB0F08105B12E60464534BF41F20420002088
S1130AC0F5E70000404105000000014000250A0050
S1130AD000450A0000220400F9FF0100F8FF7F002E
S1130AE000200E4080200E4001000C0028200E44FF
S1130AF008200E4680000020C8200E403C200E40F6
S1130B001000014020200E4020200E4494200E406E
S1130B101001002018030020F00F10031C000140F6
S1130B201001002013000000090000000001000073
S1130B300202000013000000F00F10031C0001402B
S1130B401002002013000000090000000002000051
S1130B5001010000D3FFFFFF890001EB401101F107
S1130B6084410A607047DFF874104A68D30702D4DE
S1130B700A680242FCD1704770B50C460246110A5D
S1130B8001F00F010020491E0929DFF8545013D841
S1130B90DFE801F005131212071518121B1FDFF806
S1130BA03850C2F3043608B1FFF7DDFF2246314660
S1130BB02846BDE87040CFE770BD1035F1E7303509
S1130BC00120EEE738351020EBE740354FF4803054
S1130BD0E7E7DFF81050E4E700400E4040410E40E4
S1130BE0B0400E4050410E4010B51449086800F062
S1130BF00700022808BF124A18D0124B1868C0F325
S1130C000440112828BF104A10D200BF11A20F4C73
S1130C10125C0F484243A24208D11B685B0E0120BC
S1130C2003F0030322469840B2FBF0F2C86EC0F30F
S1130C300420401CB2FBF0F010BD000094400E40B4
S1130C4000F0490210400E40C0EA210100093D00B5
S1130C5040420F000400000700000D1013001A208A
S1130C60263038404800000010B500F00DF804F1BB
S1130C70806404E010B500F007F804F1C0640123B7
S1130C8003FA01F1216010BD30221E4B5043184479
S1130C9000F10C047047F8B50546174638000E46B7
S1130CA01C4607D0002C284602D0FFF7E3FF01E0E2
S1130CB0FFF7DAFF2A4630201249424388180F22F0
S1130CC0082E05D2B300416800F015F8416006E033
S1130CD0A6F108039B00816800F00DF881604FB90C
S1130CE0002C3146284602D0BDE8F440C2E7BDE8F6
S1130CF0F440B9E7F1BD9A4021EA020207FA03F190
S1130D001143704700A00040F8B52648016841F43B
S1130D10801101602448026842F001020260FFF77A
S1130D2063FF4FF47A71B0FBF1F0204A23A1800AEB
S1130D3050601022684600F059F80A208DF802002D
S1130D4069461B4800F07DF805B000BD30B5194B6D
S1130D50164C1D69626802FB00506080ADB2608869
S1130D60A8429241D20F227011B119698142FCD17B
S1130D7001201860586030BD0C4A0F49107820B12A
S1130D800B68D80706D4002070470868C30701D54C
S1130D90012070478869518888428041C043C00F50
S1130DA07047000000400E40C0400E401003002079
S1130DB000800140148001400C80014001000000CB
S1130DC000000000000000000000000062B38B0778
S1130DD008D0521E11F8013B00F8013B00F02480BA
S1130DE08B07F6D1830740F0208000BF103A07D369
S1130DF030B4B1E83810103AA0E83810F9D230BC59
S1130E00530724BFB1E80810A0E8081044BF51F804
S1130E10043B40F8043BD20724BF31F8022B20F8EE
S1130E20022B44BF0B7803707047083A07D3B1E82C
S1130E300810083A40F8043B40F804CBF7D25307B3
S1130E40E4E72DE9F0410246087808B9022353602B
S1130E50002454624B78002B4B7A14BF40250025A4
S1130E60002B8B7A14BF80260026002BCB7A14BF6C
S1130E7020270027002B0B7B14BF4FF0100CA44637
S1130E8003B1082391F803E08C7891F807804FEAC6
S1130E900E4E4EEA046E8C794EEA842444EA082EFF
S1130EA00C7A44EA0E04254335433D434CEA0505D8
S1130EB01D430B790BB14FF40053497909B14FF03D
S1130EC080511D430D43156008B101205060BDE8F9
S1130ED0F081FEE7024870470248704702487047B5
S1130EE04A43E00F6A43E00F8642E00F0020704758
S1130EF00020704740F628000168086970472820E0
S1130F000068704740F62800006870472820044AAB
S1130F1000680168914201D1006970470020704760
S1130F20AD1007B001207047890001EB401101F1B9
S1130F3084410A60704710B50A684B688C68C968B8
S1130F40026003600460016010BDF4E710B502683C
S1130F500368046800680A608C604B60C86010BD58
S1130F6038B5102A04460D460DD101220021FFF7A1
S1130F70DBFF04F5887429462046FFF7DCFF05F102
S1130F801001204606E000220021FFF7CDFF29468C
S1130F9004F12400BDE83440CDE71FB50C4614F03D
S1130FA0030108D06946FFF7D1FF102269462046A5
S1130FB0FFF70CFF1FBD2146FFF7C8FF1FBD1FB57C
S1130FC0044611F0030008D010226846FFF7FEFE25
S1130FD069462046FFF7B9FF1FBD2046FFF7B5FF5E
S1130FE01FBD38B5044611F0030088B015460CD077
S1130FF0082D0CBF102220226846FFF7E7FE2A4680
S113100069462046FFF7ACFF02E02046FFF7A8FF41
S113101009B030BD00281CBF242100F0CBB87047B4
S113102070B505000C4618BF002C164602D16FF0AF
S1131030210070BD242100F0BDF8802E18BFB6F544
S1131040807F02D06FF0220070BD2E60F20821462E
S1131050281DFFF7BBFE002070BD594605F1800036
S11310609BE7484600F0A9B82DE9F64F83B0002A63
S113107014BF146800240027009000281CBF0F9E92
S1131080002E09D0DDF84080B8F1000F1CBF019399
S1131090002B01D00E9810B96FF0210075E0009874
S11310A000680291802818BFB0F5807F04D06FF0EB
S11310B022006AE000F06CF80298874261D2002CAA
S11310C0F8D100F084F80546002068604FF44041F0
S11310D029604FF0000A00F08FF8814600980168FB
S11310E080290CBF08221022011D2846FFF779FF32
S11310F0019905F18400FFF762FFFFF7B2FF029840
S1131100A0EB070913E000F04EF80AF1010A00F021
S113111073F88346F11905F1A000FFF750FF08EBBF
S11311200701FFF79BFF584600F047F81037BAEB6A
S1131130191F15D24820A8600521A960E3E76CB9FE
S11311404820A8600521A96000F02DF800F054F8AB
S113115081460E99FFF782FFFFF783FF00F018F82E
S11311600298C01BEBD100F047F88146019905F1C4
S11311708400FFF712FFFFF774FF284600F030F8F1
S11311809AE7049800B10460002005B0BDE8F08F30
S11311900E9AF15D105D414008F80710641C04F0DC
S11311A00F047F1C704728698107FCD40320A860C2
S11311B07047FEE7002200F023B800B962B670471A
S11311C0890001EB401101F184410A60704780B548
S11311D0FFE7012201210648FFF7F2FF054802BD9F
S11311E00449884203D1002201210148E8E77047FD
S11311F0B0400E4000000F40EFF3108072B670470D
S113120000B500BF130096469446103928BFA0E8E5
S11312100C50FAD85FEA417C28BF0CC048BF40F8A4
S1131220042BC90728BF20F8022B48BF00F8012B64
S113123000BDFEE710B50A684B688C68C968026097
S113124003600460016010BD10B50268036804689F
S113125000680A608C604B60C86010BD38B50446F5
S11312600D46FFF7F1FF05F110012046BDE83440BB
S1131270EAE72DE9F84F98B006460C4690469A46A0
S1131280FFF7A5FF05461EB1022E52D051D352E0FE
S113129000202860002169600020E864696821F466
S11312A0406169602863686354F8201009BA4DF8F6
S11312B02010401C0828F7D3FFF79EFF044605F5CD
S11312C0827669463046FFF7B5FF04A93046FFF73A
S11312D0B1FF2046FFF771FF2F4828650027229CA5
S11312E005F5D276A74242D218F0030008EB87191D
S11312F006D04022494608A8FFF768FD0DF12009F1
S1131300FFF77AFF8346494600F04CF809F11001D3
S113131000F048F809F1200100F044F809F1300127
S113132000F040F85846FFF748FF1C4828657F1C2A
S1131330D8E70420ADE71A4816E0FFF75DFF04463E
S113134051463046FFF78AFF2046FFF736FF28460E
S1131350FFF746FF00205AF8201009BA4AF8201077
S1131360401C0828F7D3002019B0BDE8F08F1AF00C
S1131370030005F58076E0D0FFF73EFF044669469A
S11313803046FFF76BFF2046FFF717FF2022694620
S11313905046FFF71BFDDAE7888AC801070D810173
S11313A080AFFFFF304645E72DE9F84F022883461A
S11313B01FD8140055D00B9AD2F800C0BCF13F0FCF
S11313C0984618D85068002818BF5FEA080A13D155
S11313D0BBF1000F04D0BBF1020F07D003D308E028
S11313E00FF2AC1A08E00FF2C81A05E00FF2E01A87
S11313F002E04A4836E0C2460CF03F06A444A44545
S1131400C6F14005C2F800C002D25068401C5060CA
S113141089460A9F8EB1AC420FD32A46B819FFF70A
S1131420D5FC0120009043463A4651465846FFF702
S113143020FFC246A944641B00263F2C0BD9A509F2
S1131440009543464A4651465846FFF712FF09EBBA
S11314508519A4EB851424B122464946B819FFF72F
S1131460B5FC0020BDE8F28F2DE9F84304462000C6
S113147086B0884616461F4603D0022C30D02DD3A2
S113148030E01425002100200DF1080C42429200A6
S113149057F82030D21D01EBC3010CF8021002A949
S11314A0114457F82020C91E52098A7057F8202089
S11314B0520B4A7057F82020520D0A7057F820102A
S11314C0490F401C0128E1D93A7802F03F02382A3A
S11314D034BFC2F13802C2F1780205E01C25D1E71D
S11314E02025CFE70D4816E0DDF8389040A101979C
S11314F0009643462046FFF757FF01970096434660
S1131500082202A92046FFF74FFF2A4641464846D3
S1131510FFF75CFC002007B0BDE8F08380AFFFFF5D
S113152000281CBF6C21FFF745BE7047002200292C
S11315300260CCBF01210021426080F868100020C5
S113154070473EB590F868300190002B14BF012419
S1131550022400F1280500F1080300952046FFF756
S113156023FF3EBD80B5034603F1280293F86800CB
S11315700091002814BF0120022003F1080103E0B8
S1131580D4E70000DDE7EDE7FFF76EFF02BD0000E2
S113159067452301EFCDAB8998BADCFE103254764F
S11315A0C3D2E1F0000000000000000000000000D1
S11315B0C1059ED8367CD5073070DD17F70E593932
S11315C0FFC00B316858151164F98FA7BEFA4FA4F8
S11315D06A09E667BB67AE853C6EF372A54FF53AC0
S11315E0510E527F9B05688C1F83D9AB5BE0CD19EC
S11315F08000000000000000000000000000000067
S113160000000000000000000000000000000000D6
S113161000000000000000000000000000000000C6
S113162000000000000000000000000000000000B6
S113163038B5174C206840F00400206001230422D0
S113164000F02AF80021009102E00098401C00906C
S113165000986428F9DB0123022200F01DF8002021
S113166001E00098401C00900098B0F5FA7FF8DB88
S113167008490868012814BF012500250123002218
S113168000F00AF8206820F004002060284632BDEB
S1131690B0400E409021144204210520FFF7FBBA0C
S11316A042685209042941EA42120AD9491F02290F
S11316B005D9C91E032904D9091F022902D842F0F9
S11316C0100242607047FEE710B56249624A01E0C9
S11316D021B1491E1369DC07FAD411B96FF0020075
S11316E010BD5060012010601169480702D54FF009
S11316F0FF3010BD002010BD03460020002900D19A
S1131700704770B5544C53F8042BE26008252560EB
S1131710491E504A01E062B1521E2569EE07FAD40F
S11317203AB12269940701D411B1EBE76FF00100DB
S113173070BD6FF0020070BD2DE9F84F444D0C46AA
S1131740A96B834600208EB206B1012641F67131A1
S1131750A9634FEA92082B6843F001032B6081468A
S1131760A24612E0C7F30A07C7F50067BF08A8EB53
S11317700900B84238BF074639465046FFF7BCFF58
S113178001000CD1B9440AEB870AC14507D20BEB1F
S113179089073846FFF798FF0100E3D00DE0DBF836
S11317A0002021688A4208D05846FFF78DFF0100C7
S11317B003D101212046FFF79FFF2968490849000A
S11317C02960F6B20EB10021A963BDE8F28F30B5ED
S11317D01F4B20490246986B80B200B1012041F6AC
S11317E071349C631D6845F001051D609A600122F7
S11317F05A605C69620704D500F021F84FF0FF30AD
S113180030BD02225A605A69D40710D5002918BF86
S1131810491EF8D10BE00029196804D100F010F832
S11318206FF0020030BD00F00BF8002030BD5A69A3
S11318309407F0D500F003F86FF0010030BD19688B
S113184049084900196008B100209863704773E79C
S113185008000E40809698000C000E4010B50B4A0C
S1131860516813688C0004F03C04C3F381110C43E9
S11318708470116801F03F0141709368D16803F0EE
S1131880F003C1F303110B43037010BDE0FF0FE03D
S11318902DE9F84106000D4618BF002DA1B01446ED
S11318A0984606D0002C18BFB8F1000F01D0289F2D
S11318B017B940F2016023E001211348FFF75CF9F6
S11318C0402111A8FFF776FC414611A800F0D3FA95
S11318D0394619A800F0CFFA01A84021FFF76AFCA5
S11318E0294601A800F0C7FA214609A800F0C3FA66
S11318F001A8009011AB20223146044800F0CAFA36
S113190022B0BDE8F081000000150A0000000F407D
S113191010B50A684B688C68C9680260036004608B
S1131920016010BD10B502680368046800680A60AD
S11319308C604B60C86010BD38B504460D46FFF797
S1131940E7FF05F110012046BDE83440E0E738B573
S113195004460D46FFF7E6FF05F110012046BDE8F9
S11319603440DFE7082250F8041B21B9521EFAD193
S11319700020C0B270471000FBD00120F9E7F8B591
S113198000F065F90746294604F58470FFF7D4FF93
S1131990314604F58670FFF7CFFF3846FFF70DFC9C
S11319A0DFF8DC062065012161656069000E00F046
S11319B0010080F00100F2BD2DE9F84F88B0044623
S11319C00D4692461E46FFF717FC834604F58277C0
S11319D005F1400100F035F904F58678514600F030
S11319E029F904F588790AF120014846FFF7A4FF94
S11319F000F022F900F038FAA065E16504F5847A74
S1131A00FFF7FAFB8346294600F01BF905F1200194
S1131A105046FFF791FF05F140014846FFF78CFF60
S1131A2000F00AF9DFF85C06DFF85C1620656165F2
S1131A300120A06504F58079FFF7DEFB834606F1FB
S1131A4040014846FFF783FF69465046FFF77FFF92
S1131A5000F0F2F8FFF7D0FB834600F0EAF800F05C
S1131A60EBF8DFF82806DFF8281620656165012108
S1131A70DFF8200600F0E7F8804600F0E0F800F018
S1131A802BF9DFF81406DFF8141600F021F80546E8
S1131A9031465046FFF75BFF2846FFF78EFBFFF702
S1131AA0ABFB054669463846FFF746FF2846FFF775
S1131AB084FBDFF8EC05DFF8EC1500F009F80446C8
S1131AC000F0B3F82046FFF778FB09B0BDE8F08FCB
S1131AD0206561650120A065FFF78EBB2DE9F84FF5
S1131AE098B000F0B4F8804604F5827700F0A7F8C7
S1131AF000F0F2F8DFF8B005DFF8B0152065616595
S1131B0004F58078DFF8A805FFF7E5FF814608A90A
S1131B104046FFF71CFF4846FFF74FFBFFF76CFBFF
S1131B20814600F086F84846FFF747FBDFF8840556
S1131B30DFF88415206561654FF48670A06504F5AF
S1131B408679FFF759FB824610A94846FFF7FFFE46
S1131B5069464046FFF7FBFE5046FFF72EFBFFF7B2
S1131B604BFB824605F1400100F06BF85046FFF74D
S1131B7024FBDFF8480520650121616504F5847ABA
S1131B80FFF73AFB834600F0C1FA00F055F8DFF89E
S1131B903005DFF83015206561650121DFF828057F
S1131BA000F051F8834669465046FFF7C5FE10A978
S1131BB04846FFF7C1FE00F03FF8DFF81005DFF8F4
S1131BC0101520656165DFF80C05FFF784FF834677
S1131BD0314604F58870FFF7BAFE00F02DF8FFF7E0
S1131BE00BFB834600F02BF805F140015046FFF74C
S1131BF0A3FE08A94846FFF79FFE00F01DF8DFF892
S1131C00D804DFF8D81420656165FFF7F5FA0446B7
S1131C1006F140014046FFF79AFE00F006F8204620
S1131C20FFF7CBFA19B0BDE8F08F06F12001484662
S1131C308DE6294640467FE65846FFF7BEBA05F1D1
S1131C402001384678E6A065E165FFF7D5BA044679
S1131C500D461646FFF7D0BA2DE9F04105460E466B
S1131C601C46174620212046FFF7A4FA01222260D1
S1131C70FFF7C2FA8046394605F58070FFF75CFE2F
S1131C80314605F58270FFF757FE05F58476214647
S1131C903046FFF751FE00F01FF8DFF844042865D2
S1131CA00BE0DFF84014DFF8400429656865DFF8CD
S1131CB03C14DFF83C04A965E8656869C101F0D506
S1131CC0FFF79AFA054621463046FFF740FE2846BC
S1131CD0BDE8F041FFF771BA4046FFF76EBA50F81D
S1131CE0043B934203D007E050F8042B22B9091FA8
S1131CF00129F9DA01207047002070472DE9F041ED
S1131D0088B004460D461646984620216846FFF7DB
S1131D1051FA0122009220214046FFF74BFA20217C
S1131D2008F12000FFF746FA202108F14000FFF7F0
S1131D3041FA05212046FFF7B3FC00202060206310
S1131D406063FF2700F040F802D47F1E002FF9DC07
S1131D50002F36D4424641462046FFF7BFFE00F02E
S1131D6033F82CD5002220214046FFF7B8FF00B3FA
S1131D700022202108F12000FFF7B1FFC8B10022A2
S1131D80202108F14000FFF7AAFF90B12022294644
S1131D904046FFF72BF8202205F1200108F120002E
S1131DA0FFF724F82022694608F14000FFF71EF8E7
S1131DB005E043462A4641462046FFF7FDFD7F1EC7
S1131DC0C6E708B0BDE8F081381107EBD0604011D8
S1131DD056F82010A7EB4010C140CA0770472DE900
S1131DE0F0410F4690B0044615460521FFF758FC14
S1131DF00022226022636263684620220FF22031AF
S1131E00FEF7F4FF08AB6A4607F140012046FFF7EE
S1131E1023FFFFF7F1F9804608A904F58270FFF764
S1131E208BFD04F5867639463046FFF785FD07F1CC
S1131E30200104F58870FFF77FFDFFF74DFF00F0E8
S1131E4013F8FFF700FF074605F1200104F5807041
S1131E50FFF77DFD29463046FFF779FD3846FFF749
S1131E60ACF910B0BDE8F0818F48A24920656165E6
S1131E700121A148704738B50D4604462021FFF7DB
S1131E8099F9FFE71F204242295C2244401ED17782
S1131E90F9D531BD2DE9F04FB9B007460C461646C9
S1131EA01D4621A86021FFF785F909A86021FFF7E5
S1131EB081F93CB1009528001CBF429D002D01D042
S1131EC0002E02DC40F20160D5E000203860386367
S1131ED078630C2178680FF23C2840F01000786099
S1131EE03846FFF7DDFB786820F4406040F400607A
S1131EF078602022786820F4407040F400707860A4
S1131F0008F12C0111A8FEF771FF11AA29463846E1
S1131F10FFF735FD78B92846FFF724FD58B111AA1B
S1131F2005F120013846FFF72AFD20B905F120000C
S1131F30FFF718FD10B940F202609CE0202EC8BFE4
S1131F402026202119A8FFF735F9002014E0321AC1
S1131F50521E09A99208A6F1010E01EB8201AEEB13
S1131F60000E235C0A6C4FEACE0E0EF0180E03FA34
S1131F700EF31A430A64401CB042E8DBFFF73CF955
S1131F80064607F5847419A92046FFF7D5FC3046A8
S1131F90FFF713F95948386507F58076FFF72CF9F0
S1131FA0814619A93046FFF7D2FC4846FFF705F9E8
S1131FB001AB11AA05F120013846FFF74DFEFFF7EA
S1131FC01BF9834601A907F58270FFF7B5FC07F5F5
S1131FD0887919A94846FFF7AFFC07F5867A00F01F
S1131FE095F8FFF729FE4648464938657965FFF7B5
S1131FF003F9834619A94846FFF7A9FC01A930460D
S1132000FFF7A5FCFFF718FE21AB19AA08F14C0154
S11320103846FFF773FE009909AB01AA3846FFF76B
S11320206DFE21AA21A93846FFF7D9FE09AB21AAE2
S113203009A93846FFF7C0FC09AA09A93846FFF7E1
S1132040CEFEFFF7D9F806460C213846FFF728FBE9
S113205009A92046FFF770FC00F058F83046FFF756
S1132060ACF829482249386579657869C1014CBFC3
S1132070002040F2046039B0BDE8F08F0000000099
S11320803035DA10D01482CB1481E11C8CE11C8130
S11320901C84D91C8391D11CE014D8141482E11C33
S11320A084D31482D11CE0148AD11C81821CC00CFC
S11320B00C0C0100C00C0C83D91C83D88AD11C835E
S11320C0DA0C811482D11C81C80C0C818CE11CD0E7
S11320D01484E31482D11C01D81483D11CC00C01D4
S11320E039398401D02484FC1C82FED88B1C81A045
S11320F039380100D91C83D11C81E11C30D00C017A
S113210030E11C8430D91C013035DA14294650469C
S1132110FFF712BC2000000000010000050C0000C5
S1132120FFFFFFFFFFFFFFFFFFFFFFFF00000000B7
S1132130000000000000000001000000FFFFFFFF9E
S1132140512563FCC2CAB9F3849E17A7ADFAE6BC55
S1132150FFFFFFFFFFFFFFFF00000000FFFFFFFF87
S113216096C298D84539A1F4A033EB2D817D03772D
S1132170F240A463E5E6BCF847422CE1F2D1176BC8
S1132180F551BF376840B6CBCE5E316B5733CE2B9B
S1132190169E0F7C4AEBE78E9B7F1AFEE242E34FCA
S11321A030B50A4B1C6844F020041C600125084B20
S11321B01D609A605D6002E010F8014B9C610A4664
S11321C0511E002AF8D1D86930BD00BFB0400E407E
S11321D000C001404FF4017000F0B8B838B54B4965
S11321E04B4A0120086068461468FFF737FB240E49
S11321F08F2C10DA4748484C016841F00402026011
S11322004FF05013002230255543521C6351062AC7
S1132210F9D3016000E006DC40480168C909C9013E
S113222041F0200101609DF80100012804D13C48DF
S1132230016841F00401016000203A49086000F09F
S1132240BFF800F07EF800F0C5F800F0C5F818B14A
S11322504FF4017000F07AF800F0DEF8044600F064
S113226099F9002C19BF40F20370844240F2012016
S113227000F06CF840F2057084421BBF40F2067116
S11322808C4240F203204FF4017000F05FF800200C
S113229032BD000038B524480168012401254A05EF
S11322A00AD500F075F840F20221401A07D0C01E8A
S11322B005D0C01E012802D9FFF7BAF908B10024DD
S11322C0002544F20400016811F1010F06D1BDE8B4
S11322D032404FF4027000F02DB831BD2DB14FF4EF
S11322E0804000F0F4FA0400F1D0002CF5D00F493E
S11322F04FF48040086002461046016881F3088864
S113230081F3098840688746FEE7000044000E40D8
S1132310FC81E00FB0400E4000A000402C400E4075
S113232064310E40B40AC64304500E4008ED00E088
S1132330002070474FF0005108804FF20F00488092
S113234070470F494CF23C30088070474FF0005101
S113235008804FF20F0048800A48016821F4E061C8
S113236041F480610160BFF34F8F074907480A6851
S113237002F4E06202430A60BFF34F8F00BFFDE73F
S11323800200002000500E400CED00E00400FA05AD
S11323904FF000514FF20F024888904201D1088853
S11323A07047002804BF0888012802D140F20220A7
S11323B070474FF4007070474FF00050008870472A
S11323C0002070470020704701790122091DC01CBC
S11323D0FEF7D8BAFEF76EBA80B5A2B0FFF7ECFFED
S11323E0B0F5027F07D168466BA18822FEF7FEFC98
S11323F06846FFF7E9FF684689A18822FEF7F6FCE4
S113240040F628010DF107000A68936803606846E6
S1132410FFF7DAFF23B000BD30B5ADF5257D61A827
S1132420A1A18822FEF7E2FC0DF13000C0A1102228
S1132430FEF7DCFC0DF10800C1A12822FEF7D6FC52
S1132440202310AA2BA93DA800F0D4FB40F60335A5
S113245008E0012100228DF88A11ADF88B2161A8D2
S1132460FFF7B2FF882183A8FEF7A4FEFEF7CCFA9B
S11324700028FBD04FF47A700090012383A801AAAE
S11324800121C01CFEF7DDFA9DF80F022028EDD1D2
S11324904FF47A710091012301AA032184A8FEF765
S11324A0D0FA01980328DDD19DF8104274B140F6AA
S11324B0B8300090012384A801AA2146C01CFEF76D
S11324C0C0FA0199A14208BF0028CBD19DF811029E
S11324D00028C7D19DF812029DF813320328C1D8F1
S11324E0DFE800F04603041ABCE7B2E70CA9009148
S11324F085AA02A93DA800F0B9FB02218DF88A1132
S113250000281CBF41F20701884212BFADF88B516D
S11325100022ADF88B21A2E703208DF88A019DF8F3
S11325200A0000281CBF9DF80B0000281ABF0021D8
S1132530ADF88B11ADF88B5161A8FFF745FF9DF8FD
S11325400A0000281CBF9DF80B0000288AD09DF8C3
S1132550080081070BD540F62800026803989168AB
S1132560814204D2FEF7D2FC0B9900F0EFF979E72F
S11325709DF80A0038B19DF80B0020B940F2032001
S1132580FFF7E4FE6EE7012B14BF40F2012040F296
S11325900220F5E770470000000000A002000103DC
S11325A00B0000000000000000000000000000001C
S11325B00000000000000000000000000000000017
S11325C00000000000000000000000000000000007
S11325D000000000000000000000000000000000F7
S11325E000000000000000000000000000000000E7
S11325F000000000000000000000000000000000D7
S113260000000000000000000000000000000000C6
S113261000000000000000000000000000000000B6
S1132620000000A004000000000000000000000002
S11326300000000000000000000000000000000096
S11326400000000000000000000000000000000086
S11326500000000000000000000000000000000076
S11326600000000000000000000000000000000066
S11326700000000000000000000000000000000056
S11326800000000000000000000000000000000046
S11326900000000000000000000000000000000036
S11326A00000000000000000000000200200000004
S11326B00000000000000000000000000000000016
S11326C00000000000000000000000000000000006
S11326D000000000000000000000000000000000F6
S11326E000000000000000000000000000000000E6
S11326F000000000000000000000000000000000D6
S113270000000000000000000000000000000000C5
S113271000000000000000000000000000000000B5
S113272000000000000000000000000000000000A5
S1132730000000005B280000000000008328000067
S113274000FF000000000000000000000000000086
S11327500000000000000000000000000000000075
S11327600000000000000000F8B50446E00A0D4631
S11327701646B4EBC02004BF204600F00EFE04F55C
S11327800067FF0AFF0204E0384600F006FE07F582
S1132790006730198742F7D3324629462046BDE800
S11327A0F84000F016BE00007FB504464FEA0D0065
S11327B070A11022FEF71AFB002046420DEB06051D
S11327C0225CE97B914205D1401C1028F5D30120FD
S11327D004B070BD0020FBE7B0B505469CB06C6B3F
S11327E0FEF790FB07462046FFF7DEFF002832D0B5
S11327F0207C022812D22046FFF7D6FF30B1606950
S113280001280BD1207C022808D2A46938698442AB
S113281028BFAC4202D354498C4201D300201AE0B1
S113282001A800F004FE621B294601A800F009FE7D
S113283001A800F008FEFEF74FFB0546FEF74AFB31
S11328400346009504F12002214601A8FFF720F871
S1132850401E8041C00F1CB0B0BD70B504460D468B
S11328601646FEF74FFB01698C4222BF40693219BC
S1132870904205D3324629462046BDE8704073E7AE
S113288070BD2DE9F041044688461646FEF737FB35
S113289036490068884218D1FEF734FB0746FEF734
S11328A035FB25187019304988420ED23CB9FEF721
S11328B02DFB796988423CBF386900F06EFD3246D1
S11328C041462846BDE8F0414EE7BDE8F081F8B541
S11328D0044625686768666BFEF714FB05F16045DE
S11328E047F601418D4229D20069874226D31E4909
S11328F08F4223D24030864201D38E4205D3FFF764
S113290017FD401E8041C00FF2BDFFF711FDB8B99D
S11329103046FFF749FFB8B1307C02280ED2706907
S113292090B102280CD1B069001D011B4FF0FF3299
S11329302046FFF735FC0E49884205D00020F2BD41
S11329402046BDE8F24047E70120F2BD80B54FF0D4
S1132950FF32FFF725FC064B984204BF40F20920E2
S1132960FFF7F4FC002002BD01000400AD1007B025
S1132970E320BBDEB814B6F1E0CFF3ADB7DD25C973
S1132980FA79B7132DE9F8431E467368002B4ED02D
S11329900C4614F0030118BF41F2020048D1154659
S11329A00746FEF7A7FA396E001D6A18824221D342
S11329B000F1180399421DD28C46844538BF8446E1
S11329C005EB010800F11802904588BF9046ACEB76
S11329D00101ACEB000004EB0109A8EB0C0838443E
S11329E0424649466830FEF7F1F9FF22414648461F
S11329F000F02CFDFEF78AFA396E001D884222BFD2
S1132A006A18031D9A4209D3411A601807F180011C
S1132A1002680A600421FF2200F018FD2146336891
S1132A20386E74682A46A047386E2D183D6600201B
S1132A30BDE8F28370B54B688C689C4206D200F105
S1132A4040021B1B14781B19412B01D3002070BDBD
S1132A50537814780D68E4188B68EE5C04F03F0436
S1132A6006558C68641C8C6013785B1C13708C682E
S1132A704B689C42ECD3012070BD90F840004A683A
S1132A8089681018401A70472DE9F0410C46174622
S1132A901D468046FFF7F1FFA84208F1400606D222
S1132AA021464046FFF7C6FF10B300204DE0002149
S1132AB00CE0707818F800207A54491C7378307848
S1132AC05B1C03F03F03421E73703270307808B110
S1132AD0A942EED3A0686268904238BFA9420CD2E2
S1132AE02368185C7854491CA268521CA260F1E760
S1132AF01220B07141F2020027E0A942F8D1069CED
S1132B00B26C29463846FFF74BFBB06424B1F06839
S1132B102A46394600F095FC079838B1F07878B128
S1132B20B0682B463A46394600F0E6FCF07838B1F6
S1132B30F069B1692818F061884224BF0020F07060
S1132B4070692D18756141F20300BDE8F081F8B594
S1132B5084B014460026054601960096082302AA6E
S1132B60FFF792FF41F20306B0423CD195F84300CF
S1132B7005F1480738B100F038F83868082302AA8C
S1132B8002A900F0B9FC9DF80A209DF80B009DF8FD
S1132B900910120442EA00629DF8080042EA012288
S1132BA0024322609DF80E009DF80F10000440EAD5
S1132BB001609DF80D1040EA01209DF80C100843B7
S1132BC0606095F8430048B9DFF868178A421CBF73
S1132BD0DFF86407824201D000F007F86068B8604B
S1132BE00021F960304605B0F0BD7868082202A9DA
S1132BF000F027BCF8B5064606F140070020B8717E
S1132C007870F87038710D4600214FF0FF3039703C
S1132C10797103F02003B864396279621446BB7099
S1132C20FF22182106F1680000F010FCFF220421A5
S1132C3006F1800000F00AFCFF22042106F1840062
S1132C4000F004FCBD60FC60FEF752F900B11DB158
S1132C50FEF74CF918B114B941F20B00F2BD14B1EE
S1132C60F86800F0E4FB0020F2BD00002DE9FB4F02
S1132C7082460021002300249AB005A880E81A00A7
S1132C80059209910AF148061C9A269D06920AF1BA
S1132C90420710E000F076FB0899884233D104988B
S1132CA0B0600021F1600398DFF89016884240F08C
S1132CB0468102223A7107981C99884280F0D38297
S1132CC041F2030208920DF1280839791229F2D849
S1132CD0DFE811F014001500CD0235010C030E03DA
S1132CE0E70257010E0352010E0352012402C602E9
S1132CF011039A029D02D701C602DCE7CAE700F07D
S1132D0041FB0899884240F0AF82B87820B103981B
S1132D10DFF82416884246E03A78D1074DD5787812
S1132D2000284AD10398DFF8141688421CBFDFF844
S1132D301016884225D0DFF80C1688421FBFDFF832
S1132D4008168842DFF8041688421AD0DFF8001605
S1132D50884222D0DFF8DC15884265D0DFF8F4150C
S1132D60884213D0DFF8F01588420DD0DFF8C8157B
S1132D70884215D0DFF8E41588421CBFDFF8E0155F
S1132D80884200F0DC8010E00E2293E70F203871B7
S1132D900020B168316170618DE71221397166E0FC
S1132DA0FEF7A4F800283DD138E01220387103A8BA
S1132DB000F0B1FB00285AD0A8E20398DFF884158C
S1132DC088421AD0DFF88015884214D0DFF87C15C9
S1132DD0884215D0DFF85C15884221D0DFF85815F9
S1132DE0884214D0DFF8741588420ED0DFF87015CD
S1132DF0884208D01AE004225CE7062038715AE7BA
S1132E000721397157E70920F8E70B21F9E7FEF7A5
S1132E106DF8002804BF7878002803D10C21F0E76E
S1132E207878002840F08B801021EAE703A800F0AE
S1132E3072FBA8B10398706411213971039800F0F2
S1132E406CFB099038788106DCD5099800281CBFF2
S1132E5041680029D6D0504688470028D2D055E290
S1132E6012217878397110B141F20400FCE141F289
S1132E700800F9E198F8050098F8041041EA0021E7
S1132E800291C90704D5387840F00100387002E097
S1132E90FEF72EF840B9FEF729F8002800F0E98182
S1132EA00298C10500F1E5811220387141F20A004F
S1132EB0DAE10520F978387141F00101F970002058
S1132EC0F061F068082880F01F82012101910091CF
S1132ED000F05DFA08998842EAD1207840F00200B7
S1132EE0207098F8020098F803109DF82820000438
S1132EF040EA016098F8011040EA01201043606044
S1132F00B0680838606298F8061098F8070098F8D6
S1132F100420090441EA006198F8050041EA00210F
S1132F2011430291FDF7EBFFDFF838140068884283
S1132F3007D1FDF7E4FF0299C0688142B9D012219C
S1132F403971E3E1012000F015FA08998842AFD104
S1132F5098F8021098F803009DF82820090441EA23
S1132F60006198F8010041EA002111430291B06820
S1132F70052824BF0298B061F0680428E2D30A212E
S1132F803FE70020F06108213BE72B68F0694246E7
S1132F900AA9E047F0694044F061B068F1688142F1
S1132FA080F0AF81A0EB0108B8F1040F05A95046E9
S1132FB008D3FFF762FD042808D205A95046FFF79D
S1132FC039FD50E1FFF759FD4045F6D3B8F1410F03
S1132FD028BF4FF0400800F0C9F9404502D200F084
S1132FE0C5F98046B8F1040F24BF4FEA98004FEAB0
S1132FF08008012001900090434600F0BEF9089932
S1133000884240F031813879082804D1D5F808C0C5
S1133010BCF1000FB9D1B8F1040FC8F1040B06D20A
S11330200AA8FF225946404400F010FAD8443879DF
S11330300A2806D12B4642460AA95046FFF7A2FCAD
S1133040ABE70528A9D199F801008107A5D5E8685F
S11330500028A2D0F06905280ED208EB0001072948
S11330600AD30AA9091D081A0AF184020168116029
S1133070FF22042100F0EAF92B68F069D5F80CC0AE
S113308085E73978880640F14481706C00F045FA90
S11330900028099040F03D8138E14FF0010900F02B
S11330A065F9484589D3B068F168A0EB0109B9F125
S11330B0410F28BF4FF0400900F058F9814502D371
S11330C000F054F981460120019000904B4600F035
S11330D054F9089988422FD1387881060DD5002CEF
S11330E01CBFD4F808C0BCF1000FD5D02B464A460B
S11330F00AA95046E04700281ED1F068B16888420A
S113310080F0098138788106C7D5002C1CBF21695D
S11331100029C2D0504688478146C0E7002000F00D
S113312029F90899884207D1306C8F49884204D024
S113313012223A7141F2050096E0FDF7D7FE18B964
S11331401B990120C87003E01B99C87800283FD060
S1133150F87810F0030F1CBFEC68002C05D02B6826
S113316004220AF184010420A047B06900281CBF8E
S1133170686800282CD04FF0FF3102910AF18004D6
S11331800422214602A800F0CBF940B1FDF7BEFEAF
S113319028B121462B686C680422001DA047042234
S11331A00AF1680102A800F0BBF988B1FDF7A2FE9C
S11331B02B686C6814220AF16C010830A047FDF7F3
S11331C099FE2B686C6804220AF16801001DA0476F
S11331D01B99012088700D20387144E000200121E2
S11331E001900091102300F0C8F8089988423BD15F
S11331F0FDF774FE802100900191012330680BAA31
S1133200022100F056F978E00120787026E0B878C1
S113321020BB002101910090402300F0AEF80899F2
S1133220884221D1706800F00EF9FDF755FE04467E
S1133230FDF750FE00940346706812AA0AA9FEF72F
S113324027FB38B11B990020C8701220387141F255
S1133250060009E01B990120C870B8700121D0E56F
S113326041F2070000E000201DB0BDE8F08FDDF85A
S11332706C90F068082844D200210120019100904C
S113328000F085F808998842EED198F8030000060A
S1133290B0F1407F3FF4EEAD1220387141F20900E5
S11332A0E2E7DDF86C90B368F068984229D2012116
S11332B00191009100F061F808998842D4D11C2250
S11332C00AA909F10800FDF791FD99F8000040F002
S11332D0010089F8000009F10800FDF723FE002829
S11332E0E1D11220387141F20C00BDE71B9CE8E5E6
S11332F0DDF86C9051E6DDF86C90F0681028FFF46E
S11333006DAFCDF86C90A9E71B94D4E441F20100B1
S1133310AAE7099CF1E60994387881069ED5002C29
S11333201CBFE268002A99D02946504690470028DD
S11333309AD193E7F70A0AF7FC0404FCEB17A603F7
S1133340EB17A65EF40A0AF4F50909F5F60808F67F
S1133350F70909F7F90707F9FA0606FAFD0303FD69
S1133360FE0101FEAD1007B0E320BBDE05A9504607
S1133370FFF783BB0190009004230AAA05A95046D5
S1133380FFF782BB03AA05A95046FFF7E0BB082359
S11333900AAA05A95046FFF777BB80B5FEF717FACE
S11333A0401E8041C00F02BD80B58308800705D54B
S11333B04FF6FF7242EA0142009204E041F07F417D
S11333C041F47F010091042269469800FEF73FFA18
S11333D002BDF8B505460E46144605F0010104F099
S11333E00100014321D1F4B1AA0707D536F8021B25
S11333F02846FFF7D9FFC0B9AD1CA41E042C0CD37A
S1133400A708BF003A4631462846FEF720FA790855
S113341006EB41067D19E41B38B924B131882846EE
S1133420FFF7C2FF08B90120F2BD0020F2BD10B5BC
S11334300446FEF775F82046BDE810400021FEF76B
S11334409FB8FEF79FB80146FEF79DB862F30F22BE
S113345062F31F42401810F0030308D0C91A1FD3A7
S1133460DB0748BF00F8012D28BF20F8022D130008
S113347030B414461546103928BF20E93C00FAD868
S1133480490728BF20E90C0048BF40F8042D8900F3
S113349028BF20F8022D48BF00F8012D30BC70472A
S11334A0C91818BF00F8012DCB0728BF00F8012D5B
S11334B070472DE9F843089D099F80460E469146C2
S11334C01C46FDF7A7FD3A4629464046FDF7A8FDF0
S11334D008F124000021016006750C22494608F118
S11334E03900FDF773FC08F14500210C220A8470B1
S11334F001704270BDE8F1833EB5029201911C4611
S113350000F12805009500F1380300F1240221465A
S1133510FDF7AAFD37BD0020704700207047FEE785
S11335200300002013F0030F09D0521E22BF13F82A
S1133530010B11F801CBB0EB0C00F3D07047121F54
S113354022BF53F8040B51F804CB6045F7D0121D89
S11335500AD200BA9CFA8CFCB0EB0C0038BF6FF0B6
S1133560000088BF01207047521E22BF13F8010BD0
S113357011F801CBB0EB0C00F6D0521C08BF10467A
S11335807047FEE70C490D4808600D48026842F494
S1133590700202600B48416941F4005141610268C4
S11335A0920892000260416B490849004163016A34
S11335B021F080510162704708ED00E0000800002E
S11335C088ED00E040300E404EF68851CEF2000106
S11335D0086840F470000860BFF34F8FBFF36F8F2B
S11335E04FF00070E1EE100A7047FEE700F00DF8AE
S11335F0002801D000F00CF8AFF300800020AFF3F6
S11336000080FEF7EBFD00F017F801207047FEE79D
S113361010B5074979441831064C7C44163404E04B
S11336200A68081D114488470146A142F8D110BD1B
S1133630200100003C01000000F000B807463846B5
S113364000F01EF8FBE730B4002513E050F8042B1B
S1133650D30744BFA9F101039A18091F042942F8AA
S1133660045BFAD213468C0744BF15809B1CC90720
S113367048BF1D7050F8041B0029E7D130BC7047C7
S11336802021090326311820ABBEF9E780B5FFF7E6
S113369079FFFEF7FFFDBDE8014000F000B8AFF38D
S11336A00080FFF791FFFFF7A1FF10B5B1F5BE7FD2
S11336B0044602D240F2052010BD4FF4BE71FDF75E
S11336C079FD0020607004F5807204F1B80104F102
S11336D02800BDE810400023FFF78CBA1CB5009108
S11336E00446214604F12800FFF7C0FA00281CBF55
S11336F041F207018842C4F878010BD1A07838B1AF
S1133700E07810B140F2032016BD40F2022016BD4D
S113371040F2012016BD30B5016884684218416842
S113372002EB5103C9070BD54C4409E012F9011B04
S113373012F8015B002904F8015B05D5491CF9D195
S11337409A42F3D10C3030BD491EF1D5F8E70000A0
S1133750F7FEFFFF0C020000100100200000000033
S1133760B7FFFFFF0C0000002400000080000020D1
S113377081000C00F07F10308000002034000140F4
S10B3780FC0000000000000041
S903369F27
