S02E0000626F6F746C6F616465722D73746F726167652D696E7465726E616C2D73696E676C652D3531326B2E73333710
S11300009010002079320000070C0000A5190000B0
S11300102B18000033180000BB180000000000007B
S1130020000000000000000038010000CB1B0000AD
S1130030531C00006C010000B71C0000EB1C000006
S1130040000000000000000000000040FFFFFFFF70
S1130050000000010000000000000000000000009B
S1130060FFFFFFFFFFFFFFFFFFFFFFFFFFFFFFFF9C
S113007000000000FFFFFFFFFFFFFFFFBCE6FAAD3B
S1130080A7179E84F3B9CAC2FC6325516B17D1F23A
S1130090E12C4247F8BCE6E563A440F277037D8196
S11300A02DEB33A0F4A13945D898C2964FE342E230
S11300B0FE1A7F9B8EE7EB4A7C0F9E162BCE33579E
S11300C06B315ECECBB6406837BF51F5FFFFFFFF03
S11300D0000000010000000000000000000000001B
S11300E0FFFFFFFFFFFFFFFFFFFFFFFC5AC635D8EE
S11300F0AA3A93E7B3EBBD55769886BC651D06B066
S1130100CC53B0F63BCE3C3E27D2604B4C000000B3
S1130110C0000000000000000000100020000000EB
S11301204546523332000000010000000100000087
S11301300040040000A0030007B0CD5E01000000F1
S113014000000A01B0320000006000000000080056
S1130150F00001005B2100005F210000A9070000FE
S1130160BF170000F1170000AC01000013B779FAC3
S1130170C925DDB7ADF3CFE0F1B614B80101000035
S113018000000000AC3200004000000000000A0142
S1130190000000000000000000000000000000005B
S11301A0000000000000000000000000000100004A
S11301B0F50200004B0300007903000097030000E0
S11301C0DD030000BF300000AD2F00008D310000C2
S11301D0FD0300002504000081040000150C00004C
S11301E01F0C00003D0C0000730C00000248704717
S11301F002487047024870474CE307006CE307006D
S113020086E207004FF4882070470000002000BFFA
S113021010B5E8B04FF4C07208A900F0EFF800215F
S113022008A800F0FFF840F201218842F7D040F21C
S1130230032240F20544904244D19DF8200000F08E
S1130240030002283ED09DF8200041071DD51298D6
S113025000F00EFBC8B100F013FC1D4988420BD11D
S11302604FEA0D001BA1202200F092FC684600F02A
S113027020FCB0F5403F25D0649800F067F920B128
S113028000F0BCFC00F002FBE0B19DF82000810707
S11302900FD528200268099993688B4209D2649883
S11302A000F068F970B100F0A9FC119900F0BCFAF3
S11302B008E09DF82000C10704D50B99649800F06C
S11302C07DF908B9204600E0002068B010BD0000A8
S11302D0000003430000034300000000000000008E
S11302E0000000000000000000000000000000000A
S11302F00000000010B504000CD04FF480302060E2
S1130300002161603C48027822724068E06000F09D
S11303107BFC206110BD78B504460D4604F5B87623
S1130320A1B0B1683068802301AA00F025F80095D7
S1130330802301AA214604F12C0000F049FEF0605C
S1130340B0688030B06022B070BD024640F2014017
S1130350002900D1704710B5274B5C68A24203D333
S113036000220A604A6010BD03EBC20082680A6082
S1130370C0684860002010BD38B500F021F800D3F3
S113038026E000F017F800D225E09B68C018BDE80D
S1130390384000F044BC38B500F012F800D317E040
S11303A000F008F800D216E09B68C018BDE8384099
S11303B000F044BC03EBC403DC681518AC4270477E
S11303C00446084611461A460B4B5D68AC4270471A
S11303D040F2014032BD40F2024032BD06494A6853
S11303E0904202D340F20140704701EBC000C16863
S11303F0806800F03EBC0000280100003EB50446C1
S11304000D461146284601F0DAF950B969462046EE
S1130410FFF79BFF28B905F5B870046001994160A6
S113042000203EBD38B584B004460D466846102110
S113043001F0FCF9029504F5BA75A86888B96868F2
S1130440296888420DD269462046FFF764FFA868F0
S113045000281CBF41F2070188420BD140F2012061
S113046008E0A07800281DBFE078002840F20320AF
S113047040F2022005B030BD012018707047000022
S1130480F0B585B004460D46164600278DF8007079
S11304900DF1040055A100F08AF8CDF804D03760BE
S11304A01C21284601F0C2F904F5BA779DF8000032
S11304B080B994F8720013280CD0B86850B97868E1
S11304C03968884206D201A92046FFF724FFEDE7E8
S11304D005B0F0BD2078810744BF606830602178A2
S11304E0C80705D51C2204F10801284600F050FB7A
S11304F09DF80010002905BF20780028002040F254
S11305000640E5E770B504460D46202304F58272E3
S113051004F1BC0104F12C0000F01FFD04F5BA76CF
S1130520B06850B970683168884206D229462046BE
S1130530FFF7F1FEF4E7002070BDA07800281CBF8F
S1130540E0780028F7D0012070BD000080B5E4B049
S113055000F047F808B1002009E004208DF81100EC
S11305604FEA0D0025A100F022F800F023F865B051
S113057000BD000038B5E4B004460D4600F03BFB76
S11305808068A84206D24FF4C07204A92046FFF73F
S113059035FF08B1002008E002208DF811006846FC
S11305A01AA100F004F800F005F865B030BD10227F
S11305B000F0EEBA694604A8A4E7000080B5E4B0F0
S11305C000F00FF808B1002009E001208DF81100B7
S11305D04FEA0D0011A1FFF7EAFFFFF7EBFF65B04B
S11305E000BD4FF4C07204A908E700000000000039
S11305F07904000079040000790400000000000080
S11306000000000000000000690700000000000076
S11306100000000000000000690700000000000066
S1130620410700000000000000000000F8B5044687
S1130630600B0D461646B4EB403004BF204601F073
S1130640F9F804F500577F0B7F0304E0384601F006
S1130650F1F807F5005730198742F7D33246294697
S11306602046BDE8F84001F0F4B838B504460D461C
S113067000F010F850B16069012805D1207C0228EF
S113068002D2A069286002E0002032BD2C60012063
S113069032BD00007FB504464FEA0D0087A1102249
S11306A000F076FA002046420DEB0605E97B225C59
S11306B0914205D1401C1028F5D3012004B070BD2F
S11306C00020FBE7F0B59DB00446666B00F093FA9A
S11306D007463046FFF7DEFF80B3307C02280ED297
S11306E001A93046FFF7C1FF40B301983969884238
S11306F028BFA04203D301465B48814201D30020B6
S11307001CE002A801F0BEF801982146021B02A8D1
S113071001F0CEF802A801F0CDF8019CFFF768FDC6
S11307200546FFF763FD01992034034600952246F0
S113073002A801F0D2F8401E8041C00F1DB0F0BDE8
S113074070B504460D46164600F055FA01698C4210
S113075022BF40693219904205D3324629462046C9
S1130760BDE8704062E770BD2DE9F041044688465B
S1130770164600F040FA074600F040FA25187019B2
S1130780394988420ED23CB900F038FA7969884276
S11307903CBF386901F04EF8324641462846BDE870
S11307A0F04143E7BDE8F081F8B504462568676881
S11307B0666B00F020FA05F1604548F201018D42B4
S11307C029D20069874226D327498F4223D2403059
S11307D0864201D38E4205D301F06EF9401E80415A
S11307E0C00FF2BD01F068F9B8B93046FFF752FF07
S11307F0B8B1307C02280ED2706990B102280CD1B5
S1130800B0694FF0FF32001D011B204601F056F97C
S11308101649884205D00020F2BD2046BDE8F240CA
S113082050E70120F2BD000038B588B004460D46FB
S11308304FF0FF3201F042F90C4B984210D140F2D4
S1130840022001F055F9684620A1202200F0A0F909
S113085000F030F8294600F02EF8684600F060F801
S1130860002009B030BD000001000800E320BBDE19
S11308701CB50446684600F0D3F808B1002016BD44
S11308800098A0428041C00F16BD000010B5044678
S113089088B040F2022001F02BF9684613A120220F
S11308A000F076F900F006F8684600F039F8002008
S11308B008B010BD2146684600F028B8B814B6F157
S11308C0E0CFF3ADB7DD25C9FA79B71301000643CC
S11308D00000000000000000000000000000000014
S11308E000000000000000000000000000000343BE
S11308F000000000000000000000000000000000F4
S1130900000000000000000000000000C269042A8A
S113091005D200EB8202D160C169491CC1617047F4
S1130920F0B50146C869052800D3F0BD854A1268B0
S11309304FF48030844B1860844B854CD2031C6088
S1130940844D5D605CBF844B186022468348106010
S11309500B6800245360824B05E001EB8400C568FA
S113096043F82450641CC8698442F6D348680025BF
S11309700BE056F827C07F1C6D1C43F824C0641C90
S1130980D0F808C06745F4D3406810B10668002762
S1130990F6E7C86945EA006595601168506841400A
S11309A090684140002003E053F82020401C51404F
S11309B0A042F9D343F82410BFF34F8F69490A6862
S11309C0694802F4E06202430A60BFF34F8F00BF3C
S11309D0FDE710B55B4802684FF480305A49D203F2
S11309E00860624B19685D4A5CBF5B4B186008681D
S11309F0904213D10869401DB0F5007F0ED2002249
S1130A00002303E051F823405B1C62408342F9D386
S1130A1051F82000904201D1012010BD002010BDEA
S1130A2038B500F00BF85CBF4B4A106004B910E015
S1130A30FFF7CFFF00B90FE0686810E004464148B3
S1130A4001684FF48030404AC9031060474B1D6869
S1130A5070474FF4E02032BD4FF4202032BD2060B7
S1130A60002032BD10B500F017F85CBF3A4A1060A0
S1130A70FFF7AFFF18B1A068C00D00F0010010BD72
S1130A8010B500F009F85CBF334A1060FFF7EAFFC5
S1130A9000B90BE0E06810BD2A4801684FF48030CB
S1130AA0294AC9031060314B1C6870474FF4202059
S1130AB010BDF8B523490A684FF48031224BD203A4
S1130AC019602A4C25685CBF234B19608468FFF7C2
S1130AD0C9FF10B94FF42020F2BD296905F11402B1
S1130AE04FF0FF3052F82130434042F82130A868DB
S1130AF010F4702F03D0A86800F47020F2BD002019
S1130B000DE0884211D257F820C0401C42F823C09F
S1130B105B1CB342F5D308D164686408640024B94B
S1130B2088420CD24FF4E020F2BD884207D22268FA
S1130B30A36805F11407C3F399060023E9E700202D
S1130B40F2BD0000648000406490004000C607408D
S1130B50004C00A0004E00A064A00040DEC0ECE504
S1130B600C4C00A00CED00E00400FA0504C607409C
S1130B7062B38B0708D0521E11F8013B00F8013B09
S1130B8000F024808B07F6D1830740F0208000BF5B
S1130B90103A07D330B4B1E83810103AA0E838104E
S1130BA0F9D230BC530724BFB1E80810A0E80810FC
S1130BB044BF51F8043B40F8043BD20724BF31F84A
S1130BC0022B20F8022B44BF0B7803707047083ABD
S1130BD007D3B1E80810083A40F8043B40F804CBC6
S1130BE0F7D25307E4E7002070470020704728201D
S1130BF00168086970472820006870474FF4004076
S1130C00704701207047FEE731A070474FF4003071
S1130C102B4951E02B48006800F00100704710B5E3
S1130C200B461118284CA14205D201461846FFF77D
S1130C309FFF002010BD40F2024010BD38B51318CC
S1130C40214D40F20244AB420BD2002300E01B1DB5
S1130C50934208D21D5815F1010FF8D040F2034019
S1130C6032BD204632BD00F0F4FD0028F9D000204A
S1130C7032BD70B505460C46E00401D1E90402D04A
S1130C8040F2044070BD60190F4940F202468842A8
S1130C9003D300E008B9304670BD284600F0CAFD11
S1130CA005F50055B4F50054F4D10028F3D0002024
S1130CB070BD4FF400300549086000207047000003
S1130CC0689000401C0003400100080068A0004038
S1130CD0010203002800000028000000002000009A
S1130CE00000080020010000040000002DE9F84382
S1130CF01E467368002B4ED00C4614F0030118BF37
S1130D0041F2020048D115460746FFF770FF396EDD
S1130D10001D6A18824221D300F1180399421DD2A2
S1130D208C46844505EB010800F1180238BF84465F
S1130D309045ACEB0101ACEB000088BF904604EB9E
S1130D400109A8EB0C083844424649466830FFF7CD
S1130D500FFFFF224146484600F004FFFFF74EFF15
S1130D60396E001D884222BF6A18031D9A4209D3B6
S1130D70411A6018026807F180010A60FF22042109
S1130D8000F0F0FE21463368386E74682A46A047A6
S1130D90386E2D183D660020BDE8F28370B54B68AF
S1130DA08C689C4206D200F140021B1B14781B196C
S1130DB0412B01D3002070BD0D6853781478E418DA
S1130DC08B6804F03F04EE5C06558C68641C8C60F0
S1130DD013785B1C13708C684B689C42ECD3012025
S1130DE070BD90F840004A6889681018401A70472E
S1130DF02DE9F0410C4617461D468046FFF7F1FFEA
S1130E0008F14006A84206D221464046FFF7C6FF35
S1130E1010B300204DE000210CE0707818F8002099
S1130E207A5473783078491C5B1C03F03F03421EEC
S1130E3073703270307808B1A942EED3A06862684A
S1130E40904238BFA9420CD22368185C7854A26837
S1130E50491C521CA260F1E71420B07141F2020057
S1130E6027E0A942F8D1B26C069C2946384600F026
S1130E7025FEB06424B1F0682A46394600F018FD16
S1130E80079838B1F07878B1B0682B463A463946BD
S1130E9000F0CCFEF07838B1B169F06928188842C6
S1130EA0F06124BF0020F07070692D18756141F263
S1130EB00300BDE8F081F8B584B014460026054669
S1130EC001960096082302AAFFF792FF41F2030657
S1130ED0B0423BD195F8430005F1480738B100F022
S1130EE037F83868082302AA02A900F09FFE9DF88B
S1130EF00A209DF80B009DF80910120442EA0062D2
S1130F009DF8080042EA0122024322609DF80E0087
S1130F109DF80F1000F049FC9DF80D1040EA0120E7
S1130F209DF80C100843606095F8430048B9DFF859
S1130F3024188A421CBFDFF82008824201D000F046
S1130F4007F860680021F960B860304605B0F0BD6C
S1130F507868082202A900F0ABBCF8B5064606F191
S1130F60400700200D46B8717870F8703871002180
S1130F704FF0FF3014463970797103F02003B864E0
S1130F8039627962BB70FF22182106F1680000F013
S1130F90E9FDFF22042106F1800000F0E3FDFF22B9
S1130FA0042106F1840000F0DDFDBD60FC60FFF764
S1130FB01CFE00B11DB1FFF716FE18B114B941F2C1
S1130FC00B00F2BD14B1F86800F05CFC0020F2BD27
S1130FD02DE9FB4F82460021002300249AB005A886
S1130FE080E81A0005921C9A269D099106920AF13E
S1130FF048060AF1420710E000F0C6FB089988424F
S113100035D104980021F160B0600398DFF84C17E3
S1131010884240F03F8102223A7107981C99884225
S113102080F0DD8241F20302089239790DF128083B
S11310301429F2D8DFE811F016001700D7022E01A8
S113104069036B03F10250016B034B016B0316033D
S11310506B034B012E02D0026E03A402A702DF0130
S1131060D002DAE7C8E700F08FFB0899884240F025
S1131070B782B87820B10398DFF8DC16884246E0DE
S11310803A78D1074DD5787800284AD10398DFF80B
S1131090CC1688421CBFDFF8C816884225D0DFF87A
S11310A0C41688421FBFDFF8C0168842DFF8BC169A
S11310B088421AD0DFF8B816884222D0DFF8941696
S11310C088426BD0DFF8AC16884213D0DFF8A8163C
S11310D088420DD0DFF88016884215D0DFF89C16C0
S11310E088421CBFDFF89816884200F0D38010E0D5
S11310F0102291E711203871B168002070613161CC
S11311008BE7142139716CE0FFF76DFD002843D1A2
S11311103EE01420387103A800F097FD002860D049
S113112005E30398DFF8381688421CD0DFF834163C
S113113088421DD0DFF83016884216D0DFF82C160E
S1131140884218D0DFF80C16884223D0DFF808163E
S1131150884216D0DFF82416884210D0DFF8201613
S113116088420AD01CE00B2256E70420387154E769
S11311700621397151E70720F8E70921F9E70D2025
S1131180F4E7FFF730FD002804BF7878002803D186
S11311900E21EEE77878002840F07C801221E8E701
S11311A003A800F052FDA8B10398132170643971AB
S11311B0039800F04CFD099038788106DAD5099837
S11311C000281CBF41680029D4D050468847002815
S11311D0D0D0ACE278781421397110B141F2040016
S11311E0FEE141F20800FBE198F8050098F80410CC
S11311F041EA00210291C90704D5387840F0010082
S1131200387002E0FFF7F1FC40B9FFF7ECFC00286E
S113121000F0EB810298C10500F1E78114203871D8
S113122041F20A00DCE1F9780520387141F001014E
S1131230F9700020F061F068082880F074820121C0
S11312400191009100F0B5FA08998842EAD120781A
S113125040F00200207098F8020098F803109DF8FE
S1131260282000F0A2FA98F8011040EA0120104367
S11312706060B0680838606298F8060098F8071053
S113128098F8042000F091FA98F8051040EA01203B
S11312901043C8D01420387149E2012000F07DFACF
S11312A008998842BED198F8021098F803009DF876
S11312B02820090441EA006198F8010041EA00216C
S11312C011430291B068052824BF0298B061F06808
S11312D00428E2D30A214CE70020F061082148E702
S11312E02B6842460AA9F069E047F0694044F0617E
S11312F0B068F168814280F01382A0EB0108B8F174
S1131300040F05A9504608D3FFF76BFD042808D243
S113131005A95046FFF742FD61E1FFF762FD404534
S1131320F6D3B8F1410F05A9504628BF4FF0400845
S1131330FFF757FD404502D200F02BFA8046B8F182
S1131340040F0AAA05A924BF4FEA98004FEA8008AF
S1131350012001900090434600F024FA0899884245
S113136040F03E813879082804D1D5F808C0BCF192
S1131370000FB5D1C8F1040BB8F1040F06D20AA8C6
S1131380FF225946404400F0EDFBD84439790A293C
S113139006D12B4642460AA95046FFF7A7FCA7E709
S11313A0052918D199F80100820714D5E86890B18D
S11313B0F069052818D208EB0001072914D30AA9FB
S11313C0091D081A01680AF184021160FF22042130
S11313D000F0C8FB08E00C298AD199F80100410704
S11313E086D5E868002883D02B6842460AA9F069AC
S11313F0D5F80CC078E73978880640F19681706C8E
S113140000F025FC0990002840F08F818FE14FF017
S1131410010900F0BEF9484582D3B068F168A0EB39
S11314200109B9F1410F05A9504628BF4FF0400901
S1131430FFF7D7FC814502D300F0ABF981460120C8
S1131440019000904B4600F0ABF9089988422FD1E7
S1131450387881060DD5002C1CBFD4F808C0BCF127
S1131460000FD3D02B464A460AA95046E04700282D
S11314701ED1F068B168884280F05C8138788106BA
S1131480C5D5002C1CBF21690029C0D0504688470F
S11314908146BEE7002000F080F90899884207D110
S11314A0306CB849884204D014223A7141F20500E4
S11314B096E0FFF798FB18B91B990120C87003E068
S11314C01B99C87800283FD0F87810F0030F1CBF90
S11314D0EC68002C05D02B6804220AF18401042056
S11314E0A047B06900281CBF686800282CD04FF0C2
S11314F0FF3102910AF180040422214602A800F07F
S1131500A9FB40B1FFF77AFB28B121462B686C6830
S11315100422001DA04704220AF1680102A800F079
S113152099FB88B1FFF763FB2B686C6814220AF1FE
S11315306C010830A047FFF75AFB2B686C68042243
S11315400AF16801001DA0471B99012088700F2033
S1131550387144E00020012101900091102300F033
S11315601FF9089988423BD1FEF744FE0090802180
S11315700191306801230BAA022100F027FBCBE084
S11315800120787026E0B87820BB002101910090FA
S1131590402300F005F90899884221D1706800F0D1
S11315A089F9FEF725FE0446FEF720FE0094034663
S11315B0706812AA0AA900F090F938B11B990020AA
S11315C0C8701420387141F2060009E01B9901200B
S11315D0C870B8700121CCE541F2070000E000209A
S11315E01DB0BDE8F08FDDF86C90F068082819D2C2
S11315F0002101200191009000F0DBF80899884255
S1131600EED198F803000006B0F1407F3FF4ECAD52
S11316101420387141F20900E2E7DDF86C90B368F8
S1131620F06898427CD201210191009100F0B8F851
S113163008998842D4D11C220AA909F10800FFF7AD
S1131640A7FA99F8000040F0010089F8000009F1B8
S11316500800FFF7D6FA0028E1D11420387141F2CE
S11316600C00BDE71B9CF06808285CD201210191A5
S1131670009108230CAA00F094F808998842AFD18D
S1131680207840F00400207098F80E0098F80F10AD
S113169098F80C2000F089F898F80D1040EA012021
S11316A01043A062607841072CD5EB208DF8280008
S11316B0A620172188F8020088F801100AF15000CA
S11316C05E2188F8031002680AF184010A6000228E
S11316D0F261F87840F00200F870D5F80CC0BCF163
S11316E0000F0FD02B6804220AA90020E047F069FC
S11316F02B68D5F80CC008220CA90830E047F06923
S11317001030F0610C203871ADE71B9C93E5DDF8D7
S11317106C90EDE5DDF86C90F0681028FFF41AAFDA
S1131720CDF86C9056E71B9477E4099CA1E641F24E
S1131730010055E7099438788106F3D5002C1CBFC5
S1131740E268002A04D02946504690470028F0D188
S113175040E70000F70A0AF7FC0404FCEB17A603B1
S1131760EB17A65EF40A0AF4F50909F5F60808F67B
S1131770F70909F7F90707F9FA0606FAFD0303FD65
S1131780FE0101FEE320BBDE03AA05A95046FFF7D4
S113179092BB05A95046FFF724BB01900090042397
S11317A00AAA05A95046FFF723BB000440EA0160DA
S11317B0704708230AAA05A95046FFF719BB10B5BC
S11317C00446B1F5C07F02D240F2052010BD4FF4AB
S11317D0C07100F02BF80020607004F5827204F1EF
S11317E0BC0104F12C000023BDE81040FFF7B5BB99
S11317F01CB504460091214604F12C00FFF7E8FBD8
S11318000028C4F87C011CBF41F2070188420BD1B7
S1131810A07838B1E07810B140F2032016BD40F250
S1131820022016BD40F2012016BDFEE7002200F0A2
S113183043BAFEE780B500F007F800F09BFAFFE733
S1131840401E8041C00F02BD4FF400310C4A1160AC
S1131850704710F0030F10B508BF12F0030F01D04A
S1131860002010BD0AB9012010BD4FF40033044C10
S1131870236000F09FFA401E8041C00F10BD00009D
S11318806890004010B504464FF40051064A1160B8
S1131890022306480360204600F088FB204600210E
S11318A0BDE8104000F0B2BB689000406092004078
S11318B000F0AEBB014600F0ACBBFEE77EB56B4664
S11318C000240025002683E87000019200916A46F6
S11318D092E8380080E8380077BD2DE9F84104002B
S11318E00E46AFB01746984618BF002E06D0002FFC
S11318F018BFB8F1000F01D0369D15B940F2016050
S113190046E01FA84021FFF791FF0FA84021FFF7F1
S11319108DFF4FF400502049086003231F480360E3
S1131920202231460FA8FFF723F92022394617A8B1
S1131930FFF71EF9202241461FA8FFF719F92022BC
S1131940294627A8FFF714F940221FA90CA8FFF77E
S1131950B5FF40220FA909A8FFF7B0FF20222146B6
S113196006A8FFF7ABFF09A80AC803AA0CAC0AC271
S113197003686E4606A81360A0CCA0C6276890E84A
S11319800E000748376000F09EFB08B140F2046087
S113199030B0BDE8F08100006890004060920040E3
S11319A00C0100004FF4017000F0AEB81CB53948CA
S11319B000680002000E01280CD1374801684FF47A
S11319C08020364A106004234903354C23605CBFF1
S11319D0344A106034484FF4006101604269D10612
S11319E0FCD400F0BAFB00F08AF8FEF70FFC48B90B
S11319F040F2012000F088F84FF4017000F084F800
S1131A00002016BD294901E00099491E0091009962
S1131A100129F9DA40F205429042EDD140F2032067
S1131A20ECE70000224838B50168012401254A0684
S1131A300CD500F083F840F20221401A04D0C01EF5
S1131A4002D0C01E012801D80024002546F204005B
S1131A50016811F1010F06D14FF40270BDE8324064
S1131A6000F046B831BD2DB14FF4C040FEF79CFEE6
S1131A700400F1D0002CF5D04FF4C0400D490860AB
S1131A8002461046016881F3088881F3098840689A
S1131A908746FEE70080E00F6480004064900040C9
S1131AA02020014064A000407040004000350C003C
S1131AB09440004008ED00E00020704770B5082312
S1131AC0094C2360094B01251D6000265E60DA6025
S1131AD09D6002E010F8014BDC610A46511E002AA9
S1131AE0F8D1186A70BD00BF6490004004800840BB
S1131AF04FF0005108804FF20F00488070474CF2BD
S1131B003C300B49088070474FF0005108804FF279
S1131B100F004880BFF34F8F06490A68064802F455
S1131B20E06202430A60BFF34F8F00BFFDE700008D
S1131B30020000200CED00E00400FA054FF0005113
S1131B4048884FF20F02904201D10888704700285C
S1131B5004BF0888012802D140F2022070474FF4E4
S1131B600070704762F30F2262F31F42401810F0B6
S1131B70030308D0C91A1FD3DB0748BF00F8012D9F
S1131B8028BF20F8022D130030B41446154610392E
S1131B9028BF20E93C00FAD8490728BF20E90C00F7
S1131BA048BF40F8042D890028BF20F8022D48BF03
S1131BB000F8012D30BC7047C91818BF00F8012D7A
S1131BC0CB0728BF00F8012D7047FEE72DE9F84345
S1131BD00E46914680461C46089D099F4FF40051CD
S1131BE0104A1160022310480360404600F0C8FA0E
S1131BF03A462946404600F0C9FA08F1240000217B
S1131C00016006750C22494608F13900FEF7B0FF61
S1131C1008F14500210C220A017042708470BDE86D
S1131C20F183000068900040609200403EB51C467D
S1131C300292019100F12805009500F1380300F1AA
S1131C402402214600F001FB37BD0020704700202C
S1131C507047FEE70300002013F0030F09D0521E63
S1131C6022BF13F8010B11F801CBB0EB0C00F3D039
S1131C707047121F22BF53F8040B51F804CB604580
S1131C80F7D0121D0AD200BA9CFA8CFCB0EB0C00FF
S1131C9038BF6FF0000088BF01207047521E22BF7A
S1131CA013F8010B11F801CBB0EB0C00F6D0521C69
S1131CB008BF10467047FEE700B500BF1300964604
S1131CC09446103928BFA0E80C50FAD85FEA417C4A
S1131CD028BF0CC048BF40F8042BC90728BF20F810
S1131CE0022B48BF00F8012B00BDFEE710B5494A9E
S1131CF0494C4A4B1B68234207D103408B420DD009
S1131D00521EF6D16FF0020010BD4548034202D0C6
S1131D106FF0010010BD4FF0FF3010BD002010BD6A
S1131D2070B5404D6860E8680E46410702D54FF033
S1131D30FF3070BD56F8040B141F02E056F8040B74
S1131D40241FA86044B108210820FFF7CFFF010039
S1131D50F4D00421296070BD0420286000212120D2
S1131D60FFF7C4FF010004D100212120BDE8704029
S1131D70BCE770BD70B541F671312A4C01222B4B82
S1131D80E568E1621A606060022626600021212075
S1131D902D0CFFF7ABFF05F00105010003D1002175
S1131DA02120FFF7A3FF01211F4A11600DB100217B
S1131DB0E16270BD2DE9F843184F3D688946144629
S1131DC041F6713180462D0C39620122174B0020F7
S1131DD005F001051A6009E0324649464046FFF71E
S1131DE09FFF01000DD1B044B144A41B4CB108F5D0
S1131DF00056760B7603A6EB0806B442ECD22646D0
S1131E00EAE70121084A11600DB100213962BDE8F9
S1131E10F283000080969800060001001C00034035
S1131E2002000100100003400C2003400C1003408A
S1131E302DE9F84F834602281FD8140055D00B9A79
S1131E409846D2F800C0BCF13F0F18D8506800285B
S1131E5018BF5FEA080A13D1BBF1000F04D0BBF12D
S1131E60020F07D003D308E00FF2B01A08E00FF214
S1131E70CC1A05E00FF2E41A02E04B4836E0C24601
S1131E800CF03F06A444C6F14005C2F800C0A445C6
S1131E9002D25068401C506089460A9F8EB1AC4201
S1131EA00FD32A46B819FEF763FE0120009043467B
S1131EB03A465146584600F053FAC246A944641BB8
S1131EC000263F2C0BD9A509009543464A465146A6
S1131ED0584600F045FA09EB8519A4EB851424B1A2
S1131EE022464946B819FEF743FE0020BDE8F28FAA
S1131EF02DE9F843044686B0884616461F4620005E
S1131F0003D0022C30D02DD330E014250021002042
S1131F100DF1080C57F8203042429200D21D01EB1B
S1131F20C3010CF8021002A9114457F82020C91E5D
S1131F3052098A7057F82020520B4A7057F8202013
S1131F40520D0A7057F82010401C490F0128E1D99E
S1131F503A7802F03F02382A34BFC2F13802C2F1A3
S1131F60780205E01C25D1E72025CFE70E4817E0CD
S1131F70DDF83890019700964FEA08033FA1204608
S1131F80FFF756FF019700964346082202A9204610
S1131F90FFF74EFF2A4641464846FEF7E9FD00207A
S1131FA007B0BDE8F083000080AFFFFF00281CBF2E
S1131FB06C21FFF73BBC704700220029026042609D
S1131FC0CCBF0121002180F86810002070473EB585
S1131FD090F86830019000F12805002B00F1080307
S1131FE0009514BF012402242046FFF721FF3EBDC3
S1131FF080B5034693F86800009103F12802002895
S113200003F1080114BF0120022003E0D4E700001B
S1132010DDE7EDE7FFF76CFF02BD00006745230134
S1132020EFCDAB8998BADCFE10325476C3D2E1F01E
S1132030000000000000000000000000C1059ED860
S1132040367CD5073070DD17F70E5939FFC00B31D8
S11320506858151164F98FA7BEFA4FA46A09E66798
S1132060BB67AE853C6EF372A54FF53A510E527FB5
S11320709B05688C1F83D9AB5BE0CD198000000001
S1132080000000000000000000000000000000004C
S1132090000000000000000000000000000000003C
S11320A0000000000000000000000000000000002C
S11320B0000000000000000000000000686804EB5D
S11320C08401884270477FB582B000F03BF8044633
S11320D0452C28BF01202CD2FFF7F0FF1EBF06229B
S11320E06243904207D10B99B1EB440F04BF0E99A0
S11320F0B1EB440F01D007201BE0EB68012221461D
S1132100312000F080F900F020F80AA8082307C85D
S11321100093234600F0B7F900F00DF80A20009070
S11321200DA907C9234600F0AEF900F007FA00B183
S1132130032006B070BD0C20009003A907C92346F4
S113214000F075B9054600F03FBA012601960096E5
S113215095E80700234600F007BAFEF757BDFEF7DF
S1132160A8BD7EB56B4600240025002683E87000D8
S1132170019200916A4692E8380080E8380077BD01
S113218000281CBF2421FFF751BB704770B5050020
S11321900C46164618BF002C02D16FF0210070BD0A
S11321A02421FFF743FB802E1CBFC02EB6F5807F91
S11321B002D06FF01F0070BD2E60F2082146281D6A
S11321C0FEF7D6FC002070BD012978B515460CBF7A
S11321D001260226002889B01C4618BF002D00D015
S11321E014B96FF021002EE00268802A18BFC02ABB
S11321F005D0B2F5807F18BF6FF01F0023D1011DF9
S1132200D20806A8FFF7ADFF1022294603A8FFF75E
S1132210A8FF102221466846FFF7A3FF00F0D6F975
S113222088B9012E6A4603A906A802D100F024FA4F
S113223001E000F02BFA044600F0D6F9002C14BF9C
S11322406FF0240000200AB070BD002A2DE9F64F7B
S11322508FB014BF146800240190002700288B4617
S1132260B9461CBF1B9D002D09D01C9E002E1EBF0D
S11322705FEA0308DDF868A0BAF1000F02D16FF03D
S1132280210060E00268802A18BFC02A05D0B2F598
S1132290807F18BF6FF01F0055D1011DD2080CA814
S11322A0FFF75FFF1022414603A8FFF75AFFCDF85E
S11322B008B001E000F04AF8029887423FD2002CAF
S11322C0F8D1C01B00091AD04FEA001B5A46E9197D
S11322D009A8FFF746FF5A46F11906A8FFF741FF80
S11322E000F074F978BB03A8009003AB06AA09A90F
S11322F00CA800F0DEF9814600F076F95F44B9F1EC
S1132300000F04D06FF024001DE000F01FF80298C5
S1132310C01BD1D0002CF8D101985346424601216C
S1132320FFF752FF002041424144CA7B521CCA734A
S1132330D2B2002AE9D1401C0F28F4D9E5E710985D
S113234000B10460002011B0BDE8F08FE95D1AF817
S11323500400641C04F00F044140F1557F1C7047D5
S11323602DE9F84199B01D46209B9B0118B1022824
S113237019D014D31AE00793022414230493069269
S1132380049E00220892324609A8FEF7F1FB09AB2D
S113239000200393059000F019F948B123E0079356
S11323A003242023EAE707930424FAE70F481AE0FA
S11323B006A8B0E80041EC4603AFACE80041006871
S11323C097E80E00CCF80000204600F0E5FA044639
S11323D000F00AF934B92846324609A9FEF7C8FBC9
S11323E0002000E002481AB0BDE8F08180AFFFFF92
S11323F080ADFFFF002A00D170471CB5049C0094F7
S113240000F054FB16BD30B501B1491E524DAC6805
S1132410C4F30044002CF9D140EA0120120702F071
S113242080521043184340F00040286030BDF7B597
S11324301C460846844286B098BF20460600079092
S113244018BF002C1DD00E99444D002005EB4125EA
S113245005900494AF1B0397029606AB81B000F07D
S11324605BF808BC03AF97E8070000F05EFBA642E8
S113247007D2A21B281B09B00021BDE8F04000F0E0
S11324804FBB09B0F0BD77B51C461346D8008DB0DC
S1132490149D43BFCA1C92089200620000F01BF80E
S11324A001A86D0200F019FB2C4900F019F805F59C
S11324B0213500F00CF8291B09A8FFF79BFF09A898
S11324C000F00BFB05A901A813E02448411900966C
S11324D00023224670470D990026009601A889E73B
S11324E04919009600232246091B05A805F19845C1
S11324F080E700F0BCFA10B070BD17B587B000F0EB
S113250017F8029307AB03910021059181B000F005
S113251003F808BC03AC05E006CB684606C019689E
S11325200160704794E8070000F0FFFA0AB010BD9C
S11325300C980B49049301EB402170470949012091
S113254008604868C0F300400028FAD148684FF694
S1132550F0710840704700000420024C0082024CD5
S11325600080024C0820024C2DE9F84187B0144643
S11325700DF1100E0E9D0F9E0190029303940027FF
S11325808EE80700984608FB07F00599884218D2A0
S11325901EB9022F18BF032F0CD00DF1040C002D0F
S11325A0009743469CE8070002D1FFF7A6FF01E02D
S11325B0FFF73DFFE00002D40199414401917F1CE3
S11325C0E1E708B0BDE8F081006970470E48016892
S11325D041F4005101600D48026842F001020260BA
S11325E0016841F002010CE00748016821F4005140
S11325F0016006480268520852000260016821F036
S11326000201016000207047688000406082004041
S11326104368DFF8D820102B04D0182B0ED0202BC1
S113262014D01CE01268D30113D50268DFF8C0305F
S11326309A4216D10A6842F0400218E012689301E7
S113264007D50A6842F008020A60EEE713685A01E7
S113265001D4012070470A6842F00402F4E707201D
S113266070475B1C9A4205D10A6842F080020A60F6
S1132670002141600020704738B500F014F801D4FF
S1132680012032BD00920246002108E038B500F076
S11326900AF801D4012032BD009202460121002033
S11326A000F0CFFA32BD0B46DFF840100C68E507A6
S11326B070477FB500F011F858BF012003D500F032
S11326C004F800F00FF804B070BD089C0293019266
S11326D000910346039402227047DFF810402568F6
S11326E06E0770470021002000F0DFBA0404024C9A
S11326F0880000207EB56B4600240025002683E870
S11327007000019200916A4692E8380080E838002F
S113271077BD002A00D170471CB5049C009400F0DA
S1132720C5F916BD2DE9FF4FB7B038AA92E83800B5
S113273004A981E8380005466E1E9648062E00F26C
S1132740E980DFE816F007000C00110016001B00FA
S1132750200026000168CA0767D501211DE0026830
S1132760910762D5022212E001684A075DD504216F
S113277013E00268110758D5082208E00168CA0668
S113278053D5102109E0026891064ED5202201920A
S113279004E001684A0648D540210191449C02A9FD
S11327A00022C1E90022012C02D0022C37D067E0BC
S11327B00068C10339D501984FF0030840F4C060A4
S11327C0019039926A1E062A58D8DFE802F068267A
S11327D02422200422004026132000904FF00053AE
S11327E0042201A90FA8FFF794FF059F069B0499F3
S11327F0CDF8008043F000533A4600F057F94FF00B
S1132800000BDA46DDF81481DDF8189159E0302622
S1132810E2E72026E0E71C26DEE71426DCE7016871
S11328208A0302D50068C10301D40120AEE0DDF8BB
S1132830E480B8F1000F04D0C8F1000808F00308E0
S113284006E0042202A904A84FF00408FFF752FF8F
S113285001994FEA082040F0A30841F4E061019196
S1132860691E06290AD8DFE801F01A0807060504DC
S11328700600B0E7CBE7CCE7CDE7CEE70026ABE731
S1132880681E4FF063080628F8D8DFE800F0080750
S1132890060605050600F1E79DE7BAE7BDE7102641
S11328A09AE70C2101FB0BF1032308F104025258AF
S11328B0414400938B68096892440BF1010BFFF7C4
S11328C028FFCB45EDD3032C26D1691E06290ED84B
S11328D0DFE801F00B08060604040600402107E0C7
S11328E0202105E014213F220FE01021FBE7002105
S11328F06D1E032DF7D92D1F012D02D9AD1EF2D067
S113290001E07F2201E04FF0FF328F4208BF1AEA54
S1132910020F01D0072039E0BAF1000F09D10321D9
S113292000910023002202A94FF0040A00F0BEF82F
S113293008E01AF0030F1ABF0AF0030ACAF1040AE6
S11329404FF0000AA0F11004204600F0C6F85146EA
S1132950204600F0CDF848983446499B8642479972
S113296088BF044600200090224607A8FFF7D1FE46
S1132970002100910023321BFFF7CBFE103800F03A
S1132980ACF807A90FA800F072F800203BB0BDE82E
S1132990F08F00000C04024CFEB586B006A914C9E1
S11329A003AB012514C30C6806A90EAE1C600EC946
S11329B00327029501960097FFF7B4FE09B0F0BD16
S11329C00160704738B50C4601463148FFF7F8FFFF
S11329D0304D21462846FFF7F3FF0320686231BDDE
S11329E00FB470B50A9C1546A14238BF0C46E800E6
S11329F002D5E41CA408A400254E19463046FFF76E
S1132A00DFFF099824F0704405F0E04500F0E04051
S1132A10204340F00050B0600020F06004991D4E47
S1132A2030462C43FFF7CCFF44F00054B460002040
S1132A30706270BC5DF814FB17483F21416110229D
S1132A4002600323C3617047144801688A07FCD4F9
S1132A5070471348016811F0240F11BF40694169A0
S1132A601048014202D001210F480160704780B52F
S1132A70FFF7A8FF08483F214161102202600323A9
S1132A80C361016A8A07FCD4BDE80140E1E70000A4
S1132A900000024C1000024C1C00024C3C00024C92
S1132AA02800024C1000FFFFFCFFFF3F10B500F1AF
S1132AB010044460016022F0704282600029816841
S1132AC004D003F070430B43836002E041F0804183
S1132AD081600299C160103010BD01214160C2685B
S1132AE042F02002C260816841F000518160704769
S1132AF0C268D30658BFC268C36803F00F035B1EE5
S1132B0002D09B1E012B08D8C26801F01F0142EAC3
S1132B100122C2608268891881607047FEF728B874
S1132B2013460A461946FFF71DB80FB47FB5510086
S1132B3038D40E9C099D0D98A54238BF2C46C1007F
S1132B4003D40C99A14238BF0C465CB3102C11D3AA
S1132B5002940BAB81B000F028F808BC08AC94E8F0
S1132B600700FFF73DFFFFF767FFFFF76DFFFFF774
S1132B7070FF17E0C00010D50026A64212D20B98B1
S1132B80AA1B042A0168089828BF042200916946F8
S1132B903044FFF7C3FF361DEFE708982246194675
S1132BA0FFF7BCFF7FBC5DF814FB06CB684606C08C
S1132BB019680160704730B4002513E050F8042B05
S1132BC0D30744BFA9F101039A18091F042942F845
S1132BD0045BFAD213468C0744BF15809B1CC907BB
S1132BE048BF1D7050F8041B0029E7D130BC704762
S1132BF0DFF800F080000020DFF800F084000020FF
S1132C007EB56B4600240025002683E870000192FF
S1132C1000916A4692E8380080E8380077BD002ABF
S1132C2000D170471CB5049C0094FFF73FFF16BD0C
S1132C3080B500938B6813434A680968FFF7EFFF78
S1132C4002BDFCB58BB05C6814F00F0F04D11CB14D
S1132C50129D6E68A64201D0072018E0DFF81861C3
S1132C6096E880500FF2081454F8211008AC84E858
S1132C70805008AE07960696029508AF019308ADFA
S1132C8041F4807105940496039700F054F80DB054
S1132C90F0BD06960596049703960292019300915F
S1132CA008AB2246294600F069B82DE9FC438BB0F5
S1132CB000F022F845F0300511F00F0F0CD159B196
S1132CC0159A56688E4202BF16994E68102E02BF9E
S1132CD0179E7768102F01D007200AE0DFF898C00C
S1132CE09CE80043079608AF08AE87E80043FFF767
S1132CF0D0FF00F032B800001C46149B0FF27005A0
S1132D0055F8215002A656F822100D435968704711
S1132D1000010000000200000004000000080000A0
S1132D2000100000002000000040000000800000AF
S1132D30000001000294009508AB1FE001D00720B9
S1132D400BE0DFF834C09CE80043079608AF08AEF8
S1132D5087E80043069600F003F80DB0BDE8F08361
S1132D6005960497039601930294009508AB05E039
S1132D700000000001000000400000002DE9F24FB7
S1132D80CEB0044615469B4604224EA913A8FFF76D
S1132D9037FF95E84C00694681E84C00210003D0D8
S1132DA0022C0CD006D30FE04EA96846FFF730FC86
S1132DB060B1DBE04EA96846FFF71AFFF8E74EA9B9
S1132DC06846FFF719FFF3E70720CFE0599D5B9EA4
S1132DD00CA895E80E00DDF868A180E80E005C9967
S1132DE070686F684E68C0F11000C7F11007861B49
S1132DF05D9806F00F0607F00F07D0F80480DAF8A4
S1132E000800C8F1100808F00F08C10006D5DAF868
S1132E100400C01C80088000CAF80400DDF8789122
S1132E20D9F80800C10006D5D9F80400C01C8008F0
S1132E308000C9F804005B985C99426848680021E6
S1132E408218B21809A8FFF7DBFEDAF80420002183
S1132E5006A800F08EF8D9F80420002103A800F099
S1132E6088F80FA81021FEF7E1FC6868002802BF6B
S1132E705D99486800280DD15B994868002802BF15
S1132E805C994868002805D110220FA90CA81027C6
S1132E90FFF7B6FE3AA050F824405F9D4FF0005271
S1132EA044F0100313A92EA8FFF7C2FE44F40163F3
S1132EB04FF000526946FFF7BBFE589944F4205383
S1132EC043F010034FF00052FFF7B2FE44F4904376
S1132ED043F010034FF000525946FFF7A9FE5B99E7
S1132EE044F040030022FFF7A3FE44EA06235C9962
S1132EF04FF0005243F04003FFF79AFE44EA0723E1
S1132F004FF000520CA9FFF793FE44EA08235D99A1
S1132F104FF00052FFF78CFE1038FFF7DEFD002360
S1132F20002209A916A8FFF783FE002300225146B8
S1132F30FFF77EFE0023002206A9FFF779FE002397
S1132F4000224946FFF774FE0023002203A9FFF77D
S1132F506FFE002300222946FFF76AFE1038FFF7B0
S1132F60BCFD16A92EA8FFF782FD00204FB0BDE8D6
S1132F70F08FC2F1100202F00F02FFF741BE000011
S1132F80010000000B0000000F0000000448054988
S1132F9008600548026842F470020260704700004D
S1132FA00000000008ED00E088ED00E02DE9F043AA
S1132FB099B004460D4605A85021FEF737FC00F0F1
S1132FC0E1F86846FDF796F903984FF0FF360228BA
S1132FD009D2002020600120A8423CBF44F82060B0
S1132FE0401CF9D364E0A84238BF40F2045060D3D7
S1132FF0FDF708F9804604980C2205A9C7684046E5
S1133000FDF70DFE4744002853D10598DFF86C9175
S1133010484522D00C2205A93846FDF700FE0028B9
S113302047D10598484507D00020A8423CBF44F842
S11330302060401CF9D33FE0079A05A93846FDF704
S1133040EEFD0498C1684046FDF713FE88BB079A5D
S113305005A94046FDF7F2FD58BB079A05A940466D
S1133060FDF7DDFD0799324605A8FEF727FD444923
S1133070884207D00020A8423CBF44F82060401C8E
S1133080F9D319E0079808AA10388008A84288BF25
S11330902846002104E052F8213044F82130491C2C
S11330A08142F8D3A8423CBF44F82060401CF9D3C5
S11330B0002019B0BDE8F08340F20550F9E7F0B5FF
S11330C099B005460C4605A85021FEF7AFFB5021E8
S11330D02A4E012707910596069700F053F8684693
S11330E0FDF708F90398A04207D302280AD22868FA
S11330F0002818BF10F1010F02D040F204503AE04A
S1133100002038E0FDF77EF80646049808A9C76851
S1133110BF19112C28BF1024002004E055F82020EA
S113312041F82020401CA042F8D34FF0FF3002E0C9
S113313041F82400641C102CFAD302464C2105A843
S1133140FEF7BCFCC04318900498C1683846FDF7EC
S113315090FD80B9502205A93846FDF76FFD50B99E
S11331600498C1683046FDF784FD20B9502205A9B2
S11331703046FDF763FD19B0F0BD000039528FE110
S1133180E320BBDE68461421FEF750BB30B595B092
S11331900446FFF7F7FF6846FDF7ACF8039D022DE0
S11331A020D3294605A8FFF701FF00281CBF40F2E1
S11331B00551884218D1002005A902E0A2420ED090
S11331C0401CA8420ED251F8202012F1010FF5D173
S11331D041F82040294605A8FFF771FF04E040F2BA
S11331E0035001E040F2025015B030BD4EF6885154
S11331F0CEF20001086840F470000860BFF34F8FFE
S1133200BFF36F8F4FF00070E1EE100A70470000BB
S113321000F00DF8002801D000F00CF8AFF30080A6
S11332200020AFF30080FEF7C1FB00F017F8012087
S11332307047000010B5074979441831064C7C44A6
S1133240163404E00A68081D114488470146A14267
S1133250F8D110BD440000005000000000F000B898
S11332600746384600F002F8FBE700002021090376
S113327026311820ABBEF9E780B5FFF787FEFEF7CD
S1133280D1FBBDE8014000F000B8AFF30080FFF7C8
S1133290ADFFFFF7BDFF00001FF9FFFF0C000000AA
S10F32A08000002000000000000000007E
S903328B3F
