S020000066697273745F73746167655F62746C5F6566783332786731312E73333750
S1130000900400205D050000A5050000A90500007E
S1130010AD050000B1050000B505000000000000BA
S1130020000000000000000074050000B905000095
S1130030BD05000000000000C1050000C50500006A
S113004010B55E495E4A01E021B1491E1369DC071F
S1130050FAD411B96FF0020010BD50600120106095
S11300601169480702D54FF0FF3010BD002010BDC4
S113007003460020002900D1704770B5504C53F856
S1130080042BE26008252560491E4C4A01E062B158
S1130090521E2569EE07FAD43AB12269940701D4B5
S11300A011B1EBE76FF0010070BD6FF0020070BD9D
S11300B02DE9F84F404D0C46A96B834600208EB2C3
S11300C006B1012641F67131A9634FEA92082B6803
S11300D043F001032B608146A24612E0C7F30A07EE
S11300E0C7F50067BF08A8EB0900B84238BF074648
S11300F039465046FFF7BCFF01000CD1B9440AEB66
S1130100870AC14507D20BEB89073846FFF798FFEA
S11301100100E3D00DE0DBF8002021688A4208D01A
S11301205846FFF78DFF010003D101212046FFF758
S11301309FFF2968490849002960F6B20EB10021E1
S1130140A963BDE8F28F30B51B4B1C490246986B7E
S113015080B200B1012041F671349C631D6845F002
S113016001051D609A6001225A605C69620704D52A
S113017000F028F84FF0FF3030BD02225A605A696F
S1130180D40710D5002918BF491EF8D10BE0002967
S1130190196804D100F017F86FF0020030BD00F0C8
S11301A012F8002030BD5A699407F0D500F00AF81F
S11301B06FF0010030BD000008000E4080969800EA
S11301C00C000E40196849084900196008B1002064
S11301D0986370476CE70000F8B528200168086947
S11301E0CD68846AAC4225D305F560518C4221D296
S11301F0641B0419264E2168B1421BD1E168254FC6
S11302004FF0FF3200F050F8B84213D100F044F838
S11302100ED20268B2420BD18168A268914207D320
S1130220C1684FF0FF32284600F03EF8B84201D0D2
S11302300120F2BD0020F2BDF8B528200068056950
S1130240C468AE6A361BAE19274604E0384600F08F
S113025045F807F50067F26810198742F6D3294676
S1130260204600F057F890B100F016F80CD202685E
S113027007498A4208D1C1684FF0FF32204600F096
S113028013F80449884201D00020F2BD0120F2BDD8
S113029007B0CD5EE320BBDE40F628000068A0F581
S11302A00061B1F5605F704730B50A4B1C6844F0DB
S11302B020041C600125084B1D609A605D6002E00B
S11302C010F8014B9C610A46511E002AF8D1D869E6
S11302D030BD00BFB0400E4000C0014080B5FFF704
S11302E032FF401E8041C00F02BD80B583088007E5
S11302F005D54FF6FF7242EA0142009204E041F054
S11303007F4141F47F010091042269469800FFF780
S113031061FF02BDF8B505460E46144605F001011D
S113032004F00100014321D1F4B1AA0707D536F83E
S1130330021B2846FFF7D9FFC0B9AD1CA41E042C2C
S11303400CD3A708BF003A4631462846FFF742FFC0
S1130350790806EB41067D19E41B38B924B13188CC
S11303602846FFF7C2FF08B90120F2BD0020F2BD04
S113037080B51948194A01681160FFF75DFF00282C
S1130380FBD040F2022000F02FF8002002BD000054
S113039010B5134C0020206000F046F811490A689B
S11303A0B2F5803F0AD040F20921884218BFB0F567
S11303B0007F03D1FFF710FF00B110BD4FF40060C0
S11303C0206002461046016881F3088881F3098899
S11303D040688746FEE70000880000208C0000206B
S11303E008ED00E004500E404FF0005108804FF239
S11303F00F0048800948016821F4E06141F48061FC
S11304000160BFF34F8F064906480A6802F4E062B0
S113041002430A60BFF34F8F00BFFDE700500E4058
S11304200CED00E00400FA054FF000514FF20F020A
S11304304888904201D108887047002804BF088882
S1130440012802D140F2022070474FF40070704737
S11304500C490D4808600D48026842F470020260BD
S11304600B48416941F400514161026892089200CD
S11304700260416B490849004163016A21F08051DF
S11304800162704708ED00E00000000088ED00E024
S113049040300E4030B450F8041B79B10268436810
S11304A002440830DC0744BFA9F10104E31852F800
S11304B0045B43F8045B091FF9D1ECE730BC7047D7
S11304C010B5074979441831064C7C44163404E0CD
S11304D00A68081D114488470146A142F8D110BD9D
S11304E02C0000003C0000004EF68851CEF20001C2
S11304F0086840F470000860BFF34F8FBFF36F8F3C
S11305004FF00070E1EE100A7047000089FFFFFF12
S113051010000000740000008000002000000000B3
S11305200120C046002801D0FFF7CAFFAFF30080C6
S11305300020AFF30080FFF71BFF00F000F800F08D
S113054001B800000746384600F002F8FBE7000057
S11305502021090326311820ABBEF9E70248804761
S113056002488047024800475104000091030000FC
S113057099050000AD1007B00100000000000A0159
S1130580000800000080000000F049020080000024
S1130590C0EA2101C0EA2101AFF30080FFF7A4FF04
S11305A0FFF7BEFFFFF7FEBFFFF7FEBFFFF7FEBF7B
S11305B0FFF7FEBFFFF7FEBFFFF7FEBFFFF7FEBF6B
S10B05C0FFF7FEBFFFF7FEBFC9
S90305995E
