S020000066697273745F73746167655F62746C5F6566783332786731322E7333374F
S3150FE100000A4880F308880A4800470000000000000C
S3150FE1001000000000000000000000000000000000EA
S3150FE1002000000000000000005805E10F90040020D9
S3150FE100304105E10F10B55B495B4A01E021B1491E6C
S3150FE100401369DC07FAD411B96FF0020010BD5060E5
S3150FE10050012010601169480702D54FF0FF3010BD3E
S3150FE10060002010BD03460020002900D1704770B56E
S3150FE100704D4C53F8042BE26008252560491E494A89
S3150FE1008001E062B1521E2569EE07FAD43AB122694F
S3150FE10090940701D411B1EBE76FF0010070BD6FF07A
S3150FE100A0020070BD2DE9F0473D4EB36B804600204F
S3150FE100B09FB207B1012741F67133B3638A46374BD6
S3150FE100C01C681B68356845F0010535600024950805
S3150FE100D012E0C9F30A09C9F500694FEA9909281B24
S3150FE100E0484538BF814649465046FFF7BBFF0100F9
S3150FE100F010D14C440AEB890AAC420BD208EB8409C6
S3150FE101004846FFF797FF0100E3D0316849084900F8
S3150FE10110316003E03268520852003260FFB20FB12C
S3150FE101200021B163BDE8F08770B51D4B1D4902464D
S3150FE10130986B80B200B1012041F671349C63174C84
S3150FE10140256824681E6846F001061E609A60012242
S3150FE101505A605C69620704D500F028F84FF0FF306A
S3150FE1016070BD02225A605A69D4070ED5002918BF0D
S3150FE10170491EF8D109E00029196802D100F017F8F4
S3150FE101808DE700F014F8002070BD5A699407F2D597
S3150FE1019000F00CF86FF0010070BD000004300E4066
S3150FE101A008000E40809698000C000E401968490829
S3150FE101B04900196008B100209863704772E70000A3
S3150FE101C0F8B5314801680869CD68846AAC4225D330
S3150FE101D005F510418C4221D2641B04192B4E21687F
S3150FE101E0B1421BD1E1682A4F4FF0FF3200F056F8CA
S3150FE101F0B84213D100F040F80ED20268B2420BD1E9
S3150FE102008168A268914207D3C1684FF0FF32284651
S3150FE1021000F044F8B84201D00120F2BD0020F2BD52
S3150FE10220F8B5194800680569C468AE6A361BAE1998
S3150FE10230274604E0384600F04BF807F50067F26809
S3150FE1024010198742F6D32946204600F05DF890B1A2
S3150FE1025000F012F80CD202680C498A4208D1C16843
S3150FE102604FF0FF32204600F019F80949884201D0D4
S3150FE102700020F2BD0120F2BD0648074900680918C2
S3150FE10280B1F5104F704700002800E10F07B0CD5EC2
S3150FE10290E320BBDE2808E10F00F81EF030B50A4B6C
S3150FE102A01C6844F040041C600125084B1D609A60F0
S3150FE102B05D6002E010F8014B9C610A46511E002A6F
S3150FE102C0F8D1D86930BD00BFB0400E4000C0014043
S3150FE102D080B5FFF729FF401E8041C00F02BD80B5F3
S3150FE102E08308800705D54FF6FF7242EA0142009275
S3150FE102F004E041F07F4141F47F0100910422694618
S3150FE103009800FFF75BFF02BDF8B505460E461446AA
S3150FE1031005F0010104F00100014321D1F4B1AA076F
S3150FE1032007D536F8021B2846FFF7D9FFC0B9AD1C32
S3150FE10330A41E042C0CD3A708BF003A463146284623
S3150FE10340FFF73CFF790806EB41067D19E41B38B947
S3150FE1035024B131882846FFF7C2FF08B90120F2BD63
S3150FE103600020F2BD80B51B481B4A01681B4811608E
S3150FE103704023C36001684A03FCD4FFF751FF00280D
S3150FE10380FBD040F2022000F033F8002002BD00005E
S3150FE1039010B5134C1348206000F04AF812490A6869
S3150FE103A0B2F5803F0AD040F20921884218BFB0F575
S3150FE103B0007F03D1FFF704FF00B110BD0B4A2260A6
S3150FE103C01046016881F3088881F3098840688746FA
S3150FE103D0FEE70000880000208C00002004300E406C
S3150FE103E008ED00E00000E10F04500E400008E10FB8
S3150FE103F04FF0005108804FF20F004880094801681D
S3150FE1040021F4E06141F480610160BFF34F8F06494A
S3150FE1041006480A6802F4E06202430A60BFF34F8FAF
S3150FE1042000BFFDE700500E400CED00E00400FA05B9
S3150FE104304FF000514FF20F024888904201D10888E0
S3150FE104407047002804BF0888012802D140F2022034
S3150FE1045070474FF40070704730B450F8041B79B110
S3150FE104600268436802440830DC0744BFA9F101047E
S3150FE10470E31852F8045B43F8045B091FF9D1ECE783
S3150FE1048030BC704710B5074979441831064C7C44A6
S3150FE10490163404E00A68081D114488470146A14253
S3150FE104A0F8D110BD2C0000003C0000004EF688513B
S3150FE104B0CEF20001086840F470000860BFF34F8F79
S3150FE104C0BFF36F8F4FF00070E1EE100A7047000037
S3150FE104D089FFFFFF1000000094000000800000205C
S3150FE104E0000000000449054808600548026842F427
S3150FE104F0700202607047000008ED00E02C00E10F8A
S3150FE1050088ED00E00120C046002801D0FFF7BAFFD1
S3150FE10510AFF300800020AFF30080FFF723FF00F079
S3150FE1052000F800F001B800000746384600F002F87F
S3150FE10530FBE700002021090326311820ABBEF9E7BE
S3150FE10540024880470248804702480047E504E10F29
S3150FE105509103E10F7D05E10FAD1007B0010000003A
S3150FE1056000000A010008E10F0080000000F04902D7
S3150FE1057000800000C0EA2101C0EA2101AFF300804B
S30D0FE10580FFF794FFFFF7BEFF41
S7050FE1057D88
