S01C0000626F6F746C6F616465722D756172742D62676170692E73333794
S113000020130020152B0000330600005D120000B1
S11300101F0700009F0A0000230B000000000000DF
S1130020000000000000000040000000570B00002A
S1130030EF280000FC000000BB290000CB290000D1
S113004007B0CD5E0100000000000A01142C00007E
S11300500040000000001000F00010002114000017
S113006025140000CB190000332B0000652B000081
S1130070000000000100000000000000000000007B
S1130080000000000000000000000000000000006C
S1130090000000000000000000000000000000005C
S11300A0000000000000000000000000000000004C
S11300B0000000000000000000000000000000003C
S11300C0000000000000000000000000000000002C
S11300D0000000000000000000000000000000001C
S11300E0000000000000000000000000000000000C
S11300F000000000000000000000000013B779FABF
S1130100C925DDB7ADF3CFE0F1B614B801010000A5
S113011000000000102C00004000000000000A0154
S113012000000000000000000000000000000000CB
S113013000000000740000000000000038B5012039
S113014087490860874C40F6AA62E260002020607C
S11301500021616541F205006060A1606161616434
S1130160814A824B1A60824D2960A9612961A96084
S1130170E96060602068206000F03AF97D49096810
S113018001230422C1F38021491CB0FBF1F04FF498
S1130190E111400100F56120B0FBF1F1764820390E
S11301A000EAC10060610521002000F071F901231B
S11301B001220621002000F06BF9142028604FF47E
S11301C0A021A9614FF4C0222A6101230422032142
S11301D0032000F05DF90520E0606848012101601A
S11301E04FF0F0524260002303624363C36303652C
S11301F063494FF480220A606DA2C365002492080B
S113020084659200C2665F4B4B605F494C600C6032
S113021003215E4A11600124446402205C490860A1
S113022031BD70B50E4605461446802E02D341F208
S1130230031070BD00F025F810B941F2062070BD1E
S11302400020544902E02A5C0A54401CB042FAD30C
S1130250D1F88000761E022266F30E10C1F88000E9
S1130260803189084C488900816502603CB100F006
S113027008F80028FBD0494801688A06FBD500200D
S113028070BD4749CA684148930703D502220A60F2
S1130290026004E049688A0703D402210160012056
S11302A07047002070473F48006840F201118842BF
S11302B008BF002007D040F2022188420EBF4FF44D
S11302C080703949401A394A1168814201D10020AD
S11302D0704701D2401A7047C1F500714018704749
S11302E02DE9F04107468846154600268BB1069C49
S11302F02CB100F00BF90021204600F020F9FFF7A3
S1130300D2FF404505D2002CF9D000F02FF9002887
S1130310F5D0FFF7C8FF804505D8404603E0002329
S11303200B6002211160864212D220490B681E4ADA
S1130330D45C5B1C164ABC55761C0B60B3F5007F7D
S1130340EDD0B3F5807FEED10121EBE7BDE8F0817C
S113035005B12E60464534BF41F204200020F5E784
S11303600490054008800540FFFF010048A00540B7
S1130370ACC5034070800040F8FF7F0004000440D7
S113038000400440020004008C0004403420044077
S113039010100440800000204800044018800540EC
S11303A0280004406C0004401001002018030020C1
S11303B0F00F1003248005401001002013000000FA
S11303C00900000000010000020200001300000008
S11303D0F00F1003248005401002002013000000D9
S11303E0090000000002000001010000D3FFFFFF2C
S11303F010B51449086800F00700032808BF124A22
S113040018D0124B1868C0F30440112828BF104AB2
S113041010D200BF11A2125C0E480F4C4243A242FC
S113042008D11B68012022461B0E03F003039840E9
S1130430B2FBF0F20868C0F30130401CB2FBF0F0EC
S113044010BD00007080004000F049020800014027
S1130450C0EA210140420F0000093D0004000007EA
S113046000000D1013001A20263038405000000000
S11304703022504310B50123214C04E03022504374
S113048010B501231F4C03FA01F12044016110BD92
S1130490F8B5054617460E461C46380007D0002C12
S11304A0284602D0FFF7EAFF01E0FFF7E1FF2A4602
S11304B030204243144988180F22082E05D241687F
S11304C0B30000F015F8416006E0A6F10803C16826
S11304D09B0000F00DF8C1604FB9002C314628464E
S11304E002D0BDE8F440C9E7BDE8F440C0E7F1BD7F
S11304F09A4021EA020207FA03F11143704700000F
S113050000E0034000D0034000C00340F8B5FFF70B
S11305106FFF4FF47A71B0FBF1F01F4A23A1800AF8
S113052050606846102200F059F840F2FF30ADF8F0
S113053002006946194800F08DF805B000BD30B5D9
S1130540174BDD68144C626802FB0050ADB260804A
S11305506088A8429241D20F227011B1D9688142B9
S1130560FCD101200F4C2060186030BD0A4A10787D
S11305700D4920B10B68D80706D4002070470868DD
S1130580C30701D50120704708695188884280411A
S1130590C043C00F704700001003002000800440D7
S11305A01880044014A0044014800440010000009A
S11305B000000000000000000000000062B38B0790
S11305C008D0521E11F8013B00F8013B00F02480D2
S11305D08B07F6D1830740F0208000BF103A07D381
S11305E030B4B1E83810103AA0E83810F9D230BC71
S11305F0530724BFB1E80810A0E8081044BF51F81D
S1130600043B40F8043BD20724BF31F8022B20F806
S1130610022B44BF0B7803707047083A07D3B1E844
S11306200810083A40F8043B40F804CBF7D25307CB
S1130630E4E7FEE7324988421CBF324A904205D0C3
S1130640314988421CBF314A904201D10120704790
S113065000207047F8B504460D46FFF7EBFF20462F
S113066000F056F8012142F23002A150687895F862
S113067004E00028A87A4FEA0E2E14BF402100217E
S11306800028E87A14BF802200220028287B14BFA7
S1130690202300230028687B14BF1026002600288E
S11306A0A87914BF082700270028B5F902004EEAEC
S11306B0804E687A14BF4FF4803C4FF0000C40EA3F
S11306C00E00014311431943314339434CEA0101FC
S11306D06160012141F23002A150287808B9022159
S11306E0E16000226262697901B11021EA792B7A12
S11306F043EA82031943A16008B10120E060F1BD1F
S11307000080044000C00440000005400040054053
S1130710016BCA0702D501694A06F9D47047FEE79E
S113072000207047002070470048704786E20F00A1
S113073000281CBF242100F0AFB9704770B5050034
S11307400C46164618BF002C02D16FF0210070BD74
S1130750242100F0A1F9802E1CBFC02EB6F5807FA5
S113076002D06FF01F0070BD2E60F2082146281DD4
S1130770FFF724FF002070BD2DE9F847060014465A
S113078091B00F461D4618BF002C00D015B96FF06C
S1130790210055E03068802818BFC02805D0B0F586
S11307A0807F18BF6FF01F004AD109A8202100F0F4
S11307B073F9012F0FF2602191E88C000CBFDFF870
S11307C04C02DFF84C020990684680E88C00301D2A
S11307D0009030680FF24C2206A9C00840F0005087
S11307E0029092E8884009A881E888400FF24021ED
S11307F0069491E8000703AC694684E80007039572
S113080000F04EF906A909A800F04AF903A909A8BD
S113081000F050F9316809A800F01EF8102109A869
S113082000F052F900F079F950B909A800F056F92E
S113083000F009F804F47024002C0CBF00202046BA
S113084012B0BDE8F087DFF8CC010168C902FCD51D
S1130850046900F064B911A8C90800F035B90000B2
S1130860002A2DE9F64F99B014BF1468002400261D
S1130870002800904FF0000A1FBFDDF89480B8F103
S1130880000FDDF89890B9F1000F04D01D001CBFD3
S1130890249F002F02D16FF0210099E0006801919C
S11308A080281CBFC028B0F5807F04D06FF01F00E3
S11308B08EE000F090F80198824580F08280002C50
S11308C0F7D1A0EB0A005FEA101B5DD063A611A864
S11308D05AA12022FFF782FE96E80E0008A84FEAEC
S11308E00B1B80E80E000099081D089000990BA8C6
S11308F00A680EA9D20842F000520A925AA292E85B
S1130900484081E848400E955AA191E84C000DF109
S1130910140E80E84C000B9559A090E80E0008EBEB
S11309200A008EE80E0005904BF00051079100BFBD
S113093056A393E8414002AA09EB0A0382E8414026
S113094000F059F80EA900F059F805A900F056F87E
S113095000F04DF80BA900F04BF800980168FFF780
S11309607AFF594611A800F0AFF800F0D6F8002835
S11309702ED111A800F0B2F800F043F8066900F097
S1130980CEF8DA4406F4702616B120E000F023F81D
S11309900198B0EB0A008ED0002CF7D100983B46AA
S11309A02A460121FFF7E8FE002041422944CA7B80
S11309B0521CCA73D2B2002AE8D1401C0F28F4D9C1
S11309C0E4E71A9800B104600EB9002000E0304654
S11309D01BB0BDE8F08F18F80A10385D641C04F0F1
S11309E00F04414009F80A100AF1010A704702A9EC
S11309F011A800F05FB80293049108A911A800F0AF
S1130A004FB804480168C902FCD5704700010004CE
S1130A10000101044400004C00000000010000003B
S1130A200000000000000000010000001000002091
S1130A300000000001000000100000200303000477
S1130A4000000000000000000000000000000000A2
S1130A500000000000000000000000000000000092
S1130A600100000000000000000000000100000080
S1130A701000002000000000010000001000002011
S1130A800000000001000000000000000000000061
S1130A900100000000000000002200F043B8FEE75F
S1130AA0426812B941607047526850680128FBD10E
S1130AB051607047826812B981607047526850680B
S1130AC00128FBD151607047C269042A05D200EBAA
S1130AD08202D160C169491CC161704710B5C16906
S1130AE0042909D910BD00EB8203DC68521C0C6098
S1130AF0C3699A42F7D310BD4FF098410A6CD302F0
S1130B00FAD5C269121D92000A6502680A60436838
S1130B100B6082680A600022EAE700207047002028
S1130B207047FEE700B500BF13009646944610399F
S1130B3028BFA0E80C50FAD85FEA417C28BF0CC05B
S1130B4048BF40F8042BC90728BF20F8022B48BF30
S1130B5000F8012B00BDFEE72DE9F84791B00646E9
S1130B600D4691461F461A9C0DF124003BA12022FC
S1130B70FFF734FD41A393E807000DF1180A03AB16
S1130B808AE80700CDF818903FA090E8004600BF1F
S1130B9040A2694683E80046039592E8280181E86B
S1130BA0280100971EB1022E33D021D336E00998D4
S1130BB0A10140F40070099009A8FFF785FF00F037
S1130BC047F840F014000590029840F01400029099
S1130BD003A909A8FFF764FF06A909A8FFF760FFA6
S1130BE0694609A8FFF766FFFFF797FFC0B126E043
S1130BF00998A10140F44070099009A8FFF764FF27
S1130C0000F026F840F020000590029840F0200003
S1130C10DDE70998A10140F48060EDE709480EE0A2
S1130C2009A8FFF75BFF08480168C902FCD50469FD
S1130C30FFF775FF14F4702F0CBF0020034812B0A7
S1130C40BDE8F08780AFFFFF4400004C80ADFFFF9C
S1130C50089840EA8414089405987047000001033A
S1130C600000000000000000000000000000000080
S1130C700000000000000000000000000000000070
S1130C80010000000000002000000000010000003E
S1130C90000000200000000001000000000000200F
S1130CA02DE9F84F834602281FD8140055D00B9A1B
S1130CB09846D2F800C0BCF13F0F18D850680028FD
S1130CC018BF5FEA080A13D1BBF1000F04D0BBF1CF
S1130CD0020F07D003D308E00FF2B01A08E00FF2B6
S1130CE0CC1A05E00FF2E41A02E04B4836E0C246A3
S1130CF00CF03F06A444C6F14005C2F800C0A44568
S1130D0002D25068401C506089460A9F8EB1AC42A2
S1130D100FD32A46B819FFF751FC0120009043462F
S1130D203A4651465846FFF717FFC246A944641B8A
S1130D3000263F2C0BD9A509009543464A46514647
S1130D405846FFF709FF09EB8519A4EB851424B174
S1130D5022464946B819FFF731FC0020BDE8F28F5E
S1130D602DE9F843044686B0884616461F462000FF
S1130D7003D0022C30D02DD330E0142500210020E4
S1130D800DF1080C57F8203042429200D21D01EBBD
S1130D90C3010CF8021002A9114457F82020C91EFF
S1130DA052098A7057F82020520B4A7057F82020B5
S1130DB0520D0A7057F82010401C490F0128E1D940
S1130DC03A7802F03F02382A34BFC2F13802C2F145
S1130DD0780205E01C25D1E72025CFE70E4817E06F
S1130DE0DDF83890019700964FEA08033FA12046AA
S1130DF0FFF756FF019700964346082202A92046B2
S1130E00FFF74EFF2A4641464846FFF7D7FB00202E
S1130E1007B0BDE8F083000080AFFFFF00281CBFCF
S1130E206C21FFF739BE704700220029026042603E
S1130E30CCBF0121002180F86810002070473EB526
S1130E4090F86830019000F12805002B00F10803A8
S1130E50009514BF012402242046FFF721FF3EBD64
S1130E6080B5034693F86800009103F12802002836
S1130E7003F1080114BF0120022003E0D4E70000BD
S1130E80DDE7EDE7FFF76CFF02BD000067452301D6
S1130E90EFCDAB8998BADCFE10325476C3D2E1F0C0
S1130EA0000000000000000000000000C1059ED802
S1130EB0367CD5073070DD17F70E5939FFC00B317A
S1130EC06858151164F98FA7BEFA4FA46A09E6673A
S1130ED0BB67AE853C6EF372A54FF53A510E527F57
S1130EE09B05688C1F83D9AB5BE0CD1980000000A3
S1130EF000000000000000000000000000000000EE
S1130F0000000000000000000000000000000000DD
S1130F1000000000000000000000000000000000CD
S1130F200000000000000000000000001CB50123C8
S1130F30042200F023F80021009102E00098401CF4
S1130F40009000986428F9DB0123022200F017F8CE
S1130F50002001E00098401C00900098B0F5FA7F52
S1130F60F8DB05490C680123002200F007F804F0BF
S1130F70010484F0010016BD44C003400021012097
S1130F80FFF786BA10B5494A494C4A4B1B682342BD
S1130F9007D103408B420DD0521EF6D16FF00200F0
S1130FA010BD4548034202D06FF0010010BD4FF060
S1130FB0FF3010BD002010BD70B5404D6860E8687A
S1130FC00E46410702D54FF0FF3070BD56F8040BB2
S1130FD0141F02E056F8040B241FA86044B1082132
S1130FE00820FFF7CFFF0100F4D00421296070BD71
S1130FF00420286000212120FFF7C4FF010004D150
S113100000212120BDE87040BCE770BD70B541F6F9
S113101071312A4C01222B4BE568E1621A60606051
S113102002262660002121202D0CFFF7ABFF05F0DE
S11310300105010003D100212120FFF7A3FF0121B5
S11310401F4A11600DB10021E16270BD2DE9F84322
S1131050184F3D688946144641F6713180462D0C7F
S113106039620122174B002005F001051A6009E0DE
S1131070324649464046FFF79FFF01000DD1B04478
S1131080B144A41B4CB108F50056760B7603A6EBCD
S11310900806B442ECD22646EAE70121084A116068
S11310A00DB100213962BDE8F283000080969800FA
S11310B0060001001C000340020001001000034070
S11310C00C2003400C100340054909688A0902F00A
S11310D03F0201F03F0382704370090B01707047B7
S11310E014C007402DE9F04F5FEA00080E4697B0A0
S11310F017461D4618BF002E00D017B940F20160F4
S11311005DE0209C002D0FA833A116BF002CDFF852
S1131110B490DFF8B4902022FFF760FA49460FA894
S1131120FFF7D2FC20210FA8FFF7CEFC32A292E8F1
S113113008500CA9002D81E808500C9531A191E8C4
S1131140010C0DF1240918BF002C89E8010C099445
S113115005D00CA900F03CF809A900F039F800BF4B
S11311602BA191E81C0006A806A980E81C00CDF874
S1131170188000F02DF800BF28A191E81C0003A8F6
S11311806D4680E81C00039627A696E8004303A951
S11311900FA885E800430097FFF782FC694600F03A
S11311A017F80FA8FFF79AFC08480168C902FCD594
S11311B0006910F4702F0CBF002040F2046017B0D7
S11311C0BDE8F08F1F24FC841F2400804400004CE1
S11311D00FA8FFF765BC0000000001060000000036
S11311E000000000000000000000000000000000FB
S11311F000000000000000000000000001000000EA
S11312002000002000000000010000002000002059
S11312100000000001000000200000200000000089
S11312200100000020000020000000000100000078
S11312302000002030B5084B01241C6000255D60AF
S1131240DA609C6002E010F8014BDC610A46511E32
S1131250002AF8D1186A30BD048008404FF40170A8
S113126000F0ACB81CB56846FFF72EFF4848816A09
S1131270CA0311D441686FF3162141F4B81141F443
S113128005414160016821F4704141F4404101602D
S1131290026842F4E06202609DF80100012804BF84
S11312A09DF80000002807D14FF0005106200A687D
S11312B001F58041401EFAD13648016841F003012E
S11312C0016000F0ADF800F074F800F0B3F800F03D
S11312D0B3F818B14FF4017000F070F800F0CCF8D6
S11312E0044600F093F9002C19BF40F203708442C5
S11312F040F2012000F062F840F2057084421BBF06
S113130040F206718C4240F203204FF4017000F069
S113131055F8002016BD00001F4838B501680124A7
S113132001254A060AD500F063F840F20221401A6A
S113133007D0C01E05D0C01E012802D9FFF7F6FD54
S113134008B10024002544F20400016811F1010FE2
S113135006D14FF40270BDE8324000F023B831BD2D
S11313602DB14FF4804000F030FB0400F1D0002C8C
S1131370F5D04FF4804009490860024610460168E0
S113138081F3088881F3098840688746FEE70000F6
S113139030C00040808000409440004008ED00E0F0
S11313A0002070474FF0005108804FF20F00488032
S11313B070474CF23C300B49088070474FF00051A5
S11313C008804FF20F004880BFF34F8F06490A6828
S11313D0064802F4E06202430A60BFF34F8F00BF85
S11313E0FDE70000020000200CED00E00400FA0517
S11313F04FF0005148884FF20F02904201D1088803
S11314007047002804BF0888012802D140F2022056
S113141070474FF4007070474FF0005000887047D9
S1131420002070470020704701790122C01C091D6B
S1131430FEF7F7BEFEF782BE80B5A2B0FFF7ECFF61
S1131440B0F5027F07D1684671A18822FFF7C6F87C
S11314506846FFF7E9FF68468FA18822FFF7BEF8C8
S113146028210A680DF10700936803606846FFF7B6
S1131470DBFF23B000BD000078B5ADF5497D85A83C
S1131480A7A18822FFF7AAF80DF13400C6A1102203
S1131490FFF7A4F80DF10800C7A12C22FFF79EF86E
S11314A0202311AA2CA93EA800F005FD40F603351F
S11314B040F2022608E0012100228DF81A12ADF84C
S11314C01B2285A8FFF7B0FF8821A7A8FFF7E4FA3D
S11314D0FEF7E9FE0028FBD04FF47A700090A7A82D
S11314E0012301AA0121C01CFEF7FAFE9DF89F0208
S11314F02028EDD14FF47A710091012301AA032130
S1131500A8A8FEF7EDFE01980328DDD19DF8A042BE
S113151074B140F6B8300090A8A8012301AA21466E
S1131520C01CFEF7DDFE0199A14208BF0028CBD103
S11315309DF8A1020028C7D19DF8A2029DF8A3320C
S11315400328C1D8DFE800F05403041ABCE7B2E76B
S11315500DA90091A9AA02A93EA800F0EFFC02215E
S113156000288DF81A121CBF41F20701884212BFED
S1131570ADF81B520022ADF81B22A2E703208DF820
S11315801A029DF80A0000281CBF9DF80B000028D1
S113159085A81ABF0021ADF81B12ADF81B52FFF746
S11315A043FF9DF80A0000281CBF9DF80B0000288B
S11315B08AD09DF8080041070CD50C9800F07CFAFD
S11315C020B101F069F900F0A7FA7DE73046FFF792
S11315D0F5FE79E78107FCD5282002680398916815
S11315E0814204D201F058F90B9900F02DFA6BE70F
S11315F09DF80A0028B19DF80B0010B940F20320B1
S1131600E5E7012BE2D040F20120E0E7704700005B
S1131610000000A0020001030B0000000000000015
S113162000000000000000000000000000000000B6
S113163000000000000000000000000000000000A6
S11316400000000000000000000000000000000096
S11316500000000000000000000000000000000086
S11316600000000000000000000000000000000076
S11316700000000000000000000000000000000066
S11316800000000000000000000000000000000056
S11316900000000000000000000000A004000000A2
S11316A00000000000000000000000000000000036
S11316B00000000000000000000000000000000026
S11316C00000000000000000000000000000000016
S11316D00000000000000000000000000000000006
S11316E000000000000000000000000000000000F6
S11316F000000000000000000000000000000000E6
S113170000000000000000000000000000000000D5
S113171000000000000000000000000000000000C5
S11317200000002002000000000000000000000093
S113173000000000000000000000000000000000A5
S11317400000000000000000000000000000000095
S11317500000000000000000000000000000000085
S11317600000000000000000000000000000000075
S11317700000000000000000000000000000000065
S11317800000000000000000000000000000000055
S11317900000000000000000000000000000000045
S11317A000000000000000000000000063190000B9
S11317B0000000008B19000000FF00000000000082
S11317C00000000000000000000000000000000015
S11317D00000000000000000000000000000000005
S11317E000000000F8B50446600B0D461646B4EB45
S11317F0403004BF204601F054F804F500577F0B35
S11318007F0304E0384601F04CF807F5005730191F
S11318108742F7D3324629462046BDE8F84001F016
S113182048B838B504460D4600F00FF850B1606969
S1131830012805D1207C022802D2A069286002E098
S1131840002032BD2C60012032BD7FB504466846BD
S11318500FF238311022FEF7C1FE002046420DEB94
S11318600605E97B225C914205D1401C1028F5D382
S1131870012004B070BD0020FBE72DE9F042B8B0B0
S113188007467E6B01F005F881463046FFF7DDFF21
S1131890002863D0306900F0FF01022938D2010624
S11318A004D0000A1CBFB56B002D06D1002401A989
S11318B03046FFF7B6FF00BB50E000214A6B686C6E
S11318C00124916B4A6C904222D302A801F000F8E3
S11318D04822294602A801F005F802A801F004F8FC
S11318E000200090002305F1680205F1480102A8D8
S11318F0FFF7F8FB0028DAD00AE00198D9F81010B5
S1131900884228BFB84203D301469848814201D394
S1131910002023E01DA800F0DBFF01983946C21B1C
S11319201DA800F0DFFF1DA800F0DEFF019D20359B
S11319302CB1B06B00F124010091031D06E0FEF709
S1131940F1FE0446FEF7ECFE0346009401992A4694
S11319501DA8FFF7C7FB401E8041C00F38B0BDE88B
S1131960F08270B504460D46164600F092FF0169F8
S11319708C4222BF40693219904205D3324629462F
S11319802046BDE870402DE770BD2DE9F0410446C6
S11319908846164600F07DFF074600F07DFF2518B7
S11319A07019724988420ED23CB900F075FF79690A
S11319B088423CBF386900F074FF324641462846ED
S11319C0BDE8F0410EE7BDE8F081F8B504462568AE
S11319D06768666B00F05DFF05F1604564498D4200
S11319E029D20069874226D360498F4223D24030EE
S11319F0864201D38E4205D3FFF7D2FC401E8041BC
S1131A00C00FF2BDFFF7CCFCB8B93046FFF71DFF9D
S1131A10B8B1307C02280ED2706990B102280CD182
S1131A20B0694FF0FF32001D011B2046FFF702FC96
S1131A305049884205D00020F2BD2046BDE8F2405E
S1131A401BE70120F2BD000070B590B004460D46BE
S1131A504FF0FF32FFF7EEFB464B984213D1684636
S1131A604EA100F055F800F08DF8294600F08BF8EF
S1131A706846FFF733F8404E3068C002FCD5306941
S1131A8010F4702F02D0002010B070BD40F202207C
S1131A90FFF788FC0DF1200048A100F039F800F0B0
S1131AA06DF8294600F06BF808A8FFF717F83068BE
S1131AB0C002FCD53169E6E72DE9F8438CB0044651
S1131AC04FF0FF35009504A844A100F021F800BFB1
S1131AD04AA696E8800301AD01A985E88003CDF804
S1131AE004D004A8FEF7E6FF04A8FEF7F7FF224897
S1131AF00168C902FCD5006910F4702F18BF0020DA
S1131B0003D10098A0428041C00F0DB0BDE8F0831E
S1131B102022FEF763BD000038B590B00446684645
S1131B2039A1FFF7F5FF00F02DF86846FEF7D6FF60
S1131B30114D2868C002FCD5286910F4702F11D10A
S1131B4040F20220FFF72EFC0DF1200036A1FFF732
S1131B50DFFF00F013F808A8FEF7C0FF2868C002F2
S1131B60FCD52969002011B030BD0000010010002F
S1131B7001800100E320BBDE4400004C214608A89C
S1131B80FEF7A2BF21466846FEF79EBFB814B6F121
S1131B90E0CFF3ADB7DD25C9FA79B71301000543EA
S1131BA00000000000000000000000000000000031
S1131BB000000000000000000000000001000643D7
S1131BC00000000000000000000000000000000011
S1131BD000000000000000000000000000000843B6
S1131BE000000000000000000000000000000000F1
S1131BF000000000000000000000000000000000E1
S1131C000100000004000020000002430000000066
S1131C1000000000000000000000000000000000C0
S1131C20000000000000000000000343000000006A
S1131C3000000000000000000000000000000000A0
S1131C4000000000000000002DE9F8431E46736800
S1131C50002B4ED00C4614F0030118BF41F20200D1
S1131C6048D11546074600F010FE396E001D6A186B
S1131C70824221D300F1180399421DD28C46844537
S1131C8005EB010800F1180238BF84469045ACEB1F
S1131C900101ACEB000088BF904604EB0109A8EBFE
S1131CA00C083844424649466830FEF787FCFF2258
S1131CB04146484600F01CFE00F0EEFD396E001D62
S1131CC0884222BF6A18031D9A4209D3411A601838
S1131CD0026807F180010A60FF22042100F008FE77
S1131CE021463368386E74682A46A047386E2D182A
S1131CF03D660020BDE8F28370B54B688C689C4259
S1131D0006D200F140021B1B14781B19412B01D38E
S1131D10002070BD0D6853781478E4188B6804F0C3
S1131D203F04EE5C06558C68641C8C6013785B1C65
S1131D3013708C684B689C42ECD3012070BD90F802
S1131D4040004A6889681018401A70472DE9F0412C
S1131D500C4617461D468046FFF7F1FF08F1400682
S1131D60A84206D221464046FFF7C6FF10B3002022
S1131D704DE000210CE0707818F800207A54737854
S1131D803078491C5B1C03F03F03421E73703270B1
S1131D90307808B1A942EED3A0686268904238BF97
S1131DA0A9420CD22368185C7854A268491C521CBE
S1131DB0A260F1E71520B07141F2020027E0A942C8
S1131DC0F8D1B26C069C29463846FFF733FAB06462
S1131DD024B1F0682A46394600F084FD079838B1EA
S1131DE0F07878B1B0682B463A46394600F0D6FD13
S1131DF0F07838B1B169F06928188842F06124BFDD
S1131E000020F07070692D18756141F20300BDE87F
S1131E10F081F8B584B01446002605460196009674
S1131E20082302AAFFF792FF41F20306B0423BD116
S1131E3095F8430005F1480738B100F037F83868E1
S1131E40082302AA02A900F0A9FD9DF80A209DF822
S1131E500B009DF80910120442EA00629DF8080084
S1131E6042EA0122024322609DF80E009DF80F1001
S1131E7000F0E5FC9DF80D1040EA01209DF80C10DF
S1131E800843606095F8430048B9DFF858198A425E
S1131E901CBFDFF85409824201D000F007F86068E3
S1131EA00021F960B860304605B0F0BD78680822BA
S1131EB002A900F017BDF8B5064606F14007002058
S1131EC00D46B8717870F870387100214FF0FF300A
S1131ED014463970797103F02003B8643962796269
S1131EE0BB70FF22182106F1680000F001FDFF22FB
S1131EF0042106F1800000F0FBFCFF22042106F11E
S1131F00840000F0F5FCBD60FC60882106F19000BF
S1131F1000F054FD002086F8180100F0B4FC00B174
S1131F201DB100F0AEFC18B114B941F20B00F2BDC2
S1131F3014B1F86800F0CCFC0020F2BD2DE9F84F94
S1131F40B4B00746884605A800210023002480E891
S1131F501A000592349A089107F14805069209AED1
S1131F607FE0002035B0BDE8F08F012089F8010042
S1131F7089F8040007F1420999F80400152870D87B
S1131F80DFE810F0C7031700F600DD039C01FD0134
S1131F904501E003FD01F001FD014A01FD01F001ED
S1131FA0F3031604360316003A030804E603160482
S1131FB0DBE700F03BFC41F203029042D2D199F8F6
S1131FC0020030B10398DFF82018884254D10E2261
S1131FD0ADE399F80000C1075CD599F80100002829
S1131FE058D10398DFF8041888421CBFDFF80018A2
S1131FF088422AD0DFF8FC17884238D0DFF8F81777
S113200088421FBFDFF8F4178842DFF8F4178842CC
S11320101BD0DFF8F017884224D0DFF8C8178842B5
S113202000F07E80DFF8E017884213D0DFF8DC1779
S113203088420DD0DFF8B01788421AD0DFF8D017E5
S113204088421CBFDFF8CC17884200F0788317E081
S113205010226CE3112089F80400A968002068614B
S1132060296166E300F0DAFB41F208007AE7122006
S11320704CE300F006FC002840F061830E2045E3A9
S113208000F0CCFB03A800F09CFC0028ECD041F24B
S1132090010067E70398DFF85817884220D0DFF87B
S11320A05417884232D0DFF8501788421CD0DFF82A
S11320B04C17884216D0DFF84817884216D0DFF84C
S11320C02417884228D0DFF82017884214D0DFF87C
S11320D0401788420ED0DFF83C17884208D021E030
S11320E00B2224E3042011E306212EE307200DE351
S11320F009212AE30D2009E300F0C3FB002804BFF3
S113210099F801000028B7D10E211EE399F80100C7
S11321100028B1D1122118E399F801000028ABD1AD
S1132120132112E303A800F04CFCC0B1039814215E
S1132130686489F80410039800F045FC089099F845
S1132140000081068DD5089800281CBF416800292D
S113215087D038468847002800F0EB8297E799F843
S1132160010000F05BFB002890D041F20400F9E686
S1132170E868082880F0C9820021012001910090BC
S113218000F061FB00F04EFB08D1F0780006B0F1DE
S1132190407F04D000F05DFB41F20900E2E6707973
S11321A0317941EA00210291C90706D599F8000066
S11321B040F0010089F8000002E000F064FB30B94F
S11321C000F05FFB0028D3D00298C105D0D400F002
S11321D040FB41F20A00C5E601200190009000F0A6
S11321E033FB00F01FFBF6D11C2209A908F10800FB
S11321F0FEF7F4F998F8000040F0010088F80000B8
S113220008F1080000F04BFB002800F02B82AB68BB
S1132210E8689842E0D3CEE2E868082850D2012169
S11322200191009108230BAA00F00FFB00F0FAFAC9
S1132230D1D198F8000040F0040088F80000B07B89
S1132240F17B327B00F0FBFA717B40EA0120104302
S1132250C8F8280098F8010041072BD5EB208DF829
S11322602400A6201721B070717007F150005E2180
S1132270F170026807F184010A600022EA6199F8AA
S1132280030040F0020089F803003E98C4688CB152
S11322900368042209A90020A0473E983E9C082216
S11322A00368E869D4F80CC00BA90830E047E86972
S11322B01030E8610C2089F80400ADE7E8680828CC
S11322C080F0378201210191009100F0BCFA00F006
S11322D0A9FA34D198F8000040F0020088F8000010
S11322E0B078F1789DF8242000F0A9FA717840EADA
S11322F001201043C8F80400A8680838C8F824006E
S1132300B079F179327900F09AFA717940EA0120D2
S1132310104340F0148299F80310052089F8040052
S113232041F0010189F803100020E861C6E70121AA
S113233001910091042300F087FA00F073FA7FF40E
S113234011AEB178F0789DF82420090441EA0061C7
S1132350707841EA002111430291A868042884BFDF
S11323600298A861E8680428E1D30A21EDE1036832
S1132370E869524609A9A047E8695044E861A86899
S1132380E968814280F01782A0EB010ABAF1040FD8
S113239005A9384608D3FFF7D2FC042808D205A9BA
S11323A03846FFF7A9FCDCE5FFF7C9FC5045F6D336
S11323B0BAF1410F05A9384628BF4FF0400AFFF78C
S11323C0BEFC504502D200F036FA8246BAF1040F40
S11323D009AA05A924BF4FEA9A004FEA800A0120FE
S11323E001900090534600F031FA00F01BFA6ED1D0
S11323F099F80400082803D13E988468002CB6D1CB
S1132400CAF10404BAF1040F06D209A8FF22214636
S1132410504400F06DFAA24499F804100A2906D138
S11324203E9B524609A93846FFF70EFCA7E705294B
S113243019D198F80100820715D53E9BD86890B150
S1132440E869042819D80AEB0001072915D309A95A
S1132450091D081A016807F184021160FF22042192
S113246000F046FA09E00C2989D198F801004107E7
S113247085D53E9AD0680028D8D03E983E9C5246D6
S11324800368E869D4F80CC009A9E04774E74FF081
S1132490010B00F0D0F9584589D3A868E968A0EB8E
S11324A0010BBBF1410F05A9384628BF4FF0400B83
S11324B0FFF745FC834502D300F0BDF983460120B4
S11324C0019000905B4600F0BFF900F0ABF97FF497
S11324D049AD99F8000081060ED5002C1CBFD4F834
S11324E008C0BCF1000F3FF4D2AD53465A4609A9C7
S11324F03846E0470028EAD1E868A968884280F0B5
S11325005E8199F800008106C1D5002C1CBF2169A9
S11325100029BCD0384688478346BAE700F0B1F9B1
S113252018B9012088F8030003E098F80300002894
S113253042D099F8030010F0030F1CBFD4F80CC06C
S1132540BCF1000F05D02368042207F184010420A4
S1132550E047A96900291CBF606800282CD04FF00F
S1132560FF31029107F180050422294602A800F0F8
S11325702DFA40B100F090F928B129462368656826
S11325800422001DA847042207F1680102A800F0F4
S11325901DFA88B100F079F923686568142207F1FF
S11325A06C010830A84700F070F9236865680422BC
S11325B007F16801001DA847012088F802000F21D7
S11325C089F80410CDE4002001210190009110232A
S11325D000F03AF900F026F948D1FEF7A5F800908A
S11325E080210191286801230AAA022100F0B3F98D
S11325F0E8681028E7D3DEE097F8180100287FF494
S1132600B9ACE86804280AD200F031F900F00AF9FC
S11326102CD109A8026807F190010A6089E041F20F
S1132620030444280AD200F018F9A0421ED1402223
S113263009A907F19400FDF7C1FF7AE0482816D2F2
S113264000F015F9A04211D109A8026807F1D401DC
S11326500A600022506B806B20B1D7F8D410406C14
S1132660814266D200F0DAF841F20C007AE400F01C
S1132670F4F8A042FAD1402209A907F1D800FDF7E5
S11326809DFF19A800F024F9482207F1900119A828
S113269000F028F919A800F027F900200090002381
S11326A007F1F80207F1D80119A8FEF71BFD18B9C4
S11326B0012087F8180129E000F0CBF841F2060068
S11326C050E4686800F010F997F8180128B107F190
S11326D0B401009107F1940306E0FEF723F80446E1
S11326E0FEF71EF800940346686811AA09A9FEF7CC
S11326F0F9FC28B1002088F8030000F08FF8DDE72A
S1132700012088F8030089F80200012089F80400F8
S11327100FE000F08BF800F085F8D1D10498002187
S1132720E960A86003983149884208D1022289F8F7
S11327300420079834998842FFF41CAC42E700F067
S113274088F8A4E40020E861082189F80410F0E77F
S113275099F80000DDF8F8A081062ED5686C00F029
S113276032F90890002828D191E43E9C0020019081
S11327700090042300F068F800F054F8A0D1286C0D
S1132780254988423FF4CAAE152289F8042041F253
S1132790050095E799F802000028B6D100210191BF
S11327A00090402300F050F800F03CF889D087E70F
S11327B041F2070084E70121C7E7089C9CE6CDF8B5
S11327C0F8A0089499F800108A069ED5002C1CBF26
S11327D0E268002A99D03E993846904700287FF451
S11327E0C1AB92E7F70A0AF7FC0404FCEB17A60353
S11327F0EB17A65EF30B0BF3F40A0AF4F50909F5DB
S1132800F60808F6F70909F7F90707F9FA0606FAC8
S1132810FD0303FDFE0101FEE320BBDE152189F863
S11328200410704741F203018842704703AA05A9C6
S11328303846FFF7EEBA05A93846FFF780BA000418
S113284040EA01607047082309AA05A93846FFF742
S11328507DBA152089F804007047002001210190F9
S11328600091402309AA05A93846FFF76FBA002052
S1132870012101900091042309AA05A93846FFF714
S113288065BA002070470020704728200168086955
S113289070472820006870474FF4004070470120BB
S11328A0704780B5FEF7B2FBFFE7401E8041C00FC2
S11328B002BD10F0030F80B508BF12F0030F01D062
S11328C0002002BD0AB9012002BDFEF7BFFBECE700
S11328D010B50446FEF7A2FA20460021BDE81040D8
S11328E0FEF7CCBAFEF7CCBA0146FEF7CABAFEE749
S11328F062F30F2262F31F42401810F0030308D062
S1132900C91A1FD3DB0748BF00F8012D28BF20F8E0
S1132910022D130030B414461546103928BF20E99F
S11329203C00FAD8490728BF20E90C0048BF40F80A
S1132930042D890028BF20F8022D48BF00F8012D7E
S113294030BC7047C91818BF00F8012DCB0728BF49
S113295000F8012D70472DE9F84380460E46914654
S11329601C46089D099FFDF7E3FE29463A4640466A
S1132970FDF7E4FE08F124000021016006750C2235
S1132980494608F13900FDF719FE08F14500210C0C
S1132990220A017042708470BDE8F1833EB51C4682
S11329A00292019100F12805009500F1380300F12D
S11329B024022146FDF754FF37BDFEE70022FFF74E
S11329C09BBF0020704700207047FEE703000020F3
S11329D013F0030F09D0521E22BF13F8010B11F894
S11329E001CBB0EB0C00F3D07047121F22BF53F899
S11329F0040B51F804CB6045F7D0121D0AD200BA7B
S1132A009CFA8CFCB0EB0C0038BF6FF0000088BF60
S1132A1001207047521E22BF13F8010B11F801CB9D
S1132A20B0EB0C00F6D0521C08BF1046704730B40F
S1132A30002513E050F8042BD30744BFA9F1010388
S1132A409A18091F042942F8045BFAD213468C072A
S1132A5044BF15809B1CC90748BF1D7050F8041B58
S1132A600029E7D130BC704704480549086005488F
S1132A70026842F470020260704700000000000027
S1132A8008ED00E088ED00E04EF68851CEF200013A
S1132A90086840F470000860BFF34F8FBFF36F8F76
S1132AA04FF00070E1EE100A7047000000F00DF8DE
S1132AB0002801D000F00CF8AFF300800020AFF341
S1132AC00080FEF7CFFB00F017F8012070470000EC
S1132AD010B5074979441831064C7C44163404E097
S1132AE00A68081D114488470146A142F8D110BD67
S1132AF0E80000000401000000F000B80746384672
S1132B0000F002F8FBE70000202109032631182019
S1132B10ABBEF9E780B5FFF7A7FFFEF7FDFBBDE805
S1132B20014000F000B8AFF30080FFF7ADFFFFF7FE
S1132B30BDFF10B50446B1F5037F02D240F2052073
S1132B4010BD4FF40371FDF7A7FF0020607004F57A
S1132B50C87204F5A47104F12C000023BDE81040F0
S1132B60FFF7A9B91CB504460091214604F12C00D5
S1132B70FFF7E4F90028C4F808021CBF41F207017A
S1132B8088420BD1A07838B1E07810B140F203202C
S1132B9016BD40F2022016BD40F2012016BD30B52C
S1132BA0016884684218416802EB5103C9070BD5D8
S1132BB04C4409E012F9011B12F8015B002904F8E6
S1132BC0015B05D5491CF9D19A42F3D10C3030BDD3
S1132BD0491EF1D5F8E7000057FEFFFF0C02000084
S1132BE01001002000000000B7FFFFFF0C000000F0
S1132BF0240000008000002081000C00F07F1030D1
S1132C00800000203C800540FC0000000000000023
S9032B27AA
