S01C0000626F6F746C6F616465722D756172742D62676170692E73333794
S11300002813002069330000B7060000851E000095
S1130010AB0700008F0B0000F70B0000000000008E
S11300200000000000000000200100007F1000001C
S1130030B310000054010000171E00004F1E000002
S1130040000000000000000000000040FFFFFFFF70
S1130050000000010000000000000000000000009B
S1130060FFFFFFFFFFFFFFFFFFFFFFFFFFFFFFFF9C
S113007000000000FFFFFFFFFFFFFFFFBCE6FAAD3B
S1130080A7179E84F3B9CAC2FC6325516B17D1F23A
S1130090E12C4247F8BCE6E563A440F277037D8196
S11300A02DEB33A0F4A13945D898C2964FE342E230
S11300B0FE1A7F9B8EE7EB4A7C0F9E162BCE33579E
S11300C06B315ECECBB6406837BF51F5FFFFFFFF03
S11300D0000000010000000000000000000000001B
S11300E0FFFFFFFFFFFFFFFFFFFFFFFC5AC635D8EE
S11300F0AA3A93E7B3EBBD55769886BC651D06B066
S1130100CC53B0F63BCE3C3E27D2604B4C000000B3
S1130110C0000000000000000000100020000000EB
S113012007B0CD5E0100000000000A016834000041
S11301300060000000000800F00010003120000002
S1130140352000007125000087330000B93300001A
S11301500000000013B779FAC925DDB7ADF3CFE08D
S1130160F1B614B80101000000000000643400007E
S11301704000000000000A01000000000000000030
S1130180000000000000000000000000000000006B
S113019000000000F8B58C4C4FF0806020604FF4F4
S11301A0007121600122894B1A60894D40F6AA60D2
S11301B0E86000212960696541F205006860A96072
S11301C069616964834A844B1A60844E3160B16109
S11301D03161B160F160686028684FF4A02728603D
S11301E000F03CF97E49096801230422C1F380210F
S11301F0491CB0FBF1F04FF4E111400100F561201E
S1130200B0FBF1F17748203900EAC10068610521AB
S1130210002000F079F9012301220621002000F0DA
S113022073F914203060B7614FF4C02131610123A8
S113023004220421012000F067F90520E86003216D
S113024021606948012202604FF0F05343600021AD
S1130250016200224263C163026564490F6000BF0A
S11302606EA3C2659B0882659B00C366604A4A60B0
S1130270604900234B600B6003215F4B196001242C
S1130280446402205D490860F1BD70B50E46054620
S11302901446802E02D341F2031070BD00F025F8FD
S11302A010B941F2062070BD0020554902E02A5CD5
S11302B00A54401CB042FAD3D1F88000761E0222C0
S11302C066F30E10C1F88000803189084D4889001A
S11302D0816502603CB100F008F80028FBD04A4870
S11302E001688A06FBD5002070BD4849CA684248A7
S11302F0930703D502220A60026004E049688A0772
S113030003D4022101600120704700207047404857
S1130310006840F20111884208BF002007D040F273
S1130320022188420EBF4FF480703A49401A3A4A7B
S11303301168814201D10020704701D2401A7047F0
S1130340C1F50071401870472DE9F0410746884611
S1130350154600268BB1069C2CB100F013F9002140
S1130360204600F02CF9FFF7D2FF404505D2002CBF
S1130370F9D000F03BF90028F5D0FFF7C8FF80451D
S113038005D8404603E000230B6002211160864239
S113039012D221490B681F4AD45C5B1C174ABC5516
S11303A0761C0B60B3F5007FEDD0B3F5807FEED102
S11303B00121EBE7BDE8F08105B12E60464534BF6D
S11303C041F204200020F5E7649000400410064048
S11303D008000640FFFF0100482006403CC60340D9
S11303E070800040F8FF7F00040004400040044097
S11303F0020005008C000440342004401010044026
S113040080000020480004401800064028000440F2
S11304106C0004401001002018030020F00F1003AA
S11304202400064010010020130000000900000011
S1130430000100000202000013000000F00F10038E
S113044024000640100200201300000009000000F0
S11304500002000001010000D3FFFFFF10B51649A0
S1130460086800F00700032808BF144A1CD04FF4A2
S11304708020134A1060134B1868C0F304401128FD
S113048028BF114A10D200BF12A2125C0F48104CB0
S11304904243A24208D11B68012022461B0E03F0EE
S11304A003039840B2FBF0F20868C0F30330401C29
S11304B0B2FBF0F010BD00007080004000F0490273
S11304C06490004008000140C0EA210140420F004E
S11304D000093D000400000700000D1013001A205D
S11304E026303840500000003022504310B501231C
S11304F0214C04E03022504310B501231F4C03FA71
S113050001F12044016110BDF8B5054617460E46B9
S11305101C46380007D0002C284602D0FFF7EAFF1B
S113052001E0FFF7E1FF2A463020424314498818CE
S11305300F22082E05D24168B30000F015F841607F
S113054006E0A6F10803C1689B0000F00DF8C16045
S11305504FB9002C3146284602D0BDE8F440C9E723
S1130560BDE8F440C0E7F1BD9A4021EA020207FA6F
S113057003F111437047000000E0034000D0034042
S113058000C00340F8B5102023490860FFF766FF58
S11305904FF47A72B0FBF2F020491022800A4860CE
S11305A04FEA0D0022A100F05BF840F2FF30ADF8F5
S11305B0020069461A4800F091F805B000BD30B554
S11305C0184BDD68154C626802FB0050ADB26080C8
S11305D06088A8429241D20F227011B1D968814239
S11305E0FCD10120104C2060186030BD0B4A1078FB
S11305F00E4920B10B68D80706D40020704708685C
S1130600C30701D501207047086951888842804199
S1130610C043C00F704700006490004010030020E6
S1130620008004401880044014A004401480044056
S113063001000000000000000000000000000000B5
S113064062B38B0708D0521E11F8013B00F8013B3E
S113065000F024808B07F6D1830740F0208000BF90
S1130660103A07D330B4B1E83810103AA0E8381083
S1130670F9D230BC530724BFB1E80810A0E8081031
S113068044BF51F8043B40F8043BD20724BF31F87F
S1130690022B20F8022B44BF0B7803707047083AF2
S11306A007D3B1E80810083A40F8043B40F804CBFB
S11306B0F7D25307E4E7FEE7334988421CBF334AC5
S11306C0904207D0324988421FBF324A9042324991
S11306D0884201D10120704700207047F8B50446D4
S11306E00D46FFF7E9FF204600F058F8012142F2D9
S11306F03002A150687895F804E00028A87A4FEAFF
S11307000E2E14BF402100210028E87A14BF802255
S113071000220028287B14BF202300230028687BA4
S113072014BF102600260028A87914BF0827002724
S11307300028B5F902004EEA804E687A14BF4FF4DF
S1130740803C4FF0000C40EA0E0001431143194372
S1130750314339434CEA01016160012141F2300225
S1130760A150287808B90221E16000226262697907
S113077001B11021EA792B7A43EA82031943A1607B
S113078008B10120E060F1BD0080044000C00440D5
S1130790000005400040054000800540016BCA0789
S11307A002D501694A06F9D47047FEE7024870474A
S11307B002487047024870474CE307006CE30700A7
S11307C086E20700002A00D170471CB5049C0094FF
S11307D000F058F916BD30B501B1491E524DAC6850
S11307E0C4F30044002CF9D140EA0120120702F0BE
S11307F080521043184340F00040286030BDF7B5E4
S11308001C460846844286B098BF204606000790DE
S113081018BF002C1DD00E99444D002005EB412536
S113082005900494AF1B0397029606AB81B000F0C9
S11308305BF808BC03AF97E8070000F062F9A64232
S113084007D2A21B281B09B00021BDE8F04000F02C
S113085053B909B0F0BD77B51C461346D8008DB026
S1130860149D43BFCA1C92089200620000F01BF85A
S113087001A86D0200F01DF92C4900F019F805F5E6
S1130880213500F00CF8291B09A8FFF79BFF09A8E4
S113089000F00FF905A901A813E0244841190096B6
S11308A00023224670470D990026009601A889E787
S11308B04919009600232246091B05A805F198450D
S11308C080E700F0C0F810B070BD17B587B000F035
S11308D017F8029307AB03910021059181B000F052
S11308E003F808BC03AC05E006CB684606C01968EB
S11308F00160704794E8070000F003F90AB010BDE6
S11309000C980B49049301EB4021704709490120DD
S113091008604868C0F300400028FAD148684FF6E0
S1130920F0710840704700000420024C0082024C21
S11309300080024C0820024C2DE9F84187B014468F
S11309400DF1100E0E9D0F9E01900293039400274B
S11309508EE80700984608FB07F00599884218D2EC
S11309601EB9022F18BF032F0CD00DF1040C002D5B
S1130970009743469CE8070002D1FFF7A6FF01E079
S1130980FFF73DFFE00002D40199414401917F1C2F
S1130990E1E708B0BDE8F0810160704738B50C4666
S11309A001463148FFF7F8FF304D21462846FFF74E
S11309B0F3FF0320686231BD0FB470B50A9C15467D
S11309C0A14238BF0C46E80002D5E41CA408A400E8
S11309D0254E19463046FFF7DFFF099824F070448E
S11309E005F0E04500F0E040204340F00050B060E6
S11309F00020F06004991D4E30462C43FFF7CCFFD5
S1130A0044F00054B4600020706270BC5DF814FBC4
S1130A1017483F214161102202600323C3617047DC
S1130A20144801688A07FCD470471348016811F020
S1130A30240F11BF406941691048014202D00121CD
S1130A400F480160704780B5FFF7A8FF08483F21B1
S1130A504161102202600323C361016A8A07FCD446
S1130A60BDE80140E1E700000000024C1000024C28
S1130A701C00024C3C00024C2800024C1000FFFFFA
S1130A80FCFFFF3F10B500F110044460016022F048
S1130A90704282600029816804D003F070430B43E4
S1130AA0836002E041F0804181600299C1601030AE
S1130AB010BD01214160C26842F02002C260816819
S1130AC041F0005181607047C268D30658BFC268C4
S1130AD0C36803F00F035B1E02D09B1E012B08D8D2
S1130AE0C26801F01F0142EA0122C26082688918CB
S1130AF081607047FFF7A4BD13460A46194600F00B
S1130B0047B80FB47FB5510038D40E9C099D0D9899
S1130B10A54238BF2C46C10003D40C99A14238BF6A
S1130B200C465CB3102C11D302940BAB81B000F0D3
S1130B3028F808BC08AC94E80700FFF73DFFFFF76E
S1130B4067FFFFF76DFFFFF770FF17E0C00010D5D8
S1130B500026A64212D20B98AA1B042A0168089800
S1130B6028BF0422009169463044FFF7C3FF361DB5
S1130B70EFE7089822461946FFF7BCFF7FBC5DF8F3
S1130B8014FB06CB684606C0196801607047FEE78F
S1130B9062F30F2262F31F42401810F0030308D0DF
S1130BA0C91A1FD3DB0748BF00F8012D28BF20F85E
S1130BB0022D130030B414461546103928BF20E91D
S1130BC03C00FAD8490728BF20E90C0048BF40F888
S1130BD0042D890028BF20F8022D48BF00F8012DFC
S1130BE030BC7047C91818BF00F8012DCB0728BFC7
S1130BF000F8012D7047FEE74368DFF8D820102B7A
S1130C0004D0182B0ED0202B14D01CE01268D30172
S1130C1013D50268DFF8C0309A4216D10A6842F050
S1130C20400218E01268930107D50A6842F00802EE
S1130C300A60EEE713685A0101D4012070470A687C
S1130C4042F00402F4E7072070475B1C9A4205D186
S1130C500A6842F080020A60002141600020704767
S1130C6038B500F014F801D4012032BD00920246D8
S1130C70002108E038B500F00AF801D4012032BDA3
S1130C80009202460121002000F051F832BD0B46CB
S1130C90DFF840100C68E50770477FB500F011F8E5
S1130CA058BF012003D500F004F800F00FF804B099
S1130CB070BD089C029301920091034603940222A2
S1130CC07047DFF8104025686E0770470021002048
S1130CD000F061B80404024C24030020DFF800F0A3
S1130CE01C030020DFF800F0200300207EB56B46D3
S1130CF000240025002683E87000019200916A46D2
S1130D0092E8380080E8380077BD002A00D17047A7
S1130D101CB5049C0094FFF7B5FE16BD80B5009386
S1130D208B6813434A680968FFF7EFFF02BDFCB5FF
S1130D308BB05C6814F00F0F04D11CB1129D6E6867
S1130D40A64201D0072018E0DFF8186196E8805029
S1130D500FF2081454F8211008AC84E8805008AE4F
S1130D6007960696029508AF019308AD41F4807189
S1130D7005940496039700F054F80DB0F0BD069660
S1130D8005960497039602920193009108AB2246BC
S1130D90294600F069B82DE9FC438BB000F022F835
S1130DA045F0300511F00F0F0CD159B1159A566862
S1130DB08E4202BF16994E68102E02BF179E7768A6
S1130DC0102F01D007200AE0DFF898C09CE8004308
S1130DD0079608AF08AE87E80043FFF7D0FF00F09E
S1130DE032B800001C46149B0FF2700555F82150D0
S1130DF002A656F822100D435968704700010000FE
S1130E0000020000000400000008000000100000C0
S1130E1000200000004000000080000000000100ED
S1130E200294009508AB1FE001D007200BE0DFF827
S1130E3034C09CE80043079608AF08AE87E8004337
S1130E40069600F003F80DB0BDE8F083059604970C
S1130E50039601930294009508AB05E0000000009E
S1130E6001000000400000002DE9F24FCEB004461E
S1130E7015469B4604224EA913A8FFF737FF95E8B1
S1130E804C00694681E84C00210003D0022C0CD0B0
S1130E9006D30FE04EA96846FFF7AEFE60B1DBE073
S1130EA04EA96846FFF71AFFF8E74EA96846FFF710
S1130EB019FFF3E70720CFE0599D5B9E0CA895E846
S1130EC00E00DDF868A180E80E005C9970686F6818
S1130ED04E68C0F11000C7F11007861B5D9806F03C
S1130EE00F0607F00F07D0F80480DAF80800C8F1FD
S1130EF0100808F00F08C10006D5DAF80400C01C79
S1130F0080088000CAF80400DDF87891D9F8080058
S1130F10C10006D5D9F80400C01C80088000C9F8B7
S1130F2004005B985C994268486800218218B218F2
S1130F3009A8FFF7DBFEDAF80420002106A800F078
S1130F408EF8D9F80420002103A800F088F80FA82F
S1130F50102100F091F86868002802BF5D99486884
S1130F6000280DD15B994868002802BF5C99486845
S1130F70002805D110220FA90CA81027FFF7B6FEF0
S1130F803AA050F824405F9D4FF0005244F0100303
S1130F9013A92EA8FFF7C2FE44F401634FF00052D8
S1130FA06946FFF7BBFE589944F4205343F01003FD
S1130FB04FF00052FFF7B2FE44F4904343F01003A5
S1130FC04FF000525946FFF7A9FE5B9944F04003E5
S1130FD00022FFF7A3FE44EA06235C994FF0005277
S1130FE043F04003FFF79AFE44EA07234FF0005210
S1130FF00CA9FFF793FE44EA08235D994FF00052D1
S1131000FFF78CFE1038FFF754FD0023002209A9D6
S113101016A8FFF783FE002300225146FFF77EFE49
S11310200023002206A9FFF779FE00230022494687
S1131030FFF774FE0023002203A9FFF76FFE0023CD
S113104000222946FFF76AFE1038FFF732FD16A981
S11310502EA8FFF7F8FC00204FB0BDE8F08FC2F1D6
S1131060100202F00F02FFF741BE00000100000071
S11310700B0000000F000000002200F001B8FEE7A2
S113108000B500BF130096469446103928BFA0E867
S11310900C50FAD85FEA417C28BF0CC048BF40F826
S11310A0042BC90728BF20F8022B48BF00F8012BE6
S11310B000BDFEE77EB56B4600240025002683E8CC
S11310C07000019200916A4692E8380080E8380086
S11310D077BD002A00D170471CB5049C0094FFF72B
S11310E0D1FC16BD2DE9FF4FB7B038AA92E83800FD
S11310F004A981E8380005466E1E9648062E00F2C3
S1131100E980DFE816F007000C00110016001B0050
S1131110200026000168CA0767D501211DE0026886
S1131120910762D5022212E001684A075DD50421C5
S113113013E00268110758D5082208E00168CA06BE
S113114053D5102109E0026891064ED52022019260
S113115004E001684A0648D540210191449C02A953
S11311600022C1E90022012C02D0022C37D067E012
S11311700068C10339D501984FF0030840F4C060FA
S1131180019039926A1E062A58D8DFE802F06826D0
S11311902422200422004026132000904FF0005304
S11311A0042201A90FA8FFF794FF059F069B049949
S11311B0CDF8008043F000533A46FFF763FC4FF04C
S11311C0000BDA46DDF81481DDF8189159E0302679
S11311D0E2E72026E0E71C26DEE71426DCE70168C8
S11311E08A0302D50068C10301D40120AEE0DDF812
S11311F0E480B8F1000F04D0C8F1000808F0030837
S113120006E0042202A904A84FF00408FFF752FFE5
S113121001994FEA082040F0A30841F4E0610191EC
S1131220691E06290AD8DFE801F01A080706050432
S11312300600B0E7CBE7CCE7CDE7CEE70026ABE787
S1131240681E4FF063080628F8D8DFE800F00807A6
S1131250060605050600F1E79DE7BAE7BDE7102697
S11312609AE70C2101FB0BF1032308F10402525805
S1131270414400938B68096892440BF1010BFFF71A
S113128028FFCB45EDD3032C26D1691E06290ED8A1
S1131290DFE801F00B08060604040600402107E01D
S11312A0202105E014213F220FE01021FBE700215B
S11312B06D1E032DF7D92D1F012D02D9AD1EF2D0BD
S11312C001E07F2201E04FF0FF328F4208BF1AEAAB
S11312D0020F01D0072039E0BAF1000F09D1032130
S11312E000910023002202A94FF0040AFFF7CAFB71
S11312F008E01AF0030F1ABF0AF0030ACAF1040A3D
S11313004FF0000AA0F110042046FFF7D2FB51462B
S11313102046FFF7D9FB48983446499B86424799B3
S113132088BF044600200090224607A8FFF7D1FE9C
S1131330002100910023321BFFF7CBFE1038FFF78A
S1131340B8FB07A90FA8FFF77EFB00203BB0BDE860
S1131350F08F00000C04024CFEB586B006A914C937
S113136003AB012514C30C6806A90EAE1C600EC99C
S11313700327029501960097FFF7B4FE09B0F0BD6C
S11313800E48016841F4005101600D48026842F0C2
S113139001020260016841F002010CE007480168A3
S11313A021F40051016006480268520852000260AC
S11313B0016821F00201016000207047688000404C
S11313C0608200402DE9F84199B01D46209B9B01A5
S11313D018B1022819D014D31AE007930224142355
S11313E004930692049E00220892324609A8FFF74D
S11313F027F909AB002003930590FFF7C1FF48B11B
S113140023E0079303242023EAE707930424FAE75D
S11314100F481AE006A8B0E80041EC4603AFACE878
S11314200041006897E80E00CCF800002046FFF762
S113143093FF0446FFF7B2FF34B92846324609A9A0
S1131440FFF7FEF8002000E002481AB0BDE8F08182
S113145080AFFFFF80ADFFFF2DE9F84F83460228E0
S11314601FD8140055D00B9A9846D2F800C0BCF18E
S11314703F0F18D85068002818BF5FEA080A13D134
S1131480BBF1000F04D0BBF1020F07D003D308E077
S11314900FF2B01A08E00FF2CC1A05E00FF2E41ACA
S11314A002E04B4836E0C2460CF03F06A444C6F1C5
S11314B04005C2F800C0A44502D25068401C5060E8
S11314C089460A9F8EB1AC420FD32A46B819FFF75A
S11314D0B7F80120009043463A4651465846FFF774
S11314E071FFC246A944641B00263F2C0BD9A509F1
S11314F0009543464A4651465846FFF763FF09EBB9
S11315008519A4EB851424B122464946B819FFF77E
S113151097F80020BDE8F28F2DE9F843044686B021
S1131520884616461F46200003D0022C30D02DD307
S113153030E01425002100200DF1080C57F820306C
S113154042429200D21D01EBC3010CF8021002A921
S1131550114457F82020C91E52098A7057F82020D8
S1131560520B4A7057F82020520D0A7057F8201079
S1131570401C490F0128E1D93A7802F03F02382A89
S113158034BFC2F13802C2F1780205E01C25D1E76C
S11315902025CFE70E4817E0DDF838900197009634
S11315A04FEA08033FA12046FFF756FF0197009634
S11315B04346082202A92046FFF74EFF2A46414629
S11315C04846FFF73DF8002007B0BDE8F08300006F
S11315D080AFFFFF00281CBF6C21FFF74DBD704793
S11315E00022002902604260CCBF0121002180F862
S11315F06810002070473EB590F86830019000F103
S11316002805002B00F10803009514BF01240224CF
S11316102046FFF721FF3EBD80B5034693F86800DE
S1131620009103F12802002803F1080114BF0120EE
S1131630022003E0D4E70000DDE7EDE7FFF76CFFED
S113164002BD000067452301EFCDAB8998BADCFEEB
S113165010325476C3D2E1F0000000000000000014
S113166000000000C1059ED8367CD5073070DD1718
S1131670F70E5939FFC00B316858151164F98FA75B
S1131680BEFA4FA46A09E667BB67AE853C6EF37287
S1131690A54FF53A510E527F9B05688C1F83D9AB39
S11316A05BE0CD1980000000000000000000000095
S11316B00000000000000000000000000000000026
S11316C00000000000000000000000000000000016
S11316D00000000000000000000000000000000006
S11316E0000000001CB54FF08060134C2060012303
S11316F0042200F025F80021009102E00098401C2B
S1131700009000986428F9DB0123022200F019F804
S1131710002001E00098401C00900098B0F5FA7F8A
S1131720F8DB06490C680123002200F009F804F0F4
S1131730010484F0010016BD6490004044C00340DD
S113174000210120FEF7E0BE10B5494A494C4A4B3E
S11317501B68234207D103408B420DD0521EF6D1A1
S11317606FF0020010BD4548034202D06FF0010043
S113177010BD4FF0FF3010BD002010BD70B5404DBE
S11317806860E8680E46410702D54FF0FF3070BD2F
S113179056F8040B141F02E056F8040B241FA8602B
S11317A044B108210820FFF7CFFF0100F4D0042141
S11317B0296070BD0420286000212120FFF7C4FFA8
S11317C0010004D100212120BDE87040BCE770BDB8
S11317D070B541F671312A4C01222B4BE568E16268
S11317E01A60606002262660002121202D0CFFF77C
S11317F0ABFF05F00105010003D100212120FFF713
S1131800A3FF01211F4A11600DB10021E16270BDE7
S11318102DE9F843184F3D688946144641F6713165
S113182080462D0C39620122174B002005F001057A
S11318301A6009E0324649464046FFF79FFF01001F
S11318400DD1B044B144A41B4CB108F50056760B3D
S11318507603A6EB0806B442ECD22646EAE7012159
S1131860084A11600DB100213962BDE8F28300001D
S113187080969800060001001C000340020001004D
S1131880100003400C2003400C100340C269042ADA
S113189005D200EB8202D160C169491CC161704765
S11318A0F0B50146C869052800D3F0BD4D4A126859
S11318B04FF480304C4B18604C4B4D4CD2031C60A1
S11318C04C4D5D605CBF4C4B186022464B48106029
S11318D00B68002453604A4B05E001EB8400C568A3
S11318E043F82450641CC8698442F6D34868002530
S11318F00BE056F827C07F1C6D1C43F824C0641C01
S1131900D0F808C06745F4D3406810B106680027D2
S1131910F6E7C86945EA006595601168506841407A
S113192090684140002003E053F82020401C5140BF
S1131930A042F9D343F82410BFF34F8F31490A680A
S1131940314802F4E06202430A60BFF34F8F00BFE4
S1131950FDE710B5234802684FF480302249D203D2
S113196008602A4B1968254A5CBF234B1860086835
S1131970904213D10869401DB0F5007F0ED20022B9
S1131980002303E051F823405B1C62408342F9D3F7
S113199051F82000904201D1012010BD002010BD5B
S11319A038B500F00BF85CBF134A106004B910E0BE
S11319B0FFF7CFFF00B90FE0686810E0044609485C
S11319C001684FF48030084AC90310600F4B1D684A
S11319D070474FF4E02032BD4FF4202032BD206028
S11319E0002032BD648000406490004000C607407F
S11319F0004C00A0004E00A064A00040DEC0ECE556
S1131A000C4C00A00CED00E00400FA0504C60740ED
S1131A102DE9F8430E46914680461C46089D099FD1
S1131A204FF40051104A11600223104803604046ED
S1131A3000F03CF83A462946404600F03DF808F1EB
S1131A4024000021016006750C22494608F1390082
S1131A50FEF7F6FD08F14500210C220A01704270E0
S1131A608470BDE8F18300006890004060920040FB
S1131A703EB51C460292019100F12805009500F143
S1131A80380300F12402214600F075F837BD7EB515
S1131A906B4600240025002683E870000192009123
S1131AA06A4692E8380080E8380077BD00281CBFF9
S1131AB02421FFF7E1BA704770B505000C461646BD
S1131AC018BF002C02D16FF0210070BD2421FFF754
S1131AD0D3FA802E1CBFC02EB6F5807F02D06FF0E3
S1131AE01F0070BD2E60F2082146281DFEF7A8FDD8
S1131AF0002070BD012978B515460CBF01260226C9
S1131B00002889B01C4618BF002D00D014B96FF00E
S1131B1021002EE00268802A18BFC02A05D0B2F541
S1131B20807F18BF6FF01F0023D1011DD20806A8C3
S1131B30FFF7ADFF1022294603A8FFF7A8FF1022E4
S1131B4021466846FFF7A3FFFFF71AFC88B9012E68
S1131B506A4603A906A802D1FFF782F801E0FFF75D
S1131B6089F80446FFF71AFC002C14BF6FF0240018
S1131B7000200AB070BD002A2DE9F64F8FB014BFC3
S1131B80146800240190002700288B46B9461CBF26
S1131B901B9D002D09D01C9E002E1EBF5FEA03086A
S1131BA0DDF868A0BAF1000F02D16FF0210060E007
S1131BB00268802A18BFC02A05D0B2F5807F18BFFA
S1131BC06FF01F0055D1011DD2080CA8FFF75FFF6D
S1131BD01022414603A8FFF75AFFCDF808B001E0F0
S1131BE000F04AF8029887423FD2002CF8D1C01B7B
S1131BF000091AD04FEA001B5A46E91909A8FFF751
S1131C0046FF5A46F11906A8FFF741FFFFF7B8FB54
S1131C1078BB03A8009003AB06AA09A90CA8FFF798
S1131C203CF88146FFF7BAFB5F44B9F1000F04D0DA
S1131C306FF024001DE000F01FF80298C01BD1D003
S1131C40002CF8D10198534642460121FFF752FF78
S1131C50002041424144CA7B521CCA73D2B2002ABA
S1131C60E9D1401C0F28F4D9E5E7109800B10460CD
S1131C70002011B0BDE8F08FE95D1AF80400641C7F
S1131C8004F00F044140F1557F1C70477EB56B464C
S1131C9000240025002683E87000019200916A4622
S1131CA092E8380080E8380077BD2DE9F841040057
S1131CB00E46AFB01746984618BF002E06D0002F28
S1131CC018BFB8F1000F01D0369D15B940F201607C
S1131CD046E01FA84021FFF7CFF90FA84021FFF7E6
S1131CE0CBF94FF400502049086003231F480360D8
S1131CF0202231460FA8FEF7A3FC2022394617A85C
S1131D00FEF79EFC202241461FA8FEF799FC2022E4
S1131D10294627A8FEF794FC40221FA90CA8FFF728
S1131D20B5FF40220FA909A8FFF7B0FF20222146E2
S1131D3006A8FFF7ABFF09A80AC803AA0CAC0AC29D
S1131D4003686E4606A81360A0CCA0C6276890E876
S1131D500E000748376000F012F808B140F2046042
S1131D6030B0BDE8F081000068900040609200400F
S1131D700C010000686804EB8401884270477FB559
S1131D8082B000F03BF80446452C28BF01202CD239
S1131D90FFF7F0FF1EBF06226243904207D10B9962
S1131DA0B1EB440F04BF0E99B1EB440F01D00720EF
S1131DB01BE0EB68012221463120FEF70CFD00F008
S1131DC020F80AA8082307C800932346FEF743FD1A
S1131DD000F00DF80A2000900DA907C92346FEF76C
S1131DE03AFDFEF793FD00B1032006B070BD0C2050
S1131DF0009003A907C92346FEF701BD054600F07C
S1131E0008B801260196009695E807002346FEF7D8
S1131E1093BD00697047FEE710B504464FF40051C6
S1131E20064A11600223064803602046FFF7D2FBEE
S1131E3020460021BDE81040FFF7FCBB689000403D
S1131E4060920040FFF7F8BB0146FFF7F6BBFEE7E0
S1131E5070B50823094C2360094B01251D60002639
S1131E605E60DA609D6002E010F8014BDC610A46B6
S1131E70511E002AF8D1186A70BD00BF649000405A
S1131E80048008404FF4017000F0A0B810B5404839
S1131E9000680002000E01280CD13E4801684FF48E
S1131EA080203D4A1060042349033C4C23605CBFFE
S1131EB03B4A10603B484FF4006101604269D1061F
S1131EC0FCD400F0B5F800F07CF800F0BBF800F0AA
S1131ED0BBF818B14FF4017000F078F800F0D4F8B2
S1131EE0044600F09BF9002C19BF40F203708442B1
S1131EF040F2012000F06AF840F2057084421BBFF2
S1131F0040F206718C4240F203204FF4017000F05D
S1131F105DF8002010BD0000234838B50168012495
S1131F2001254A060AD500F06BF840F20221401A56
S1131F3007D0C01E05D0C01E012802D9FFF7D2FB6E
S1131F4008B10024002546F20400016811F1010FD4
S1131F5006D14FF40270BDE8324000F02BB831BD19
S1131F602DB14FF4C04000F003FB0400F1D0002C6D
S1131F70F5D04FF4C0400D49086002461046016890
S1131F8081F3088881F3098840688746FEE70000EA
S1131F900080E00F648000406490004020200140F5
S1131FA064A00040704000409440004008ED00E010
S1131FB0002070474FF0005108804FF20F00488016
S1131FC070474CF23C300B49088070474FF0005189
S1131FD008804FF20F004880BFF34F8F06490A680C
S1131FE0064802F4E06202430A60BFF34F8F00BF69
S1131FF0FDE70000020000200CED00E00400FA05FB
S11320004FF0005148884FF20F02904201D10888E6
S11320107047002804BF0888012802D140F202203A
S113202070474FF4007070474FF0005000887047BD
S1132030002070470020704701790122C01C091D4F
S1132040FEF723B9FEF7A6B880B5A2B0FFF7ECFF00
S1132050B0F5027F07D1684671A18822FEF700FB24
S11320606846FFF7E9FF68468FA18822FEF7F8FA71
S113207028210A680DF10700936803606846FFF79A
S1132080DBFF23B000BD000070B5ADF5267D62A86E
S1132090A7A18822FEF7E4FA0DF13400C6A11022AC
S11320A0FEF7DEFA0DF10800C7A12C22FEF7D8FADC
S11320B0202311AA2CA93EA800F043FC40F60335C6
S11320C040F2022608E0012100228DF88E11ADF8BD
S11320D08F2162A8FFF7B0FF882184A8FEF7CCFF08
S11320E0FEF715F90028FBD04FF47A70009084A80D
S11320F0012301AA0121C01CFEF726F99DF8130251
S11321002028EDD14FF47A710091012301AA032113
S113211085A8FEF719F901980328DDD19DF814422A
S113212074B140F6B830009085A8012301AA214675
S1132130C01CFEF709F90199A14208BF0028CBD1C0
S11321409DF815020028C7D19DF816029DF8173294
S11321500328C1D8DFE800F05403041ABCE7B2E74F
S11321600DA9009186AA02A93EA800F025FC02212F
S113217000288DF88E111CBF41F20701884212BF5E
S1132180ADF88F510022ADF88F21A2E703208DF81E
S11321908E019DF80A0000281CBF9DF80B00002842
S11321A062A81ABF0021ADF88F11ADF88F51FFF767
S11321B043FF9DF80A0000281CBF9DF80B0000286F
S11321C08AD09DF8080041070CD50C9800F034FA29
S11321D020B100F0F3FF00F03DFA7DE73046FFF751
S11321E0F5FE79E78107FCD52820026803989168F9
S11321F0814204D200F0E2FF0B9900F0F9F96BE799
S11322009DF80A0028B19DF80B0010B940F2032094
S1132210E5E7012BE2D040F20120E0E7704700003F
S1132220000000A0020001030B00000000000000F9
S1132230000000000000000000000000000000009A
S1132240000000000000000000000000000000008A
S1132250000000000000000000000000000000007A
S1132260000000000000000000000000000000006A
S1132270000000000000000000000000000000005A
S1132280000000000000000000000000000000004A
S1132290000000000000000000000000000000003A
S11322A00000000000000000000000A00400000086
S11322B0000000000000000000000000000000001A
S11322C0000000000000000000000000000000000A
S11322D000000000000000000000000000000000FA
S11322E000000000000000000000000000000000EA
S11322F000000000000000000000000000000000DA
S113230000000000000000000000000000000000C9
S113231000000000000000000000000000000000B9
S113232000000000000000000000000000000000A9
S11323300000002002000000000000000000000077
S11323400000000000000000000000000000000089
S11323500000000000000000000000000000000079
S11323600000000000000000000000000000000069
S11323700000000000000000000000000000000059
S11323800000000000000000000000000000000049
S11323900000000000000000000000000000000039
S11323A00000000000000000000000000000000029
S11323B000000000000000000000000009250000EB
S11323C0000000003125000000FF000000000000B4
S11323D000000000000000000000000000000000F9
S11323E000000000000000000000000000000000E9
S11323F000000000F8B50446600B0D461646B4EB29
S1132400403004BF204600F0FBFE04F500577F0B6C
S11324107F0304E0384600F0F3FE07F50057301957
S11324208742F7D3324629462046BDE8F84000F0FB
S1132430F6BE38B504460D4600F010F850B1606998
S1132440012805D1207C022802D2A069286002E07C
S1132450002032BD2C60012032BD00007FB504464F
S11324604FEA0D0087A11022FEF7FAF80020464239
S11324700DEB0605E97B225C914205D1401C102836
S1132480F5D3012004B070BD0020FBE7F0B59DB08A
S11324900446666B00F08FFE07463046FFF7DEFF0A
S11324A080B3307C02280ED201A93046FFF7C1FF69
S11324B040B301983969884228BFA04203D301463A
S11324C05B48814201D300201CE002A8FFF7A4FC72
S11324D001982146021B02A8FFF7B4FC02A8FFF7EB
S11324E0B3FC019CFEF764F90546FEF75FF9019918
S11324F0203403460095224602A8FFF7D6FB401E6F
S11325008041C00F1DB0F0BD70B504460D4616469F
S113251000F051FE01698C4222BF40693219904299
S113252005D3324629462046BDE8704062E770BDB7
S11325302DE9F04104468846164600F03CFE074665
S113254000F03CFE25187019394988420ED23CB976
S113255000F034FE796988423CBF386900F050FECF
S1132560324641462846BDE8F04143E7BDE8F081E4
S1132570F8B5044625686768666B00F01CFE05F133
S1132580604548F201018D4229D20069874226D371
S113259027498F4223D24030864201D38E4205D34D
S11325A0FFF706FD401E8041C00FF2BDFFF700FD9E
S11325B0B8B93046FFF752FFB8B1307C02280ED2CA
S11325C0706990B102280CD1B0694FF0FF32001D40
S11325D0011B2046FFF73CFC1649884205D0002029
S11325E0F2BD2046BDE8F24050E70120F2BD0000F4
S11325F038B588B004460D464FF0FF32FFF728FC8B
S11326000C4B984210D140F20220FFF7D3FC6846ED
S113261020A12022FEF724F800F030F8294600F02B
S11326202EF86846FFF73CF9002009B030BD0000E1
S113263001000800E320BBDE1CB504466846FFF732
S1132640AFF908B1002016BD0098A0428041C00F28
S113265016BD000010B5044688B040F20220FFF712
S1132660A9FC684613A12022FDF7FAFF00F006F842
S11326706846FFF715F9002008B010BD21466846EA
S1132680FFF704B9B814B6F1E0CFF3ADB7DD25C94F
S1132690FA79B713010006430000000000000000AF
S11326A00000000000000000000000000000000026
S11326B000000000000003430000000000000000D0
S11326C00000000000000000000000000000000006
S11326D0000000002DE9F8431E467368002B4ED01D
S11326E00C4614F0030118BF41F2020048D115460C
S11326F0074600F05CFD396E001D6A18824221D342
S113270000F1180399421DD28C46844505EB01085B
S113271000F1180238BF84469045ACEB0101ACEBE4
S1132720000088BF904604EB0109A8EB0C0838446C
S1132730424649466830FDF783FFFF22414648463A
S1132740FEF726FA00F03AFD396E001D884222BFDA
S11327506A18031D9A4209D3411A6018026807F1E6
S113276080010A60FF220421FEF712FA2146336831
S1132770386E74682A46A047386E2D183D660020CE
S1132780BDE8F28370B54B688C689C4206D200F1B8
S113279040021B1B14781B19412B01D3002070BD70
S11327A00D6853781478E4188B6804F03F04EE5CE9
S11327B006558C68641C8C6013785B1C13708C68E1
S11327C04B689C42ECD3012070BD90F840004A68ED
S11327D089681018401A70472DE9F0410C461746D5
S11327E01D468046FFF7F1FF08F14006A84206D2D5
S11327F021464046FFF7C6FF10B300204DE00021FC
S11328000CE0707818F800207A5473783078491CFA
S11328105B1C03F03F03421E73703270307808B1C2
S1132820A942EED3A0686268904238BFA9420CD294
S11328302368185C7854A268491C521CA260F1E712
S11328401420B07141F2020027E0A942F8D1B26C21
S1132850069C29463846FFF7FBFAB06424B1F068B9
S11328602A463946FFF7EEFA079838B1F07878B17E
S1132870B0682B463A463946FFF7FAF8F07838B193
S1132880B169F06928188842F06124BF0020F07013
S113289070692D18756141F20300BDE8F081F8B547
S11328A084B014460026054601960096082302AA21
S11328B0FFF792FF41F20306B0423BD195F8430083
S11328C005F1480738B100F037F83868082302AA40
S11328D002A9FFF7CDF89DF80A209DF80B009DF89A
S11328E00910120442EA00629DF8080042EA01223B
S11328F0024322609DF80E009DF80F1000F049FC81
S11329009DF80D1040EA01209DF80C10084360600A
S113291095F8430048B9DFF824188A421CBFDFF851
S11329202008824201D000F007F860680021F960B5
S1132930B860304605B0F0BD7868082202A9FFF7F8
S113294081BAF8B5064606F1400700200D46B87175
S11329507870F870387100214FF0FF3014463970E8
S1132960797103F02003B86439627962BB70FF2285
S1132970182106F16800FEF70BF9FF22042106F185
S11329808000FEF705F9FF22042106F18400FEF71A
S1132990FFF8BD60FC6000F008FC00B11DB100F060
S11329A002FC18B114B941F20B00F2BD14B1F8687D
S11329B0FFF732FA0020F2BD2DE9FB4F82460021D9
S11329C0002300249AB005A880E81A0005921C9AF6
S11329D0269D099106920AF148060AF1420710E081
S11329E000F0C6FB0899884235D104980021F160B3
S11329F0B0600398DFF84C17884240F03F81022210
S1132A003A7107981C99884280F0DD8241F20302F2
S1132A10089239790DF128081429F2D8DFE811F069
S1132A2016001700D7022E0169036B03F10250014F
S1132A306B034B016B0316036B034B012E02D00295
S1132A406E03A402A702DF01D002DAE7C8E700F0B0
S1132A508FFB0899884240F0B782B87820B1039878
S1132A60DFF8DC16884246E03A78D1074DD578780D
S1132A7000284AD10398DFF8CC1688421CBFDFF83F
S1132A80C816884225D0DFF8C41688421FBFDFF875
S1132A90C0168842DFF8BC1688421AD0DFF8B81690
S1132AA0884222D0DFF8941688426BD0DFF8AC1647
S1132AB0884213D0DFF8A81688420DD0DFF88016BC
S1132AC0884215D0DFF89C1688421CBFDFF89816A0
S1132AD0884200F0D38010E0102291E71120387171
S1132AE0B1680020706131618BE7142139716CE0A9
S1132AF000F059FB002843D13EE01420387103A8AC
S1132B0000F0A6FB002860D005E30398DFF8381630
S1132B1088421CD0DFF8341688421DD0DFF8301606
S1132B20884216D0DFF82C16884218D0DFF80C162D
S1132B30884223D0DFF80816884216D0DFF824161E
S1132B40884210D0DFF8201688420AD01CE00B22FD
S1132B5056E70420387154E70621397151E70720FC
S1132B60F8E70921F9E70D20F4E700F01CFB002841
S1132B7004BF7878002803D10E21EEE77878002886
S1132B8040F07C801221E8E703A800F061FBA8B1C3
S1132B900398132170643971039800F05BFB09906A
S1132BA038788106DAD5099800281CBF41680029C5
S1132BB0D4D0504688470028D0D0ACE2787814218D
S1132BC0397110B141F20400FEE141F20800FBE169
S1132BD098F8050098F8041041EA00210291C90709
S1132BE004D5387840F00100387002E000F0DDFAD6
S1132BF040B900F0D8FA002800F0EB810298C10532
S1132C0000F1E7811420387141F20A00DCE1F9781F
S1132C100520387141F00101F9700020F061F0687D
S1132C20082880F0748201210191009100F0B5FA26
S1132C3008998842EAD1207840F00200207098F880
S1132C40020098F803109DF8282000F0A2FA98F8E2
S1132C50011040EA012010436060B06808386062E7
S1132C6098F8060098F8071098F8042000F091FAF4
S1132C7098F8051040EA01201043C8D01420387198
S1132C8049E2012000F07DFA08998842BED198F803
S1132C90021098F803009DF82820090441EA006115
S1132CA098F8010041EA002111430291B068052817
S1132CB024BF0298B061F0680428E2D30A214CE7EB
S1132CC00020F061082148E72B6842460AA9F06910
S1132CD0E047F0694044F061B068F168814280F0F7
S1132CE01382A0EB0108B8F1040F05A9504608D3DC
S1132CF0FFF76BFD042808D205A95046FFF742FDF3
S1132D0061E1FFF762FD4045F6D3B8F1410F05A933
S1132D10504628BF4FF04008FFF757FD404502D208
S1132D2000F02BFA8046B8F1040F0AAA05A924BFC3
S1132D304FEA98004FEA8008012001900090434632
S1132D4000F024FA0899884240F03E813879082836
S1132D5004D1D5F808C0BCF1000FB5D1C8F1040BFB
S1132D60B8F1040F06D20AA8FF2259464044FDF7E1
S1132D700FFFD84439790A2906D12B4642460AA9BD
S1132D805046FFF7A7FCA7E7052918D199F80100D9
S1132D90820714D5E86890B1F069052818D208EBC9
S1132DA00001072914D30AA9091D081A01680AF1A8
S1132DB084021160FF220421FDF7EAFE08E00C29D9
S1132DC08AD199F80100410786D5E868002883D0A4
S1132DD02B6842460AA9F069D5F80CC078E739781F
S1132DE0880640F19681706C00F034FA099000284E
S1132DF040F08F818FE14FF0010900F0BEF94845A2
S1132E0082D3B068F168A0EB0109B9F1410F05A9BB
S1132E10504628BF4FF04009FFF7D7FC814502D345
S1132E2000F0ABF981460120019000904B4600F080
S1132E30ABF9089988422FD1387881060DD5002C3A
S1132E401CBFD4F808C0BCF1000FD3D02B464A46AF
S1132E500AA95046E04700281ED1F068B1688842AC
S1132E6080F05C8138788106C5D5002C1CBF2169AF
S1132E700029C0D0504688478146BEE7002000F0B4
S1132E8080F90899884207D1306CB849884204D047
S1132E9014223A7141F2050096E000F084F918B961
S1132EA01B990120C87003E01B99C87800283FD003
S1132EB0F87810F0030F1CBFEC68002C05D02B68C9
S1132EC004220AF184010420A047B06900281CBF31
S1132ED0686800282CD04FF0FF3102910AF1800479
S1132EE00422214602A800F0B7F940B100F066F9C7
S1132EF028B121462B686C680422001DA0470422D7
S1132F000AF1680102A800F0A7F988B100F04FF9AE
S1132F102B686C6814220AF16C010830A04700F099
S1132F2046F92B686C6804220AF16801001DA04769
S1132F301B99012088700F20387144E00020012182
S1132F4001900091102300F01FF9089988423BD1A9
S1132F50FDF730FC009080210191306801230BAA19
S1132F600221FEF755FDCBE00120787026E0B87809
S1132F7020BB002101910090402300F005F908993D
S1132F80884221D17068FEF75FFFFDF711FC04460B
S1132F90FDF70CFC00940346706812AA0AA9FEF718
S1132FA084FE38B11B990020C8701420387141F296
S1132FB0060009E01B990120C870B8700121CCE516
S1132FC041F2070000E000201DB0BDE8F08FDDF8FD
S1132FD06C90F068082819D200210120019100901A
S1132FE000F0DBF808998842EED198F80300000657
S1132FF0B0F1407F3FF4ECAD1420387141F2090088
S1133000E2E7DDF86C90B368F06898427CD2012165
S11330100191009100F0B8F808998842D4D11C229B
S11330200AA909F10800FDF71BFB99F8000040F01C
S1133030010089F8000009F1080000F0C2F8002836
S1133040E1D11420387141F20C00BDE71B9CF068FB
S113305008285CD201210191009108230CAA00F0F8
S113306094F808998842AFD1207840F00400207089
S113307098F80E0098F80F1098F80C2000F089F8D2
S113308098F80D1040EA01201043A06260784107CF
S11330902CD5EB208DF82800A620172188F80200F3
S11330A088F801100AF150005E2188F803100268C4
S11330B00AF184010A600022F261F87840F002000B
S11330C0F870D5F80CC0BCF1000F0FD02B680422A7
S11330D00AA90020E047F0692B68D5F80CC0082243
S11330E00CA90830E047F0691030F0610C20387109
S11330F0ADE71B9C93E5DDF86C90EDE5DDF86C9095
S1133100F0681028FFF41AAFCDF86C9056E71B94C2
S113311077E4099CA1E641F2010055E70994387867
S11331208106F3D5002C1CBFE268002A04D029468E
S1133130504690470028F0D140E70000F70A0AF70C
S1133140FC0404FCEB17A603EB17A65EF40A0AF4CE
S1133150F50909F5F60808F6F70909F7F90707F973
S1133160FA0606FAFD0303FDFE0101FEE320BBDEC1
S113317003AA05A95046FFF792BB05A95046FFF7DD
S113318024BB0190009004230AAA05A95046FFF726
S113319023BB000440EA0160704708230AAA05A97A
S11331A05046FFF719BB00207047002070472820C5
S11331B00168086970472820006870474FF4004090
S11331C070470120704730B4002513E050F8042BF9
S11331D0D30744BFA9F101039A18091F042942F82F
S11331E0045BFAD213468C0744BF15809B1CC907A5
S11331F048BF1D7050F8041B0029E7D130BC70474C
S113320080B500F007F8FEF7E3FAFFE7401E8041BF
S1133210C00F02BD4FF400310C4A1160704710F02A
S1133220030F10B508BF12F0030F01D0002010BD2A
S11332300AB9012010BD4FF40033044C2360FEF79B
S1133240E7FA401E8041C00F10BD000068900040A6
S113325000207047002070470300002013F0030F84
S113326009D0521E22BF13F8010B11F801CBB0EBA9
S11332700C00F3D07047121F22BF53F8040B51F80F
S113328004CB6045F7D0121D0AD200BA9CFA8CFC1C
S1133290B0EB0C0038BF6FF0000088BF012070470E
S11332A0521E22BF13F8010B11F801CBB0EB0C0036
S11332B0F6D0521C08BF1046704700000448054968
S11332C008600548026842F470020260704700001A
S11332D00000000008ED00E088ED00E04EF68851A3
S11332E0CEF20001086840F470000860BFF34F8F0D
S11332F0BFF36F8F4FF00070E1EE100A70470000CB
S113330000F00DF8002801D000F00CF8AFF30080B5
S11333100020AFF30080FEF7B9FD00F017F801209C
S11333207047000010B5074979441831064C7C44B5
S1133330163404E00A68081D114488470146A14276
S1133340F8D110BDE80000000401000000F000B84E
S11333500746384600F002F8FBE700002021090385
S113336026311820ABBEF9E780B5FFF7A7FFFEF7BB
S1133370D3FDBDE8014000F000B8AFF30080FFF7D3
S1133380ADFFFFF7BDFF10B50446B1F5C07F02D213
S113339040F2052010BD4FF4C071FDF76DFE002012
S11333A0607004F5827204F1BC0104F12C00002366
S11333B0BDE81040FFF7C5BA1CB50446009121468C
S11333C004F12C00FFF7F8FA0028C4F87C011CBFB4
S11333D041F2070188420BD1A07838B1E07810B1EE
S11333E040F2032016BD40F2022016BD40F2012037
S11333F016BD30B5016884684218416802EB510378
S1133400C9070BD54C4409E012F9011B12F8015B02
S1133410002904F8015B05D5491CF9D19A42F3D17E
S11334200C3030BD491EF1D5F8E700009BFDFFFFCD
S1133430180200001001002000000000B7FFFFFF89
S11334400C000000240000008000002081000C001B
S1133450F07F1030800000203C000640FC0000009B
S10734600000000064
S903337B4E
