S0290000626F6F746C6F616465722D73746F726167652D696E7465726E616C2D73696E676C652E73333745
S113000080100020B926000013050000F10D000047
S11300108B0500000F0600004306000000000000EE
S1130020000000000000000058000000170B000052
S11300301718000014010000BF2400008B250000E5
S11300404546523332000000010000000100000068
S11300500040080000A0070007B0CD5E01000000CA
S113006000000A01E026000000400000000010002B
S1130070F0000100950F0000990F0000231200000A
S113008053240000852400005401000001000000F6
S1130090000000000000000000000000000000005C
S11300A0000000000000000000000000000000004C
S11300B0000000000000000000000000000000003C
S11300C0000000000000000000000000000000002C
S11300D0000000000000000000000000000000001C
S11300E0000000000000000000000000000000000C
S11300F000000000000000000000000000000000FC
S113010000000000000000000000000000000000EB
S11301100000000013B779FAC925DDB7ADF3CFE0CD
S1130120F1B614B80101000000000000DC26000054
S11301304000000000000A01000000000000000070
S11301400000000000000000000000008C0000001F
S11301500000000000010000A1140000F7140000DA
S1130160251500004315000089150000B525000081
S11301709B250000CB250000A9150000D115000027
S11301802D160000210A00002B0A0000490A000075
S11301907F0A000000207047002070470048704725
S11301A086E20F0000281CBF242100F0AFB970477D
S11301B070B505000C46164618BF002C02D16FF02E
S11301C0210070BD242100F0A1F9802E1CBFC02E97
S11301D0B6F5807F02D06FF01F0070BD2E60F2086C
S11301E02146281D00F096F9002070BD2DE9F8473E
S11301F00600144691B00F461D4618BF002C00D0CF
S113020015B96FF0210055E03068802818BFC02868
S113021005D0B0F5807F18BF6FF01F004AD109A840
S1130220202100F073F9012F0FF2602191E88C0076
S11302300CBFDFF84C02DFF84C020990684680E8F6
S11302408C00301D009030680FF24C2206A9C008C3
S113025040F00050029092E8884009A881E8884064
S11302600FF24021069491E8000703AC694684E844
S11302700007039500F08AF906A909A800F086F999
S113028003A909A800F08CF9316809A800F01EF848
S1130290102109A800F08EF900F0B5F950B909A8A9
S11302A000F092F900F009F804F47024002C0CBF5B
S11302B00020204612B0BDE8F087DFF8CC010168C9
S11302C0C902FCD5046900F0A0B911A8C90800F05E
S11302D071B90000002A2DE9F64F99B014BF1468D3
S11302E000240026002800904FF0000A1FBFDDF80C
S11302F09480B8F1000FDDF89890B9F1000F04D0A4
S11303001D001CBF249F002F02D16FF0210099E033
S11303100068019180281CBFC028B0F5807F04D0FC
S11303206FF01F008EE000F090F80198824580F095
S11303308280002CF7D1A0EB0A005FEA101B5DD08D
S113034063A611A85AA1202200F0F4F896E80E0042
S113035008A84FEA0B1B80E80E000099081D0890BE
S113036000990BA80A680EA9D20842F000520A921A
S11303705AA292E8484081E848400E955AA191E873
S11303804C000DF1140E80E84C000B9559A090E838
S11303900E0008EB0A008EE80E0005904BF00051A9
S11303A0079100BF56A393E8414002AA09EB0A0350
S11303B082E8414000F059F80EA900F059F805A967
S11303C000F056F800F04DF80BA900F04BF8009837
S11303D00168FFF77AFF594611A800F0EBF800F026
S11303E012F900282ED111A800F0EEF800F043F81D
S11303F0066900F00AF9DA4406F4702616B120E022
S113040000F023F80198B0EB0A008ED0002CF7D14D
S113041000983B462A460121FFF7E8FE00204142AE
S11304202944CA7B521CCA73D2B2002AE8D1401CA8
S11304300F28F4D9E4E71A9800B104600EB900203B
S113044000E030461BB0BDE8F08F18F80A10385DA4
S1130450641C04F00F04414009F80A100AF1010A6F
S1130460704702A911A800F09BB80293049108A94F
S113047011A800F08BB804480168C902FCD5704784
S113048000010004000101044400004C00000000CD
S11304900100000000000000000000000100000056
S11304A010000020000000000100000010000020E7
S11304B0030300040000000000000000000000002E
S11304C00000000000000000000000000000000028
S11304D00000000001000000000000000000000017
S11304E001000000100000200000000001000000D6
S11304F010000020000000000100000000000000C7
S1130500000000000100000000000000002200F0D4
S11305107FB8FEE762B38B0708D0521E11F8013B87
S113052000F8013B00F024808B07F6D1830740F0EC
S1130530208000BF103A07D330B4B1E83810103A25
S1130540A0E83810F9D230BC530724BFB1E8081032
S1130550A0E8081044BF51F8043B40F8043BD2071C
S113056024BF31F8022B20F8022B44BF0B78037010
S11305707047083A07D3B1E80810083A40F8043B3A
S113058040F804CBF7D25307E4E7FEE7426812B918
S113059041607047526850680128FBD15160704730
S11305A0826812B981607047526850680128FBD193
S11305B051607047C269042A05D200EB8202D160FF
S11305C0C169491CC161704710B5C169042909D9C1
S11305D010BD00EB8203DC68521C0C60C3699A42B4
S11305E0F7D310BD4FF098410A6CD302FAD5C26913
S11305F0121D92000A6502680A6043680B608268F3
S11306000A600022EAE70020704700207047FEE7F6
S113061000B500BF130096469446103928BFA0E8E1
S11306200C50FAD85FEA417C28BF0CC048BF40F8A0
S1130630042BC90728BF20F8022B48BF00F8012B60
S113064000BDFEE72DE9F84791B006460D469146F8
S11306501F461A9C0DF124003BA12022FFF76AFFDC
S113066041A393E807000DF1180A03AB8AE80700D9
S1130670CDF818903FA090E8004600BF40A269461C
S113068083E80046039592E8280181E82801009751
S11306901EB1022E33D021D336E00998A10140F4D3
S11306A00070099009A8FFF785FF00F047F840F0B3
S11306B014000590029840F01400029003A909A8C0
S11306C0FFF764FF06A909A8FFF760FF694609A8B8
S11306D0FFF766FFFFF797FFC0B126E00998A10175
S11306E040F44070099009A8FFF764FF00F026F871
S11306F040F020000590029840F02000DDE70998C2
S1130700A10140F48060EDE709480EE009A8FFF775
S11307105BFF08480168C902FCD50469FFF775FF4F
S113072014F4702F0CBF0020034812B0BDE8F0870A
S113073080AFFFFF4400004C80ADFFFF089840EA03
S11307408414089405987047000001030000000019
S11307500000000000000000000000000000000095
S11307600000000000000000000000000100000084
S11307700000002000000000010000000000002034
S11307800000000001000000000000202DE9F84FE7
S1130790834602281FD8140055D00B9A9846D2F8E5
S11307A000C0BCF13F0F18D85068002818BF5FEA9A
S11307B0080A13D1BBF1000F04D0BBF1020F07D01C
S11307C003D308E00FF2B01A08E00FF2CC1A05E0E8
S11307D00FF2E41A02E04B4836E0C2460CF03F0642
S11307E0A444C6F14005C2F800C0A44502D2506832
S11307F0401C506089460A9F8EB1AC420FD32A46F2
S1130800B819FFF787FE0120009043463A46514647
S11308105846FFF717FFC246A944641B00263F2C25
S11308200BD9A509009543464A4651465846FFF759
S113083009FF09EB8519A4EB851424B12246494626
S1130840B819FFF767FE0020BDE8F28F2DE9F843E1
S1130850044686B0884616461F46200003D0022C64
S113086030D02DD330E01425002100200DF1080CE8
S113087057F8203042429200D21D01EBC3010CF81C
S1130880021002A9114457F82020C91E52098A7087
S113089057F82020520B4A7057F82020520D0A7046
S11308A057F82010401C490F0128E1D93A7802F08A
S11308B03F02382A34BFC2F13802C2F1780205E09F
S11308C01C25D1E72025CFE70E4817E0DDF8389046
S11308D0019700964FEA08033FA12046FFF756FF11
S11308E0019700964346082202A92046FFF74EFFCF
S11308F02A4641464846FFF70DFE002007B0BDE8F2
S1130900F083000080AFFFFF00281CBF6C21FFF7BD
S1130910FDBD70470022002902604260CCBF012166
S1130920002180F86810002070473EB590F86830C8
S1130930019000F12805002B00F10803009514BF75
S1130940012402242046FFF721FF3EBD80B5034663
S113095093F86800009103F12802002803F10801CC
S113096014BF0120022003E0D4E70000DDE7EDE737
S1130970FFF76CFF02BD000067452301EFCDAB8993
S113098098BADCFE10325476C3D2E1F000000000C5
S11309900000000000000000C1059ED8367CD50789
S11309A03070DD17F70E5939FFC00B316858151137
S11309B064F98FA7BEFA4FA46A09E667BB67AE85E0
S11309C03C6EF372A54FF53A510E527F9B05688C2D
S11309D01F83D9AB5BE0CD1980000000000000004C
S11309E00000000000000000000000000000000003
S11309F000000000000000000000000000000000F3
S1130A0000000000000000000000000000000000E2
S1130A1000000000000000002CA070470020704778
S1130A202748006800F00100704710B50B46111804
S1130A30244CA14205D201461846FFF76BFD002065
S1130A4010BD40F2024010BD38B513181D4D40F2E0
S1130A500244AB420BD2002300E01B1D934208D298
S1130A601D5815F1010FF8D040F2034032BD204665
S1130A7032BD00F041F80028F9D0002032BD70B535
S1130A8005460C46E00401D1E90402D040F20440DA
S1130A9070BD60190B4940F20246884203D300E05E
S1130AA008B9304670BD284600F01EF805F500551B
S1130AB0B4F50054F4D10028F3D0002070BD000038
S1130AC01C000340010010000020704701020300D5
S1130AD02800000028000000002000000000100092
S1130AE0400000000400000080B500F059F8FFE762
S1130AF0401E8041C00F02BD10F0030F80B508BF37
S1130B0012F0030F01D0002002BD0AB9012002BD7A
S1130B1000F066F8ECE7FEE710B5494A494C4A4B49
S1130B201B68234207D103408B420DD0521EF6D1DD
S1130B306FF0020010BD4548034202D06FF001007F
S1130B4010BD4FF0FF3010BD002010BD70B5404DFA
S1130B506860E8680E46410702D54FF0FF3070BD6B
S1130B6056F8040B141F02E056F8040B241FA86067
S1130B7044B108210820FFF7CFFF0100F4D004217D
S1130B80296070BD0420286000212120FFF7C4FFE4
S1130B90010004D100212120BDE87040BCE770BDF4
S1130BA070B541F671312A4C01222B4BE568E162A4
S1130BB01A60606002262660002121202D0CFFF7B8
S1130BC0ABFF05F00105010003D100212120FFF74F
S1130BD0A3FF01211F4A11600DB10021E16270BD24
S1130BE02DE9F843184F3D688946144641F67131A2
S1130BF080462D0C39620122174B002005F00105B7
S1130C001A6009E0324649464046FFF79FFF01005B
S1130C100DD1B044B144A41B4CB108F50056760B79
S1130C207603A6EB0806B442ECD22646EAE7012195
S1130C30084A11600DB100213962BDE8F283000059
S1130C4080969800060001001C0003400200010089
S1130C50100003400C2003400C10034005490968B0
S1130C608A0902F03F0201F03F0382704370090BCE
S1130C700170704714C007402DE9F04F5FEA000887
S1130C800E4697B017461D4618BF002E00D017B960
S1130C9040F201605DE0209C002D0FA833A116BF37
S1130CA0002CDFF8B490DFF8B4902022FFF742FC68
S1130CB049460FA8FFF77EFC20210FA8FFF77AFC16
S1130CC032A292E808500CA9002D81E808500C9536
S1130CD031A191E8010C0DF1240918BF002C89E819
S1130CE0010C099405D00CA900F03CF809A900F006
S1130CF039F800BF2BA191E81C0006A806A980E8DA
S1130D001C00CDF8188000F02DF800BF28A191E850
S1130D101C0003A86D4680E81C00039627A696E8ED
S1130D20004303A90FA885E800430097FFF72EFCB2
S1130D30694600F017F80FA8FFF746FC0848016859
S1130D40C902FCD5006910F4702F0CBF002040F2DA
S1130D50046017B0BDE8F08F1F24FC841F240080BA
S1130D604400004C0FA8FFF711BC0000000001066E
S1130D70000000000000000000000000000000006F
S1130D80000000000000000000000000000000005F
S1130D90010000002000002000000000010000000D
S1130DA020000020000000000100000020000020BE
S1130DB000000000010000002000002000000000EE
S1130DC0010000002000002030B5084B01241C6005
S1130DD000255D60DA609C6002E010F8014BDC6184
S1130DE00A46511E002AF8D1186A30BD0480084012
S1130DF04FF4017000F0A0B880B56846FFF72EFFED
S1130E004148816ACA0311D441686FF3162141F441
S1130E10B81141F405414160016821F4704141F485
S1130E2040410160026842F4E06202609DF8010002
S1130E30012804BF9DF80000002807D14FF000519D
S1130E4006200A6801F58041401EFAD12F48016846
S1130E5041F00301016000F09DF800F068F800F033
S1130E609DF848B940F2012000F066F84FF4017093
S1130E7000F062F8002002BD254901E00099491EF6
S1130E80009100990129F9DA40F205429042EDD12E
S1130E9040F20320ECE700001E4838B50168012445
S1130EA001254A060CD500F061F840F20221401AEF
S1130EB004D0C01E02D0C01E012801D80024002581
S1130EC044F20400016811F1010F06D14FF40270DD
S1130ED0BDE8324000F024B831BD2DB14FF480405C
S1130EE000F09FF90400F1D0002CF5D04FF48040BD
S1130EF00949086002461046016881F3088881F3B5
S1130F00098840688746FEE730C000408080004082
S1130F1000350C009440004008ED00E000207047CC
S1130F204FF0005108804FF20F00488070474CF298
S1130F303C300B49088070474FF0005108804FF255
S1130F400F004880BFF34F8F06490A68064802F431
S1130F50E06202430A60BFF34F8F00BFFDE7000069
S1130F60020000200CED00E00400FA054FF00051EF
S1130F7048884FF20F02904201D108887047002838
S1130F8004BF0888012802D140F2022070474FF4C0
S1130F9000707047FFF742BDFFF796BD18B5ADF579
S1130FA0037D4FF403726946002000F0FDFA00212E
S1130FB0684600F00DFB40F201218842F7D040F270
S1130FC0032240F20544904234D19DF8000000F021
S1130FD0030002282ED09DF8000041070CD50A9882
S1130FE000F096F940B17F9800F086FB20B100F044
S1130FF0FEFB00F0BDF9E8B19DF8000081070FD5B4
S113100028200268019993688B4209D27F9800F0E6
S113101085FB78B100F0EBFB099900F041F909E098
S11310209DF80000C10705D503997F9800F09CFB4B
S113103000B1002420460DF5047D10BDF8B504462A
S1131040600B0D461646B4EB403004BF2046FFF754
S11310504BFD04F500577F0B7F0304E03846FFF790
S113106043FD07F5005730198742F7D33246294626
S11310702046BDE8F840FFF73FBD38B504460D46AD
S113108000F00FF850B16069012805D1207C0228D6
S113109002D2A069286002E0002032BD2C60012049
S11310A032BD7FB5044668460FF238311022FFF78F
S11310B041FA002046420DEB0605E97B225C914291
S11310C005D1401C1028F5D3012004B070BD0020C8
S11310D0FBE72DE9F042B8B007467E6B00F084FBD5
S11310E081463046FFF7DDFF002863D0306900F009
S11310F0FF01022938D2010604D0000A1CBFB56BD7
S1131100002D06D1002401A93046FFF7B6FF00BB2D
S113111050E000214A6B686C0124916B4A6C904248
S113112022D302A800F068FB4822294602A800F056
S11311306DFB02A800F06CFB00200090002305F179
S1131140680205F1480102A8FFF796FD0028DAD0ED
S11311500AE00198D9F81010884228BFB84203D396
S113116001469848814201D3002023E01DA800F0E5
S113117043FB01983946C21B1DA800F047FB1DA87C
S113118000F046FB019D20352CB1B06B00F1240129
S11311900091031D06E0FEF7FFFF0446FEF7FAFF89
S11311A00346009401992A461DA8FFF765FD401ED9
S11311B08041C00F38B0BDE8F08270B504460D46DA
S11311C0164600F011FB01698C4222BF40693219B6
S11311D0904205D3324629462046BDE870402DE7AB
S11311E070BD2DE9F04104468846164600F0FCFA2D
S11311F0074600F0FCFA25187019724988420ED28D
S11312003CB900F0F4FA796988423CBF3869FFF7C9
S11312106BFC324641462846BDE8F0410EE7BDE886
S1131220F081F8B5044625686768666B00F0DCFA5F
S113123005F1604564498D4229D20069874226D36D
S113124060498F4223D24030864201D38E4205D377
S1131250FFF764FE401E8041C00FF2BDFFF75EFE43
S1131260B8B93046FFF71DFFB8B1307C02280ED262
S1131270706990B102280CD1B0694FF0FF32001DA3
S1131280011B2046FFF7A0FD5049884205D00020ED
S1131290F2BD2046BDE8F2401BE70120F2BD00008C
S11312A070B590B004460D464FF0FF32FFF78CFD49
S11312B0464B984213D168464EA100F055F800F011
S11312C08DF8294600F08BF86846FFF77DF9404E0B
S11312D03068C002FCD5306910F4702F02D00020B1
S11312E010B070BD40F20220FFF71AFE0DF120008D
S11312F048A100F039F800F06DF8294600F06BF8C9
S113130008A8FFF761F93068C002FCD53169E6E747
S11313102DE9F8438CB004464FF0FF35009504A83E
S113132044A100F021F800BF4AA696E8800301AD6D
S113133001A985E88003CDF804D004A8FFF730F9AB
S113134004A8FFF741F922480168C902FCD50069E5
S113135010F4702F18BF002003D10098A0428041E0
S1131360C00F0DB0BDE8F0832022FFF7E3B8000002
S113137038B590B00446684639A1FFF7F5FF00F090
S11313802DF86846FFF720F9114D2868C002FCD5F6
S1131390286910F4702F11D140F20220FFF7C0FD2C
S11313A00DF1200036A1FFF7DFFF00F013F808A8C5
S11313B0FFF70AF92868C002FCD52969002011B09A
S11313C030BD00000100100001800100E320BBDEFD
S11313D04400004C214608A8FFF7ECB821466846B3
S11313E0FFF7E8B8B814B6F1E0CFF3ADB7DD25C91F
S11313F0FA79B71301000543000000000000000063
S113140000000000000000000000000000000000D8
S1131410000000000100064300000000000000007E
S113142000000000000000000000000000000000B8
S1131430000000000000084300000000000000005D
S11314400000000000000000000000000000000098
S11314500000000000000000010000000400002063
S11314600000024300000000000000000000000033
S11314700000000000000000000000000000000068
S11314800000034300000000000000000000000012
S11314900000000000000000000000000000000048
S11314A010B504000CD04FF480302060002161603E
S11314B03C48027822724068E060FFF7ADFA206190
S11314C010BD78B504460D4604F5FE76A1B0B168AA
S11314D03068802301AA00F025F80095802301AA32
S11314E0214604F12C0000F011FBF060B06880305C
S11314F0B06022B070BD024640F20140002900D124
S1131500704710B5274B5C68A24203D300220A60DF
S11315104A6010BD03EBC20082680A60C06848607C
S1131520002010BD38B500F021F800D326E000F00B
S113153017F800D225E09B68C018BDE83840FFF7D3
S113154074BA38B500F012F800D317E000F008F8C8
S113155000D216E09B68C018BDE83840FFF774BAA3
S113156003EBC403DC681518AC4270470446084614
S113157011461A460B4B5D68AC42704740F201407D
S113158032BD40F2024032BD06494A68904202D35D
S113159040F20140704701EBC000C1688068FFF76A
S11315A06EBA0000480000003EB504460D461146E0
S11315B0284600F04EFF50B969462046FFF79BFFCE
S11315C028B905F5FE7004600199416000203EBD14
S11315D038B584B004460D4668461021FEF796FFE0
S11315E0029504F50075A86888B968682968884276
S11315F00DD269462046FFF764FFA86800281CBF87
S113160041F2070188420BD140F2012008E0A078A2
S113161000281DBFE078002840F2032040F2022099
S113162005B030BD0120187070470000F0B585B0DA
S113163004460D46164600278DF800700DF104008F
S113164055A100F08BF8CDF804D037601C21284652
S1131650FEF75CFF04F500779DF8000080B994F86C
S1131660720014280CD0B86850B978683968884278
S113167006D201A92046FFF724FFEDE705B0F0BD2F
S11316802078810744BF606830602178C80705D599
S11316901C2204F108012846FEF74CFF9DF80010B7
S11316A0002905BF20780028002040F20640E5E725
S11316B070B504460D46202304F5C87204F5A471E0
S11316C004F12C0000F0DFF904F50076B06850B99D
S11316D070683168884206D229462046FFF7F1FE39
S11316E0F4E7002070BDA07800281CBFE078002833
S11316F0F7D0012070BD000000B5ADF5077D00F006
S113170047F808B1002008E004208DF8110068466D
S113171025A100F023F800F024F836E030B5ADF54B
S1131720077D04460D4600F05FF88068A84206D2A3
S11317304FF4037204A92046FFF736FF08B10020D6
S113174009E002208DF811004FEA0D001AA100F003
S113175005F800F006F80DF5077D30BD1022FEF700
S1131760E9BE694604A8A3E700B5ADF5077D00F01E
S11317700FF808B1002008E001208DF81100684638
S113178011A1FFF7EBFFFFF7ECFF0DF5077D00BD9F
S11317904FF4037204A907E70000000025160000B7
S11317A025160000251600000000000000000000BF
S11317B000000000E3110000000000000000000031
S11317C000000000E311000000000000BB11000055
S11317D00000000000000000002070470020704757
S11317E028200168086970472820006870474FF472
S11317F0004070470120704710B50446FFF784F895
S113180020460021BDE81040FFF7AEB8FFF7AEB8A0
S11318100146FFF7ACB8FEE72DE9F8431E467368AE
S1131820002B4ED00C4614F0030118BF41F2020005
S113183048D115460746FFF7D3FF396E001D6A18D5
S1131840824221D300F1180399421DD28C4684456B
S113185005EB010800F1180238BF84469045ACEB53
S11318600101ACEB000088BF904604EB0109A8EB32
S11318700C083844424649466830FEF74BFEFF22C6
S11318804146484600F01CFEFFF7B1FF396E001DCB
S1131890884222BF6A18031D9A4209D3411A60186C
S11318A0026807F180010A60FF22042100F008FEAB
S11318B021463368386E74682A46A047386E2D185E
S11318C03D660020BDE8F28370B54B688C689C428D
S11318D006D200F140021B1B14781B19412B01D3C3
S11318E0002070BD0D6853781478E4188B6804F0F8
S11318F03F04EE5C06558C68641C8C6013785B1C9A
S113190013708C684B689C42ECD3012070BD90F836
S113191040004A6889681018401A70472DE9F04160
S11319200C4617461D468046FFF7F1FF08F14006B6
S1131930A84206D221464046FFF7C6FF10B3002056
S11319404DE000210CE0707818F800207A54737888
S11319503078491C5B1C03F03F03421E73703270E5
S1131960307808B1A942EED3A0686268904238BFCB
S1131970A9420CD22368185C7854A268491C521CF2
S1131980A260F1E71520B07141F2020027E0A942FC
S1131990F8D1B26C069C29463846FFF715FAB064B4
S11319A024B1F0682A463946FFF730FF079838B16A
S11319B0F07878B1B0682B463A46394600F0D6FD47
S11319C0F07838B1B169F06928188842F06124BF11
S11319D00020F07070692D18756141F20300BDE8B4
S11319E0F081F8B584B014460026054601960096A9
S11319F0082302AAFFF792FF41F20306B0423BD14B
S1131A0095F8430005F1480738B100F037F8386815
S1131A10082302AA02A900F0A9FD9DF80A209DF856
S1131A200B009DF80910120442EA00629DF80800B8
S1131A3042EA0122024322609DF80E009DF80F1035
S1131A4000F0E5FC9DF80D1040EA01209DF80C1013
S1131A500843606095F8430048B9DFF858198A4292
S1131A601CBFDFF85409824201D000F007F8606817
S1131A700021F960B860304605B0F0BD78680822EE
S1131A8002A9FFF7C3BEF8B5064606F140070020D9
S1131A900D46B8717870F870387100214FF0FF303E
S1131AA014463970797103F02003B864396279629D
S1131AB0BB70FF22182106F1680000F001FDFF222F
S1131AC0042106F1800000F0FBFCFF22042106F152
S1131AD0840000F0F5FCBD60FC60882106F19000F4
S1131AE000F054FD002086F81801FFF777FE00B1DE
S1131AF01DB1FFF771FE18B114B941F20B00F2BD2C
S1131B0014B1F868FFF778FE0020F2BD2DE9F84F14
S1131B10B4B00746884605A800210023002480E8C5
S1131B201A000592349A089107F14805069209AE05
S1131B307FE0002035B0BDE8F08F012089F8010076
S1131B4089F8040007F1420999F80400152870D8AF
S1131B50DFE810F0C7031700F600DD039C01FD0168
S1131B604501E003FD01F001FD014A01FD01F00121
S1131B70F3031604360316003A030804E6031604B6
S1131B80DBE700F03BFC41F203029042D2D199F82A
S1131B90020030B10398DFF82018884254D10E2295
S1131BA0ADE399F80000C1075CD599F8010000285D
S1131BB058D10398DFF8041888421CBFDFF80018D6
S1131BC088422AD0DFF8FC17884238D0DFF8F817AB
S1131BD088421FBFDFF8F4178842DFF8F417884201
S1131BE01BD0DFF8F017884224D0DFF8C8178842EA
S1131BF000F07E80DFF8E017884213D0DFF8DC17AE
S1131C0088420DD0DFF8B01788421AD0DFF8D01719
S1131C1088421CBFDFF8CC17884200F0788317E0B5
S1131C2010226CE3112089F80400A968002068617F
S1131C30296166E300F0DAFB41F208007AE712203A
S1131C404CE3FFF7C9FD002840F061830E2045E313
S1131C5000F0CCFB03A800F09CFC0028ECD041F27F
S1131C60010067E70398DFF85817884220D0DFF8AF
S1131C705417884232D0DFF8501788421CD0DFF85E
S1131C804C17884216D0DFF84817884216D0DFF880
S1131C902417884228D0DFF82017884214D0DFF8B0
S1131CA0401788420ED0DFF83C17884208D021E064
S1131CB00B2224E3042011E306212EE307200DE385
S1131CC009212AE30D2009E3FFF786FD002804BF5C
S1131CD099F801000028B7D10E211EE399F80100FC
S1131CE00028B1D1122118E399F801000028ABD1E2
S1131CF0132112E303A800F04CFCC0B10398142193
S1131D00686489F80410039800F045FC089099F879
S1131D10000081068DD5089800281CBF4168002961
S1131D2087D038468847002800F0EB8297E799F877
S1131D30010000F05BFB002890D041F20400F9E6BA
S1131D40E868082880F0C9820021012001910090F0
S1131D5000F061FB00F04EFB08D1F0780006B0F112
S1131D60407F04D000F05DFB41F20900E2E67079A7
S1131D70317941EA00210291C90706D599F800009A
S1131D8040F0010089F8000002E0FFF727FD30B9B8
S1131D90FFF722FD0028D3D00298C105D0D400F06B
S1131DA040FB41F20A00C5E601200190009000F0DA
S1131DB033FB00F01FFBF6D11C2209A908F108002F
S1131DC0FEF7B8FB98F8000040F0010088F8000026
S1131DD008F10800FFF70EFD002800F02B82AB6825
S1131DE0E8689842E0D3CEE2E868082850D201219E
S1131DF00191009108230BAA00F00FFB00F0FAFAFE
S1131E00D1D198F8000040F0040088F80000B07BBD
S1131E10F17B327B00F0FBFA717B40EA0120104336
S1131E20C8F8280098F8010041072BD5EB208DF85D
S1131E302400A6201721B070717007F150005E21B4
S1131E40F170026807F184010A600022EA6199F8DE
S1131E50030040F0020089F803003E98C4688CB186
S1131E600368042209A90020A0473E983E9C08224A
S1131E700368E869D4F80CC00BA90830E047E869A6
S1131E801030E8610C2089F80400ADE7E868082800
S1131E9080F0378201210191009100F0BCFA00F03A
S1131EA0A9FA34D198F8000040F0020088F8000044
S1131EB0B078F1789DF8242000F0A9FA717840EA0E
S1131EC001201043C8F80400A8680838C8F82400A2
S1131ED0B079F179327900F09AFA717940EA012007
S1131EE0104340F0148299F80310052089F8040087
S1131EF041F0010189F803100020E861C6E70121DF
S1131F0001910091042300F087FA00F073FA7FF442
S1131F1011AEB178F0789DF82420090441EA0061FB
S1131F20707841EA002111430291A868042884BF13
S1131F300298A861E8680428E1D30A21EDE1036866
S1131F40E869524609A9A047E8695044E861A868CD
S1131F50E968814280F01782A0EB010ABAF1040F0C
S1131F6005A9384608D3FFF7D2FC042808D205A9EE
S1131F703846FFF7A9FCDCE5FFF7C9FC5045F6D36A
S1131F80BAF1410F05A9384628BF4FF0400AFFF7C0
S1131F90BEFC504502D200F036FA8246BAF1040F74
S1131FA009AA05A924BF4FEA9A004FEA800A012032
S1131FB001900090534600F031FA00F01BFA6ED104
S1131FC099F80400082803D13E988468002CB6D1FF
S1131FD0CAF10404BAF1040F06D209A8FF2221466B
S1131FE0504400F06DFAA24499F804100A2906D16D
S1131FF03E9B524609A93846FFF70EFCA7E7052980
S113200019D198F80100820715D53E9BD86890B184
S1132010E869042819D80AEB0001072915D309A98E
S1132020091D081A016807F184021160FF220421C6
S113203000F046FA09E00C2989D198F8010041071B
S113204085D53E9AD0680028D8D03E983E9C52460A
S11320500368E869D4F80CC009A9E04774E74FF0B5
S1132060010B00F0D0F9584589D3A868E968A0EBC2
S1132070010BBBF1410F05A9384628BF4FF0400BB7
S1132080FFF745FC834502D300F0BDF983460120E8
S1132090019000905B4600F0BFF900F0ABF97FF4CB
S11320A049AD99F8000081060ED5002C1CBFD4F868
S11320B008C0BCF1000F3FF4D2AD53465A4609A9FB
S11320C03846E0470028EAD1E868A968884280F0E9
S11320D05E8199F800008106C1D5002C1CBF2169DE
S11320E00029BCD0384688478346BAE7FFF774FB1B
S11320F018B9012088F8030003E098F803000028C9
S113210042D099F8030010F0030F1CBFD4F80CC0A0
S1132110BCF1000F05D02368042207F184010420D8
S1132120E047A96900291CBF606800282CD04FF043
S1132130FF31029107F180050422294602A800F02C
S113214047FA40B1FFF753FB28B129462368656875
S11321500422001DA847042207F1680102A800F028
S113216037FA88B1FFF73CFB23686568142207F14E
S11321706C010830A847FFF733FB23686568042225
S113218007F16801001DA847012088F802000F210B
S113219089F80410CDE4002001210190009110235E
S11321A000F03AF900F026F948D1FDF7F7FF009066
S11321B080210191286801230AAA022100F0B3F9C1
S11321C0E8681028E7D3DEE097F8180100287FF4C8
S11321D0B9ACE86804280AD200F031F900F00AF931
S11321E02CD109A8026807F190010A6089E041F244
S11321F0030444280AD200F018F9A0421ED1402258
S113220009A907F19400FEF785F97AE0482816D267
S113221000F015F9A04211D109A8026807F1D40110
S11322200A600022506B806B20B1D7F8D410406C48
S1132230814266D200F0DAF841F20C007AE400F050
S1132240F4F8A042FAD1402209A907F1D800FEF718
S113225061F919A8FFF7D0FA482207F1900119A8EB
S1132260FFF7D4FA19A8FFF7D3FA0020009000234F
S113227007F1F80207F1D80119A8FEF7FDFC18B917
S1132280012087F8180129E000F0CBF841F206009C
S113229050E46868FFF7BCFA97F8180128B107F111
S11322A0B401009107F1940306E0FDF775FF0446BD
S11322B0FDF770FF00940346686811AA09A9FEF7A8
S11322C0DBFC28B1002088F8030000F08FF8DDE77C
S11322D0012088F8030089F80200012089F804002D
S11322E00FE000F08BF800F085F8D1D104980021BC
S11322F0E960A86003983149884208D1022289F82C
S11323000420079834998842FFF41CAC42E700F09B
S113231088F8A4E40020E861082189F80410F0E7B3
S113232099F80000DDF8F8A081062ED5686C00F05D
S113233032F90890002828D191E43E9C00200190B5
S11323400090042300F068F800F054F8A0D1286C41
S1132350254988423FF4CAAE152289F8042041F287
S1132360050095E799F802000028B6D100210191F3
S11323700090402300F050F800F03CF889D087E743
S113238041F2070084E70121C7E7089C9CE6CDF8E9
S1132390F8A0089499F800108A069ED5002C1CBF5A
S11323A0E268002A99D03E993846904700287FF485
S11323B0C1AB92E7F70A0AF7FC0404FCEB17A60387
S11323C0EB17A65EF30B0BF3F40A0AF4F50909F50F
S11323D0F60808F6F70909F7F90707F9FA0606FAFD
S11323E0FD0303FDFE0101FEE320BBDE152189F898
S11323F00410704741F203018842704703AA05A9FB
S11324003846FFF7EEBA05A93846FFF780BA00044C
S113241040EA01607047082309AA05A93846FFF776
S11324207DBA152089F8040070470020012101902D
S11324300091402309AA05A93846FFF76FBA002086
S1132440012101900091042309AA05A93846FFF748
S113245065BA10B50446B1F5037F02D240F20520F7
S113246010BD4FF40371FEF751F80020607004F5BD
S1132470C87204F5A47104F12C000023BDE81040D7
S1132480FFF701BB1CB504460091214604F12C0062
S1132490FFF73CFB0028C4F808021CBF41F2070107
S11324A088420BD1A07838B1E07810B140F2032013
S11324B016BD40F2022016BD40F2012016BDFEE713
S11324C062F30F2262F31F42401810F0030308D096
S11324D0C91A1FD3DB0748BF00F8012D28BF20F815
S11324E0022D130030B414461546103928BF20E9D4
S11324F03C00FAD8490728BF20E90C0048BF40F83F
S1132500042D890028BF20F8022D48BF00F8012DB2
S113251030BC7047C91818BF00F8012DCB0728BF7D
S113252000F8012D70472DE9F84380460E46914688
S11325301C46089D099FFDF735FE29463A4640464C
S1132540FDF736FE08F124000021016006750C2217
S1132550494608F13900FDF7DDFF08F14500210C7B
S1132560220A017042708470BDE8F1833EB51C46B6
S11325700292019100F12805009500F1380300F161
S113258024022146FDF7A6FE37BDFEE70022FFF731
S11325909BBF002070470020704700220260012288
S11325A04FF0FF3302E040F82230521C8A42FAD343
S11325B0002070470068002818BF10F1010F02D0F6
S11325C040F2045070470020704740F202507047B8
S11325D00300002013F0030F09D0521E22BF13F88A
S11325E0010B11F801CBB0EB0C00F3D07047121FB4
S11325F022BF53F8040B51F804CB6045F7D0121DE9
S11326000AD200BA9CFA8CFCB0EB0C0038BF6FF015
S1132610000088BF01207047521E22BF13F8010B2F
S113262011F801CBB0EB0C00F6D0521C08BF1046D9
S1132630704700000448054908600548026842F4F0
S113264070020260704700000000000008ED00E026
S113265088ED00E04EF68851CEF20001086840F49F
S113266070000860BFF34F8FBFF36F8F4FF000709F
S1132670E1EE100A7047000000F00DF8002801D0C8
S1132680AFF30080AFF300800020AFF30080FEF7CB
S1132690B3FB00F002F80120704700F001B800001D
S11326A00746384600F002F8FBE700002021090342
S11326B026311820ABBEF9E780B5FFF7BBFFFEF764
S11326C0EBFBBDE8014000F000B8AFF30080FFF77A
S10F26D0C1FFFFF7D1FF00000000000074
S90326CB0B
